{
	"docs.chain.link/samples/VRF/VRFD20.sol": {
		"VRFD20": {
			"abi": [
				{
					"inputs": [
						{
							"internalType": "uint64",
							"name": "subscriptionId",
							"type": "uint64"
						}
					],
					"stateMutability": "nonpayable",
					"type": "constructor"
				},
				{
					"inputs": [
						{
							"internalType": "uint256",
							"name": "numOfOptions",
							"type": "uint256"
						}
					],
					"name": "ExceedOptionMaxLimit",
					"type": "error"
				},
				{
					"inputs": [
						{
							"internalType": "uint256",
							"name": "wheelId",
							"type": "uint256"
						}
					],
					"name": "InvalidWheelId",
					"type": "error"
				},
				{
					"inputs": [
						{
							"internalType": "uint256",
							"name": "numOfOptions",
							"type": "uint256"
						}
					],
					"name": "LessThanTwoOptions",
					"type": "error"
				},
				{
					"inputs": [
						{
							"internalType": "address",
							"name": "have",
							"type": "address"
						},
						{
							"internalType": "address",
							"name": "want",
							"type": "address"
						}
					],
					"name": "OnlyCoordinatorCanFulfill",
					"type": "error"
				},
				{
					"anonymous": false,
					"inputs": [
						{
							"indexed": true,
							"internalType": "uint256",
							"name": "id",
							"type": "uint256"
						},
						{
							"indexed": true,
							"internalType": "address",
							"name": "creator",
							"type": "address"
						}
					],
					"name": "WheelCreated",
					"type": "event"
				},
				{
					"anonymous": false,
					"inputs": [
						{
							"indexed": true,
							"internalType": "uint256",
							"name": "requestId",
							"type": "uint256"
						}
					],
					"name": "WheelSpinned",
					"type": "event"
				},
				{
					"anonymous": false,
					"inputs": [
						{
							"indexed": true,
							"internalType": "uint256",
							"name": "requestId",
							"type": "uint256"
						},
						{
							"indexed": false,
							"internalType": "uint256",
							"name": "result",
							"type": "uint256"
						}
					],
					"name": "WheelStopped",
					"type": "event"
				},
				{
					"inputs": [],
					"name": "MAX_NUM_OF_OPTIONS",
					"outputs": [
						{
							"internalType": "uint256",
							"name": "",
							"type": "uint256"
						}
					],
					"stateMutability": "view",
					"type": "function"
				},
				{
					"inputs": [
						{
							"internalType": "string[]",
							"name": "options",
							"type": "string[]"
						}
					],
					"name": "createWheel",
					"outputs": [],
					"stateMutability": "nonpayable",
					"type": "function"
				},
				{
					"inputs": [
						{
							"internalType": "address",
							"name": "",
							"type": "address"
						},
						{
							"internalType": "uint256",
							"name": "",
							"type": "uint256"
						}
					],
					"name": "creatorToWheelIds",
					"outputs": [
						{
							"internalType": "uint256",
							"name": "",
							"type": "uint256"
						}
					],
					"stateMutability": "view",
					"type": "function"
				},
				{
					"inputs": [],
					"name": "numOfWheels",
					"outputs": [
						{
							"internalType": "uint256",
							"name": "",
							"type": "uint256"
						}
					],
					"stateMutability": "view",
					"type": "function"
				},
				{
					"inputs": [
						{
							"internalType": "uint256",
							"name": "requestId",
							"type": "uint256"
						},
						{
							"internalType": "uint256[]",
							"name": "randomWords",
							"type": "uint256[]"
						}
					],
					"name": "rawFulfillRandomWords",
					"outputs": [],
					"stateMutability": "nonpayable",
					"type": "function"
				},
				{
					"inputs": [
						{
							"internalType": "uint256",
							"name": "",
							"type": "uint256"
						}
					],
					"name": "requestIdToSpin",
					"outputs": [
						{
							"internalType": "uint256",
							"name": "requestId",
							"type": "uint256"
						},
						{
							"internalType": "uint256",
							"name": "wheelId",
							"type": "uint256"
						},
						{
							"internalType": "uint256",
							"name": "result",
							"type": "uint256"
						}
					],
					"stateMutability": "view",
					"type": "function"
				},
				{
					"inputs": [
						{
							"internalType": "uint256",
							"name": "spinId",
							"type": "uint256"
						}
					],
					"name": "spinById",
					"outputs": [
						{
							"components": [
								{
									"internalType": "uint256",
									"name": "requestId",
									"type": "uint256"
								},
								{
									"internalType": "uint256",
									"name": "wheelId",
									"type": "uint256"
								},
								{
									"internalType": "uint256",
									"name": "result",
									"type": "uint256"
								}
							],
							"internalType": "struct VRFD20.Spin",
							"name": "",
							"type": "tuple"
						}
					],
					"stateMutability": "view",
					"type": "function"
				},
				{
					"inputs": [
						{
							"internalType": "uint256",
							"name": "wheelId",
							"type": "uint256"
						}
					],
					"name": "spinWheel",
					"outputs": [
						{
							"internalType": "uint256",
							"name": "requestId",
							"type": "uint256"
						}
					],
					"stateMutability": "nonpayable",
					"type": "function"
				},
				{
					"inputs": [
						{
							"internalType": "uint256",
							"name": "wheelId",
							"type": "uint256"
						}
					],
					"name": "spinsByWheelId",
					"outputs": [
						{
							"internalType": "uint256[]",
							"name": "",
							"type": "uint256[]"
						}
					],
					"stateMutability": "view",
					"type": "function"
				},
				{
					"inputs": [
						{
							"internalType": "uint256",
							"name": "wheelId",
							"type": "uint256"
						}
					],
					"name": "wheelById",
					"outputs": [
						{
							"components": [
								{
									"internalType": "uint256",
									"name": "id",
									"type": "uint256"
								},
								{
									"internalType": "uint256",
									"name": "numOfOptions",
									"type": "uint256"
								},
								{
									"internalType": "string[]",
									"name": "options",
									"type": "string[]"
								}
							],
							"internalType": "struct VRFD20.Wheel",
							"name": "",
							"type": "tuple"
						}
					],
					"stateMutability": "view",
					"type": "function"
				},
				{
					"inputs": [
						{
							"internalType": "uint256",
							"name": "",
							"type": "uint256"
						},
						{
							"internalType": "uint256",
							"name": "",
							"type": "uint256"
						}
					],
					"name": "wheelIdToSpinIds",
					"outputs": [
						{
							"internalType": "uint256",
							"name": "",
							"type": "uint256"
						}
					],
					"stateMutability": "view",
					"type": "function"
				},
				{
					"inputs": [
						{
							"internalType": "uint256",
							"name": "",
							"type": "uint256"
						}
					],
					"name": "wheelIdToWheel",
					"outputs": [
						{
							"internalType": "uint256",
							"name": "id",
							"type": "uint256"
						},
						{
							"internalType": "uint256",
							"name": "numOfOptions",
							"type": "uint256"
						}
					],
					"stateMutability": "view",
					"type": "function"
				},
				{
					"inputs": [
						{
							"internalType": "address",
							"name": "creator",
							"type": "address"
						}
					],
					"name": "wheelsCreatedBy",
					"outputs": [
						{
							"internalType": "uint256[]",
							"name": "",
							"type": "uint256[]"
						}
					],
					"stateMutability": "view",
					"type": "function"
				}
			],
			"devdoc": {
				"kind": "dev",
				"methods": {
					"constructor": {
						"details": "NETWORK: Sepolia",
						"params": {
							"subscriptionId": "subscription id that this consumer contract can use"
						}
					},
					"createWheel(string[])": {
						"params": {
							"options": "string[] wheel options (2 to 10 options)"
						}
					},
					"spinById(uint256)": {
						"params": {
							"spinId": "uint256"
						},
						"returns": {
							"_0": "spin "
						}
					},
					"spinWheel(uint256)": {
						"details": "Warning: if the VRF response is delayed, avoid calling requestRandomness repeatedly as that would give miners/VRF operators latitude about which VRF response arrives first.You must review your implementation details with extreme care.",
						"params": {
							"wheelId": "uint256"
						}
					},
					"spinsByWheelId(uint256)": {
						"params": {
							"wheelId": "uint256"
						},
						"returns": {
							"_0": "spin ids"
						}
					},
					"wheelById(uint256)": {
						"params": {
							"wheelId": "uint256"
						},
						"returns": {
							"_0": "wheel"
						}
					},
					"wheelsCreatedBy(address)": {
						"params": {
							"creator": "address"
						},
						"returns": {
							"_0": "house as a string"
						}
					}
				},
				"version": 1
			},
			"evm": {
				"assembly": "    /* \"docs.chain.link/samples/VRF/VRFD20.sol\":853:7571  contract VRFD20 is VRFConsumerBaseV2 {... */\n  mstore(0x40, 0xa0)\n    /* \"docs.chain.link/samples/VRF/VRFD20.sol\":1195:1237  0x8103B0A8A00be2DDC778e6e7eaa21791Cd364625 */\n  0x8103b0a8a00be2ddc778e6e7eaa21791cd364625\n    /* \"docs.chain.link/samples/VRF/VRFD20.sol\":1170:1237  address vrfCoordinator = 0x8103B0A8A00be2DDC778e6e7eaa21791Cd364625 */\n  0x01\n  exp(0x0100, 0x00)\n  dup2\n  sload\n  dup2\n  0xffffffffffffffffffffffffffffffffffffffff\n  mul\n  not\n  and\n  swap1\n  dup4\n  0xffffffffffffffffffffffffffffffffffffffff\n  and\n  mul\n  or\n  swap1\n  sstore\n  pop\n    /* \"docs.chain.link/samples/VRF/VRFD20.sol\":1478:1544  0x474e34a077df58807dbe9c96d3c009b23b3c6d0cce433e59bbf5b34f823bc56c */\n  0x474e34a077df58807dbe9c96d3c009b23b3c6d0cce433e59bbf5b34f823bc56c\n    /* \"docs.chain.link/samples/VRF/VRFD20.sol\":1450:1544  bytes32 s_keyHash =... */\n  0x00\n  shl\n  0x02\n  sstore\n    /* \"docs.chain.link/samples/VRF/VRFD20.sol\":1986:1991  40000 */\n  0x9c40\n    /* \"docs.chain.link/samples/VRF/VRFD20.sol\":1960:1991  uint32 callbackGasLimit = 40000 */\n  0x03\n  exp(0x0100, 0x00)\n  dup2\n  sload\n  dup2\n  0xffffffff\n  mul\n  not\n  and\n  swap1\n  dup4\n  0xffffffff\n  and\n  mul\n  or\n  swap1\n  sstore\n  pop\n    /* \"docs.chain.link/samples/VRF/VRFD20.sol\":2082:2083  3 */\n  0x03\n    /* \"docs.chain.link/samples/VRF/VRFD20.sol\":2052:2083  uint16 requestConfirmations = 3 */\n  dup1\n  exp(0x0100, 0x04)\n  dup2\n  sload\n  dup2\n  0xffff\n  mul\n  not\n  and\n  swap1\n  dup4\n  0xffff\n  and\n  mul\n  or\n  swap1\n  sstore\n  pop\n    /* \"docs.chain.link/samples/VRF/VRFD20.sol\":2226:2227  1 */\n  0x01\n    /* \"docs.chain.link/samples/VRF/VRFD20.sol\":2208:2227  uint32 numWords = 1 */\n  0x03\n  exp(0x0100, 0x06)\n  dup2\n  sload\n  dup2\n  0xffffffff\n  mul\n  not\n  and\n  swap1\n  dup4\n  0xffffffff\n  and\n  mul\n  or\n  swap1\n  sstore\n  pop\n    /* \"docs.chain.link/samples/VRF/VRFD20.sol\":2316:2317  0 */\n  0x00\n    /* \"docs.chain.link/samples/VRF/VRFD20.sol\":2287:2317  uint256 public numOfWheels = 0 */\n  0x04\n  sstore\n    /* \"docs.chain.link/samples/VRF/VRFD20.sol\":3293:3477  constructor(uint64 subscriptionId) VRFConsumerBaseV2(vrfCoordinator) {... */\n  callvalue\n  dup1\n  iszero\n  tag_1\n  jumpi\n  0x00\n  dup1\n  revert\ntag_1:\n  pop\n  mload(0x40)\n  sub(codesize, bytecodeSize)\n  dup1\n  bytecodeSize\n  dup4\n  codecopy\n  dup2\n  dup2\n  add\n  0x40\n  mstore\n  dup2\n  add\n  swap1\n  tag_2\n  swap2\n  swap1\n  tag_3\n  jump\t// in\ntag_2:\n    /* \"docs.chain.link/samples/VRF/VRFD20.sol\":3346:3360  vrfCoordinator */\n  0x01\n  0x00\n  swap1\n  sload\n  swap1\n  0x0100\n  exp\n  swap1\n  div\n  0xffffffffffffffffffffffffffffffffffffffff\n  and\n    /* \"@chainlink/contracts/src/v0.8/vrf/VRFConsumerBaseV2.sol\":5616:5631  _vrfCoordinator */\n  dup1\n    /* \"@chainlink/contracts/src/v0.8/vrf/VRFConsumerBaseV2.sol\":5599:5631  vrfCoordinator = _vrfCoordinator */\n  0xffffffffffffffffffffffffffffffffffffffff\n  and\n  0x80\n  dup2\n  0xffffffffffffffffffffffffffffffffffffffff\n  and\n  dup2\n  mstore\n  pop\n  pop\n    /* \"@chainlink/contracts/src/v0.8/vrf/VRFConsumerBaseV2.sol\":5556:5636  constructor(address _vrfCoordinator) {... */\n  pop\n    /* \"docs.chain.link/samples/VRF/VRFD20.sol\":3412:3426  vrfCoordinator */\n  0x01\n  0x00\n  swap1\n  sload\n  swap1\n  0x0100\n  exp\n  swap1\n  div\n  0xffffffffffffffffffffffffffffffffffffffff\n  and\n    /* \"docs.chain.link/samples/VRF/VRFD20.sol\":3372:3383  COORDINATOR */\n  0x00\n  dup1\n    /* \"docs.chain.link/samples/VRF/VRFD20.sol\":3372:3427  COORDINATOR = VRFCoordinatorV2Interface(vrfCoordinator) */\n  0x0100\n  exp\n  dup2\n  sload\n  dup2\n  0xffffffffffffffffffffffffffffffffffffffff\n  mul\n  not\n  and\n  swap1\n  dup4\n  0xffffffffffffffffffffffffffffffffffffffff\n  and\n  mul\n  or\n  swap1\n  sstore\n  pop\n    /* \"docs.chain.link/samples/VRF/VRFD20.sol\":3456:3470  subscriptionId */\n  dup1\n    /* \"docs.chain.link/samples/VRF/VRFD20.sol\":3437:3453  s_subscriptionId */\n  0x00\n  0x14\n    /* \"docs.chain.link/samples/VRF/VRFD20.sol\":3437:3470  s_subscriptionId = subscriptionId */\n  0x0100\n  exp\n  dup2\n  sload\n  dup2\n  0xffffffffffffffff\n  mul\n  not\n  and\n  swap1\n  dup4\n  0xffffffffffffffff\n  and\n  mul\n  or\n  swap1\n  sstore\n  pop\n    /* \"docs.chain.link/samples/VRF/VRFD20.sol\":3293:3477  constructor(uint64 subscriptionId) VRFConsumerBaseV2(vrfCoordinator) {... */\n  pop\n    /* \"docs.chain.link/samples/VRF/VRFD20.sol\":853:7571  contract VRFD20 is VRFConsumerBaseV2 {... */\n  jump(tag_8)\n    /* \"#utility.yul\":88:205   */\ntag_10:\n    /* \"#utility.yul\":197:198   */\n  0x00\n    /* \"#utility.yul\":194:195   */\n  dup1\n    /* \"#utility.yul\":187:199   */\n  revert\n    /* \"#utility.yul\":334:435   */\ntag_12:\n    /* \"#utility.yul\":370:377   */\n  0x00\n    /* \"#utility.yul\":410:428   */\n  0xffffffffffffffff\n    /* \"#utility.yul\":403:408   */\n  dup3\n    /* \"#utility.yul\":399:429   */\n  and\n    /* \"#utility.yul\":388:429   */\n  swap1\n  pop\n    /* \"#utility.yul\":334:435   */\n  swap2\n  swap1\n  pop\n  jump\t// out\n    /* \"#utility.yul\":441:561   */\ntag_13:\n    /* \"#utility.yul\":513:536   */\n  tag_21\n    /* \"#utility.yul\":530:535   */\n  dup2\n    /* \"#utility.yul\":513:536   */\n  tag_12\n  jump\t// in\ntag_21:\n    /* \"#utility.yul\":506:511   */\n  dup2\n    /* \"#utility.yul\":503:537   */\n  eq\n    /* \"#utility.yul\":493:555   */\n  tag_22\n  jumpi\n    /* \"#utility.yul\":551:552   */\n  0x00\n    /* \"#utility.yul\":548:549   */\n  dup1\n    /* \"#utility.yul\":541:553   */\n  revert\n    /* \"#utility.yul\":493:555   */\ntag_22:\n    /* \"#utility.yul\":441:561   */\n  pop\n  jump\t// out\n    /* \"#utility.yul\":567:708   */\ntag_14:\n    /* \"#utility.yul\":623:628   */\n  0x00\n    /* \"#utility.yul\":654:660   */\n  dup2\n    /* \"#utility.yul\":648:661   */\n  mload\n    /* \"#utility.yul\":639:661   */\n  swap1\n  pop\n    /* \"#utility.yul\":670:702   */\n  tag_24\n    /* \"#utility.yul\":696:701   */\n  dup2\n    /* \"#utility.yul\":670:702   */\n  tag_13\n  jump\t// in\ntag_24:\n    /* \"#utility.yul\":567:708   */\n  swap3\n  swap2\n  pop\n  pop\n  jump\t// out\n    /* \"#utility.yul\":714:1063   */\ntag_3:\n    /* \"#utility.yul\":783:789   */\n  0x00\n    /* \"#utility.yul\":832:834   */\n  0x20\n    /* \"#utility.yul\":820:829   */\n  dup3\n    /* \"#utility.yul\":811:818   */\n  dup5\n    /* \"#utility.yul\":807:830   */\n  sub\n    /* \"#utility.yul\":803:835   */\n  slt\n    /* \"#utility.yul\":800:919   */\n  iszero\n  tag_26\n  jumpi\n    /* \"#utility.yul\":838:917   */\n  tag_27\n  tag_10\n  jump\t// in\ntag_27:\n    /* \"#utility.yul\":800:919   */\ntag_26:\n    /* \"#utility.yul\":958:959   */\n  0x00\n    /* \"#utility.yul\":983:1046   */\n  tag_28\n    /* \"#utility.yul\":1038:1045   */\n  dup5\n    /* \"#utility.yul\":1029:1035   */\n  dup3\n    /* \"#utility.yul\":1018:1027   */\n  dup6\n    /* \"#utility.yul\":1014:1036   */\n  add\n    /* \"#utility.yul\":983:1046   */\n  tag_14\n  jump\t// in\ntag_28:\n    /* \"#utility.yul\":973:1046   */\n  swap2\n  pop\n    /* \"#utility.yul\":929:1056   */\n  pop\n    /* \"#utility.yul\":714:1063   */\n  swap3\n  swap2\n  pop\n  pop\n  jump\t// out\n    /* \"docs.chain.link/samples/VRF/VRFD20.sol\":853:7571  contract VRFD20 is VRFConsumerBaseV2 {... */\ntag_8:\n  mload(0x80)\n  codecopy(0x00, dataOffset(sub_0), dataSize(sub_0))\n  0x00\n  assignImmutable(\"0xecb3d63bca2dac2f15cfd948f18f200abecc477e6036fc1499f13da50bed1ba1\")\n  return(0x00, dataSize(sub_0))\nstop\n\nsub_0: assembly {\n        /* \"docs.chain.link/samples/VRF/VRFD20.sol\":853:7571  contract VRFD20 is VRFConsumerBaseV2 {... */\n      mstore(0x40, 0x80)\n      callvalue\n      dup1\n      iszero\n      tag_1\n      jumpi\n      0x00\n      dup1\n      revert\n    tag_1:\n      pop\n      jumpi(tag_2, lt(calldatasize, 0x04))\n      shr(0xe0, calldataload(0x00))\n      dup1\n      0x742bc8cf\n      gt\n      tag_16\n      jumpi\n      dup1\n      0xb53c1585\n      gt\n      tag_17\n      jumpi\n      dup1\n      0xb53c1585\n      eq\n      tag_12\n      jumpi\n      dup1\n      0xd7349e20\n      eq\n      tag_13\n      jumpi\n      dup1\n      0xeebc118c\n      eq\n      tag_14\n      jumpi\n      dup1\n      0xf442582e\n      eq\n      tag_15\n      jumpi\n      jump(tag_2)\n    tag_17:\n      dup1\n      0x742bc8cf\n      eq\n      tag_9\n      jumpi\n      dup1\n      0x86f3518e\n      eq\n      tag_10\n      jumpi\n      dup1\n      0xa2d7c106\n      eq\n      tag_11\n      jumpi\n      jump(tag_2)\n    tag_16:\n      dup1\n      0x1fe543e3\n      eq\n      tag_3\n      jumpi\n      dup1\n      0x31e26c37\n      eq\n      tag_4\n      jumpi\n      dup1\n      0x36b3f478\n      eq\n      tag_5\n      jumpi\n      dup1\n      0x43b96f16\n      eq\n      tag_6\n      jumpi\n      dup1\n      0x531de888\n      eq\n      tag_7\n      jumpi\n      dup1\n      0x55f3c984\n      eq\n      tag_8\n      jumpi\n    tag_2:\n      0x00\n      dup1\n      revert\n        /* \"@chainlink/contracts/src/v0.8/vrf/VRFConsumerBaseV2.sol\":6618:6874  function rawFulfillRandomWords(uint256 requestId, uint256[] memory randomWords) external {... */\n    tag_3:\n      tag_18\n      0x04\n      dup1\n      calldatasize\n      sub\n      dup2\n      add\n      swap1\n      tag_19\n      swap2\n      swap1\n      tag_20\n      jump\t// in\n    tag_19:\n      tag_21\n      jump\t// in\n    tag_18:\n      stop\n        /* \"docs.chain.link/samples/VRF/VRFD20.sol\":7187:7316  function spinsByWheelId(uint256 wheelId) public view returns (uint256[] memory) {... */\n    tag_4:\n      tag_22\n      0x04\n      dup1\n      calldatasize\n      sub\n      dup2\n      add\n      swap1\n      tag_23\n      swap2\n      swap1\n      tag_24\n      jump\t// in\n    tag_23:\n      tag_25\n      jump\t// in\n    tag_22:\n      mload(0x40)\n      tag_26\n      swap2\n      swap1\n      tag_27\n      jump\t// in\n    tag_26:\n      mload(0x40)\n      dup1\n      swap2\n      sub\n      swap1\n      return\n        /* \"docs.chain.link/samples/VRF/VRFD20.sol\":2287:2317  uint256 public numOfWheels = 0 */\n    tag_5:\n      tag_28\n      tag_29\n      jump\t// in\n    tag_28:\n      mload(0x40)\n      tag_30\n      swap2\n      swap1\n      tag_31\n      jump\t// in\n    tag_30:\n      mload(0x40)\n      dup1\n      swap2\n      sub\n      swap1\n      return\n        /* \"docs.chain.link/samples/VRF/VRFD20.sol\":6951:7069  function wheelById(uint256 wheelId) public view returns (Wheel memory) {... */\n    tag_6:\n      tag_32\n      0x04\n      dup1\n      calldatasize\n      sub\n      dup2\n      add\n      swap1\n      tag_33\n      swap2\n      swap1\n      tag_24\n      jump\t// in\n    tag_33:\n      tag_34\n      jump\t// in\n    tag_32:\n      mload(0x40)\n      tag_35\n      swap2\n      swap1\n      tag_36\n      jump\t// in\n    tag_35:\n      mload(0x40)\n      dup1\n      swap2\n      sub\n      swap1\n      return\n        /* \"docs.chain.link/samples/VRF/VRFD20.sol\":2234:2281  uint256 public constant MAX_NUM_OF_OPTIONS = 10 */\n    tag_7:\n      tag_37\n      tag_38\n      jump\t// in\n    tag_37:\n      mload(0x40)\n      tag_39\n      swap2\n      swap1\n      tag_31\n      jump\t// in\n    tag_39:\n      mload(0x40)\n      dup1\n      swap2\n      sub\n      swap1\n      return\n        /* \"docs.chain.link/samples/VRF/VRFD20.sol\":2703:2750  mapping(uint256 => Spin) public requestIdToSpin */\n    tag_8:\n      tag_40\n      0x04\n      dup1\n      calldatasize\n      sub\n      dup2\n      add\n      swap1\n      tag_41\n      swap2\n      swap1\n      tag_24\n      jump\t// in\n    tag_41:\n      tag_42\n      jump\t// in\n    tag_40:\n      mload(0x40)\n      tag_43\n      swap4\n      swap3\n      swap2\n      swap1\n      tag_44\n      jump\t// in\n    tag_43:\n      mload(0x40)\n      dup1\n      swap2\n      sub\n      swap1\n      return\n        /* \"docs.chain.link/samples/VRF/VRFD20.sol\":2644:2697  mapping(uint256 => uint256[]) public wheelIdToSpinIds */\n    tag_9:\n      tag_45\n      0x04\n      dup1\n      calldatasize\n      sub\n      dup2\n      add\n      swap1\n      tag_46\n      swap2\n      swap1\n      tag_47\n      jump\t// in\n    tag_46:\n      tag_48\n      jump\t// in\n    tag_45:\n      mload(0x40)\n      tag_49\n      swap2\n      swap1\n      tag_31\n      jump\t// in\n    tag_49:\n      mload(0x40)\n      dup1\n      swap2\n      sub\n      swap1\n      return\n        /* \"docs.chain.link/samples/VRF/VRFD20.sol\":6712:6843  function wheelsCreatedBy(address creator) public view returns (uint256[] memory) {... */\n    tag_10:\n      tag_50\n      0x04\n      dup1\n      calldatasize\n      sub\n      dup2\n      add\n      swap1\n      tag_51\n      swap2\n      swap1\n      tag_52\n      jump\t// in\n    tag_51:\n      tag_53\n      jump\t// in\n    tag_50:\n      mload(0x40)\n      tag_54\n      swap2\n      swap1\n      tag_27\n      jump\t// in\n    tag_54:\n      mload(0x40)\n      dup1\n      swap2\n      sub\n      swap1\n      return\n        /* \"docs.chain.link/samples/VRF/VRFD20.sol\":4527:5154  function spinWheel(... */\n    tag_11:\n      tag_55\n      0x04\n      dup1\n      calldatasize\n      sub\n      dup2\n      add\n      swap1\n      tag_56\n      swap2\n      swap1\n      tag_24\n      jump\t// in\n    tag_56:\n      tag_57\n      jump\t// in\n    tag_55:\n      mload(0x40)\n      tag_58\n      swap2\n      swap1\n      tag_31\n      jump\t// in\n    tag_58:\n      mload(0x40)\n      dup1\n      swap2\n      sub\n      swap1\n      return\n        /* \"docs.chain.link/samples/VRF/VRFD20.sol\":2531:2585  mapping(address => uint256[]) public creatorToWheelIds */\n    tag_12:\n      tag_59\n      0x04\n      dup1\n      calldatasize\n      sub\n      dup2\n      add\n      swap1\n      tag_60\n      swap2\n      swap1\n      tag_61\n      jump\t// in\n    tag_60:\n      tag_62\n      jump\t// in\n    tag_59:\n      mload(0x40)\n      tag_63\n      swap2\n      swap1\n      tag_31\n      jump\t// in\n    tag_63:\n      mload(0x40)\n      dup1\n      swap2\n      sub\n      swap1\n      return\n        /* \"docs.chain.link/samples/VRF/VRFD20.sol\":7454:7569  function spinById(uint256 spinId) public view returns (Spin memory) {... */\n    tag_13:\n      tag_64\n      0x04\n      dup1\n      calldatasize\n      sub\n      dup2\n      add\n      swap1\n      tag_65\n      swap2\n      swap1\n      tag_24\n      jump\t// in\n    tag_65:\n      tag_66\n      jump\t// in\n    tag_64:\n      mload(0x40)\n      tag_67\n      swap2\n      swap1\n      tag_68\n      jump\t// in\n    tag_67:\n      mload(0x40)\n      dup1\n      swap2\n      sub\n      swap1\n      return\n        /* \"docs.chain.link/samples/VRF/VRFD20.sol\":2591:2638  mapping(uint256 => Wheel) public wheelIdToWheel */\n    tag_14:\n      tag_69\n      0x04\n      dup1\n      calldatasize\n      sub\n      dup2\n      add\n      swap1\n      tag_70\n      swap2\n      swap1\n      tag_24\n      jump\t// in\n    tag_70:\n      tag_71\n      jump\t// in\n    tag_69:\n      mload(0x40)\n      tag_72\n      swap3\n      swap2\n      swap1\n      tag_73\n      jump\t// in\n    tag_72:\n      mload(0x40)\n      dup1\n      swap2\n      sub\n      swap1\n      return\n        /* \"docs.chain.link/samples/VRF/VRFD20.sol\":3598:4166  function createWheel(... */\n    tag_15:\n      tag_74\n      0x04\n      dup1\n      calldatasize\n      sub\n      dup2\n      add\n      swap1\n      tag_75\n      swap2\n      swap1\n      tag_76\n      jump\t// in\n    tag_75:\n      tag_77\n      jump\t// in\n    tag_74:\n      stop\n        /* \"@chainlink/contracts/src/v0.8/vrf/VRFConsumerBaseV2.sol\":6618:6874  function rawFulfillRandomWords(uint256 requestId, uint256[] memory randomWords) external {... */\n    tag_21:\n        /* \"@chainlink/contracts/src/v0.8/vrf/VRFConsumerBaseV2.sol\":6731:6745  vrfCoordinator */\n      immutable(\"0xecb3d63bca2dac2f15cfd948f18f200abecc477e6036fc1499f13da50bed1ba1\")\n        /* \"@chainlink/contracts/src/v0.8/vrf/VRFConsumerBaseV2.sol\":6717:6745  msg.sender != vrfCoordinator */\n      0xffffffffffffffffffffffffffffffffffffffff\n      and\n        /* \"@chainlink/contracts/src/v0.8/vrf/VRFConsumerBaseV2.sol\":6717:6727  msg.sender */\n      caller\n        /* \"@chainlink/contracts/src/v0.8/vrf/VRFConsumerBaseV2.sol\":6717:6745  msg.sender != vrfCoordinator */\n      0xffffffffffffffffffffffffffffffffffffffff\n      and\n      eq\n        /* \"@chainlink/contracts/src/v0.8/vrf/VRFConsumerBaseV2.sol\":6713:6822  if (msg.sender != vrfCoordinator) {... */\n      tag_79\n      jumpi\n        /* \"@chainlink/contracts/src/v0.8/vrf/VRFConsumerBaseV2.sol\":6788:6798  msg.sender */\n      caller\n        /* \"@chainlink/contracts/src/v0.8/vrf/VRFConsumerBaseV2.sol\":6800:6814  vrfCoordinator */\n      immutable(\"0xecb3d63bca2dac2f15cfd948f18f200abecc477e6036fc1499f13da50bed1ba1\")\n        /* \"@chainlink/contracts/src/v0.8/vrf/VRFConsumerBaseV2.sol\":6762:6815  OnlyCoordinatorCanFulfill(msg.sender, vrfCoordinator) */\n      mload(0x40)\n      0x1cf993f400000000000000000000000000000000000000000000000000000000\n      dup2\n      mstore\n      0x04\n      add\n      tag_80\n      swap3\n      swap2\n      swap1\n      tag_81\n      jump\t// in\n    tag_80:\n      mload(0x40)\n      dup1\n      swap2\n      sub\n      swap1\n      revert\n        /* \"@chainlink/contracts/src/v0.8/vrf/VRFConsumerBaseV2.sol\":6713:6822  if (msg.sender != vrfCoordinator) {... */\n    tag_79:\n        /* \"@chainlink/contracts/src/v0.8/vrf/VRFConsumerBaseV2.sol\":6827:6869  fulfillRandomWords(requestId, randomWords) */\n      tag_82\n        /* \"@chainlink/contracts/src/v0.8/vrf/VRFConsumerBaseV2.sol\":6846:6855  requestId */\n      dup3\n        /* \"@chainlink/contracts/src/v0.8/vrf/VRFConsumerBaseV2.sol\":6857:6868  randomWords */\n      dup3\n        /* \"@chainlink/contracts/src/v0.8/vrf/VRFConsumerBaseV2.sol\":6827:6845  fulfillRandomWords */\n      tag_83\n        /* \"@chainlink/contracts/src/v0.8/vrf/VRFConsumerBaseV2.sol\":6827:6869  fulfillRandomWords(requestId, randomWords) */\n      jump\t// in\n    tag_82:\n        /* \"@chainlink/contracts/src/v0.8/vrf/VRFConsumerBaseV2.sol\":6618:6874  function rawFulfillRandomWords(uint256 requestId, uint256[] memory randomWords) external {... */\n      pop\n      pop\n      jump\t// out\n        /* \"docs.chain.link/samples/VRF/VRFD20.sol\":7187:7316  function spinsByWheelId(uint256 wheelId) public view returns (uint256[] memory) {... */\n    tag_25:\n        /* \"docs.chain.link/samples/VRF/VRFD20.sol\":7249:7265  uint256[] memory */\n      0x60\n        /* \"docs.chain.link/samples/VRF/VRFD20.sol\":7284:7300  wheelIdToSpinIds */\n      0x07\n        /* \"docs.chain.link/samples/VRF/VRFD20.sol\":7284:7309  wheelIdToSpinIds[wheelId] */\n      0x00\n        /* \"docs.chain.link/samples/VRF/VRFD20.sol\":7301:7308  wheelId */\n      dup4\n        /* \"docs.chain.link/samples/VRF/VRFD20.sol\":7284:7309  wheelIdToSpinIds[wheelId] */\n      dup2\n      mstore\n      0x20\n      add\n      swap1\n      dup2\n      mstore\n      0x20\n      add\n      0x00\n      keccak256\n        /* \"docs.chain.link/samples/VRF/VRFD20.sol\":7277:7309  return wheelIdToSpinIds[wheelId] */\n      dup1\n      sload\n      dup1\n      0x20\n      mul\n      0x20\n      add\n      mload(0x40)\n      swap1\n      dup2\n      add\n      0x40\n      mstore\n      dup1\n      swap3\n      swap2\n      swap1\n      dup2\n      dup2\n      mstore\n      0x20\n      add\n      dup3\n      dup1\n      sload\n      dup1\n      iszero\n      tag_85\n      jumpi\n      0x20\n      mul\n      dup3\n      add\n      swap2\n      swap1\n      0x00\n      mstore\n      keccak256(0x00, 0x20)\n      swap1\n    tag_86:\n      dup2\n      sload\n      dup2\n      mstore\n      0x20\n      add\n      swap1\n      0x01\n      add\n      swap1\n      dup1\n      dup4\n      gt\n      tag_86\n      jumpi\n    tag_85:\n      pop\n      pop\n      pop\n      pop\n      pop\n      swap1\n      pop\n        /* \"docs.chain.link/samples/VRF/VRFD20.sol\":7187:7316  function spinsByWheelId(uint256 wheelId) public view returns (uint256[] memory) {... */\n      swap2\n      swap1\n      pop\n      jump\t// out\n        /* \"docs.chain.link/samples/VRF/VRFD20.sol\":2287:2317  uint256 public numOfWheels = 0 */\n    tag_29:\n      sload(0x04)\n      dup2\n      jump\t// out\n        /* \"docs.chain.link/samples/VRF/VRFD20.sol\":6951:7069  function wheelById(uint256 wheelId) public view returns (Wheel memory) {... */\n    tag_34:\n        /* \"docs.chain.link/samples/VRF/VRFD20.sol\":7008:7020  Wheel memory */\n      tag_87\n      tag_88\n      jump\t// in\n    tag_87:\n        /* \"docs.chain.link/samples/VRF/VRFD20.sol\":7039:7053  wheelIdToWheel */\n      0x06\n        /* \"docs.chain.link/samples/VRF/VRFD20.sol\":7039:7062  wheelIdToWheel[wheelId] */\n      0x00\n        /* \"docs.chain.link/samples/VRF/VRFD20.sol\":7054:7061  wheelId */\n      dup4\n        /* \"docs.chain.link/samples/VRF/VRFD20.sol\":7039:7062  wheelIdToWheel[wheelId] */\n      dup2\n      mstore\n      0x20\n      add\n      swap1\n      dup2\n      mstore\n      0x20\n      add\n      0x00\n      keccak256\n        /* \"docs.chain.link/samples/VRF/VRFD20.sol\":7032:7062  return wheelIdToWheel[wheelId] */\n      mload(0x40)\n      dup1\n      0x60\n      add\n      0x40\n      mstore\n      swap1\n      dup2\n      0x00\n      dup3\n      add\n      sload\n      dup2\n      mstore\n      0x20\n      add\n      0x01\n      dup3\n      add\n      sload\n      dup2\n      mstore\n      0x20\n      add\n      0x02\n      dup3\n      add\n      dup1\n      sload\n      dup1\n      0x20\n      mul\n      0x20\n      add\n      mload(0x40)\n      swap1\n      dup2\n      add\n      0x40\n      mstore\n      dup1\n      swap3\n      swap2\n      swap1\n      dup2\n      dup2\n      mstore\n      0x20\n      add\n      0x00\n      swap1\n    tag_90:\n      dup3\n      dup3\n      lt\n      iszero\n      tag_91\n      jumpi\n      dup4\n      dup3\n      swap1\n      0x00\n      mstore\n      keccak256(0x00, 0x20)\n      add\n      dup1\n      sload\n      tag_93\n      swap1\n      tag_94\n      jump\t// in\n    tag_93:\n      dup1\n      0x1f\n      add\n      0x20\n      dup1\n      swap2\n      div\n      mul\n      0x20\n      add\n      mload(0x40)\n      swap1\n      dup2\n      add\n      0x40\n      mstore\n      dup1\n      swap3\n      swap2\n      swap1\n      dup2\n      dup2\n      mstore\n      0x20\n      add\n      dup3\n      dup1\n      sload\n      tag_95\n      swap1\n      tag_94\n      jump\t// in\n    tag_95:\n      dup1\n      iszero\n      tag_96\n      jumpi\n      dup1\n      0x1f\n      lt\n      tag_97\n      jumpi\n      0x0100\n      dup1\n      dup4\n      sload\n      div\n      mul\n      dup4\n      mstore\n      swap2\n      0x20\n      add\n      swap2\n      jump(tag_96)\n    tag_97:\n      dup3\n      add\n      swap2\n      swap1\n      0x00\n      mstore\n      keccak256(0x00, 0x20)\n      swap1\n    tag_98:\n      dup2\n      sload\n      dup2\n      mstore\n      swap1\n      0x01\n      add\n      swap1\n      0x20\n      add\n      dup1\n      dup4\n      gt\n      tag_98\n      jumpi\n      dup3\n      swap1\n      sub\n      0x1f\n      and\n      dup3\n      add\n      swap2\n    tag_96:\n      pop\n      pop\n      pop\n      pop\n      pop\n      dup2\n      mstore\n      0x20\n      add\n      swap1\n      0x01\n      add\n      swap1\n      jump(tag_90)\n    tag_91:\n      pop\n      pop\n      pop\n      pop\n      dup2\n      mstore\n      pop\n      pop\n      swap1\n      pop\n        /* \"docs.chain.link/samples/VRF/VRFD20.sol\":6951:7069  function wheelById(uint256 wheelId) public view returns (Wheel memory) {... */\n      swap2\n      swap1\n      pop\n      jump\t// out\n        /* \"docs.chain.link/samples/VRF/VRFD20.sol\":2234:2281  uint256 public constant MAX_NUM_OF_OPTIONS = 10 */\n    tag_38:\n        /* \"docs.chain.link/samples/VRF/VRFD20.sol\":2279:2281  10 */\n      0x0a\n        /* \"docs.chain.link/samples/VRF/VRFD20.sol\":2234:2281  uint256 public constant MAX_NUM_OF_OPTIONS = 10 */\n      dup2\n      jump\t// out\n        /* \"docs.chain.link/samples/VRF/VRFD20.sol\":2703:2750  mapping(uint256 => Spin) public requestIdToSpin */\n    tag_42:\n      mstore(0x20, 0x08)\n      dup1\n      0x00\n      mstore\n      keccak256(0x00, 0x40)\n      0x00\n      swap2\n      pop\n      swap1\n      pop\n      dup1\n      0x00\n      add\n      sload\n      swap1\n      dup1\n      0x01\n      add\n      sload\n      swap1\n      dup1\n      0x02\n      add\n      sload\n      swap1\n      pop\n      dup4\n      jump\t// out\n        /* \"docs.chain.link/samples/VRF/VRFD20.sol\":2644:2697  mapping(uint256 => uint256[]) public wheelIdToSpinIds */\n    tag_48:\n      mstore(0x20, 0x07)\n      dup2\n      0x00\n      mstore\n      keccak256(0x00, 0x40)\n      dup2\n      dup2\n      sload\n      dup2\n      lt\n      tag_99\n      jumpi\n      0x00\n      dup1\n      revert\n    tag_99:\n      swap1\n      0x00\n      mstore\n      keccak256(0x00, 0x20)\n      add\n      0x00\n      swap2\n      pop\n      swap2\n      pop\n      pop\n      sload\n      dup2\n      jump\t// out\n        /* \"docs.chain.link/samples/VRF/VRFD20.sol\":6712:6843  function wheelsCreatedBy(address creator) public view returns (uint256[] memory) {... */\n    tag_53:\n        /* \"docs.chain.link/samples/VRF/VRFD20.sol\":6775:6791  uint256[] memory */\n      0x60\n        /* \"docs.chain.link/samples/VRF/VRFD20.sol\":6810:6827  creatorToWheelIds */\n      0x05\n        /* \"docs.chain.link/samples/VRF/VRFD20.sol\":6810:6836  creatorToWheelIds[creator] */\n      0x00\n        /* \"docs.chain.link/samples/VRF/VRFD20.sol\":6828:6835  creator */\n      dup4\n        /* \"docs.chain.link/samples/VRF/VRFD20.sol\":6810:6836  creatorToWheelIds[creator] */\n      0xffffffffffffffffffffffffffffffffffffffff\n      and\n      0xffffffffffffffffffffffffffffffffffffffff\n      and\n      dup2\n      mstore\n      0x20\n      add\n      swap1\n      dup2\n      mstore\n      0x20\n      add\n      0x00\n      keccak256\n        /* \"docs.chain.link/samples/VRF/VRFD20.sol\":6803:6836  return creatorToWheelIds[creator] */\n      dup1\n      sload\n      dup1\n      0x20\n      mul\n      0x20\n      add\n      mload(0x40)\n      swap1\n      dup2\n      add\n      0x40\n      mstore\n      dup1\n      swap3\n      swap2\n      swap1\n      dup2\n      dup2\n      mstore\n      0x20\n      add\n      dup3\n      dup1\n      sload\n      dup1\n      iszero\n      tag_102\n      jumpi\n      0x20\n      mul\n      dup3\n      add\n      swap2\n      swap1\n      0x00\n      mstore\n      keccak256(0x00, 0x20)\n      swap1\n    tag_103:\n      dup2\n      sload\n      dup2\n      mstore\n      0x20\n      add\n      swap1\n      0x01\n      add\n      swap1\n      dup1\n      dup4\n      gt\n      tag_103\n      jumpi\n    tag_102:\n      pop\n      pop\n      pop\n      pop\n      pop\n      swap1\n      pop\n        /* \"docs.chain.link/samples/VRF/VRFD20.sol\":6712:6843  function wheelsCreatedBy(address creator) public view returns (uint256[] memory) {... */\n      swap2\n      swap1\n      pop\n      jump\t// out\n        /* \"docs.chain.link/samples/VRF/VRFD20.sol\":4527:5154  function spinWheel(... */\n    tag_57:\n        /* \"docs.chain.link/samples/VRF/VRFD20.sol\":4593:4610  uint256 requestId */\n      0x00\n        /* \"docs.chain.link/samples/VRF/VRFD20.sol\":4636:4647  numOfWheels */\n      sload(0x04)\n        /* \"docs.chain.link/samples/VRF/VRFD20.sol\":4626:4633  wheelId */\n      dup3\n        /* \"docs.chain.link/samples/VRF/VRFD20.sol\":4626:4647  wheelId > numOfWheels */\n      gt\n        /* \"docs.chain.link/samples/VRF/VRFD20.sol\":4626:4663  wheelId > numOfWheels || wheelId == 0 */\n      dup1\n      tag_105\n      jumpi\n      pop\n        /* \"docs.chain.link/samples/VRF/VRFD20.sol\":4662:4663  0 */\n      0x00\n        /* \"docs.chain.link/samples/VRF/VRFD20.sol\":4651:4658  wheelId */\n      dup3\n        /* \"docs.chain.link/samples/VRF/VRFD20.sol\":4651:4663  wheelId == 0 */\n      eq\n        /* \"docs.chain.link/samples/VRF/VRFD20.sol\":4626:4663  wheelId > numOfWheels || wheelId == 0 */\n    tag_105:\n        /* \"docs.chain.link/samples/VRF/VRFD20.sol\":4622:4695  if (wheelId > numOfWheels || wheelId == 0) revert InvalidWheelId(wheelId) */\n      iszero\n      tag_106\n      jumpi\n        /* \"docs.chain.link/samples/VRF/VRFD20.sol\":4687:4694  wheelId */\n      dup2\n        /* \"docs.chain.link/samples/VRF/VRFD20.sol\":4672:4695  InvalidWheelId(wheelId) */\n      mload(0x40)\n      0x8bf5343a00000000000000000000000000000000000000000000000000000000\n      dup2\n      mstore\n      0x04\n      add\n      tag_107\n      swap2\n      swap1\n      tag_31\n      jump\t// in\n    tag_107:\n      mload(0x40)\n      dup1\n      swap2\n      sub\n      swap1\n      revert\n        /* \"docs.chain.link/samples/VRF/VRFD20.sol\":4622:4695  if (wheelId > numOfWheels || wheelId == 0) revert InvalidWheelId(wheelId) */\n    tag_106:\n        /* \"docs.chain.link/samples/VRF/VRFD20.sol\":4788:4799  COORDINATOR */\n      0x00\n      dup1\n      sload\n      swap1\n      0x0100\n      exp\n      swap1\n      div\n      0xffffffffffffffffffffffffffffffffffffffff\n      and\n        /* \"docs.chain.link/samples/VRF/VRFD20.sol\":4788:4818  COORDINATOR.requestRandomWords */\n      0xffffffffffffffffffffffffffffffffffffffff\n      and\n      0x5d3b1d30\n        /* \"docs.chain.link/samples/VRF/VRFD20.sol\":4832:4841  s_keyHash */\n      sload(0x02)\n        /* \"docs.chain.link/samples/VRF/VRFD20.sol\":4855:4871  s_subscriptionId */\n      0x00\n      0x14\n      swap1\n      sload\n      swap1\n      0x0100\n      exp\n      swap1\n      div\n      0xffffffffffffffff\n      and\n        /* \"docs.chain.link/samples/VRF/VRFD20.sol\":4885:4905  requestConfirmations */\n      0x03\n      0x04\n      swap1\n      sload\n      swap1\n      0x0100\n      exp\n      swap1\n      div\n      0xffff\n      and\n        /* \"docs.chain.link/samples/VRF/VRFD20.sol\":4919:4935  callbackGasLimit */\n      0x03\n      0x00\n      swap1\n      sload\n      swap1\n      0x0100\n      exp\n      swap1\n      div\n      0xffffffff\n      and\n        /* \"docs.chain.link/samples/VRF/VRFD20.sol\":4949:4957  numWords */\n      0x03\n      0x06\n      swap1\n      sload\n      swap1\n      0x0100\n      exp\n      swap1\n      div\n      0xffffffff\n      and\n        /* \"docs.chain.link/samples/VRF/VRFD20.sol\":4788:4967  COORDINATOR.requestRandomWords(... */\n      mload(0x40)\n      dup7\n      0xffffffff\n      and\n      0xe0\n      shl\n      dup2\n      mstore\n      0x04\n      add\n      tag_108\n      swap6\n      swap5\n      swap4\n      swap3\n      swap2\n      swap1\n      tag_109\n      jump\t// in\n    tag_108:\n      0x20\n      mload(0x40)\n      dup1\n      dup4\n      sub\n      dup2\n      0x00\n      dup8\n      gas\n      call\n      iszero\n      dup1\n      iszero\n      tag_111\n      jumpi\n      returndatasize\n      0x00\n      dup1\n      returndatacopy\n      revert(0x00, returndatasize)\n    tag_111:\n      pop\n      pop\n      pop\n      pop\n      mload(0x40)\n      returndatasize\n      not(0x1f)\n      0x1f\n      dup3\n      add\n      and\n      dup3\n      add\n      dup1\n      0x40\n      mstore\n      pop\n      dup2\n      add\n      swap1\n      tag_112\n      swap2\n      swap1\n      tag_113\n      jump\t// in\n    tag_112:\n        /* \"docs.chain.link/samples/VRF/VRFD20.sol\":4776:4967  requestId = COORDINATOR.requestRandomWords(... */\n      swap1\n      pop\n        /* \"docs.chain.link/samples/VRF/VRFD20.sol\":5007:5049  Spin(requestId, wheelId, ROLL_IN_PROGRESS) */\n      mload(0x40)\n      dup1\n      0x60\n      add\n      0x40\n      mstore\n      dup1\n        /* \"docs.chain.link/samples/VRF/VRFD20.sol\":5012:5021  requestId */\n      dup3\n        /* \"docs.chain.link/samples/VRF/VRFD20.sol\":5007:5049  Spin(requestId, wheelId, ROLL_IN_PROGRESS) */\n      dup2\n      mstore\n      0x20\n      add\n        /* \"docs.chain.link/samples/VRF/VRFD20.sol\":5023:5030  wheelId */\n      dup4\n        /* \"docs.chain.link/samples/VRF/VRFD20.sol\":5007:5049  Spin(requestId, wheelId, ROLL_IN_PROGRESS) */\n      dup2\n      mstore\n      0x20\n      add\n        /* \"docs.chain.link/samples/VRF/VRFD20.sol\":940:942  42 */\n      0x2a\n        /* \"docs.chain.link/samples/VRF/VRFD20.sol\":5007:5049  Spin(requestId, wheelId, ROLL_IN_PROGRESS) */\n      dup2\n      mstore\n      pop\n        /* \"docs.chain.link/samples/VRF/VRFD20.sol\":4978:4993  requestIdToSpin */\n      0x08\n        /* \"docs.chain.link/samples/VRF/VRFD20.sol\":4978:5004  requestIdToSpin[requestId] */\n      0x00\n        /* \"docs.chain.link/samples/VRF/VRFD20.sol\":4994:5003  requestId */\n      dup4\n        /* \"docs.chain.link/samples/VRF/VRFD20.sol\":4978:5004  requestIdToSpin[requestId] */\n      dup2\n      mstore\n      0x20\n      add\n      swap1\n      dup2\n      mstore\n      0x20\n      add\n      0x00\n      keccak256\n        /* \"docs.chain.link/samples/VRF/VRFD20.sol\":4978:5049  requestIdToSpin[requestId] = Spin(requestId, wheelId, ROLL_IN_PROGRESS) */\n      0x00\n      dup3\n      add\n      mload\n      dup2\n      0x00\n      add\n      sstore\n      0x20\n      dup3\n      add\n      mload\n      dup2\n      0x01\n      add\n      sstore\n      0x40\n      dup3\n      add\n      mload\n      dup2\n      0x02\n      add\n      sstore\n      swap1\n      pop\n      pop\n        /* \"docs.chain.link/samples/VRF/VRFD20.sol\":5059:5075  wheelIdToSpinIds */\n      0x07\n        /* \"docs.chain.link/samples/VRF/VRFD20.sol\":5059:5084  wheelIdToSpinIds[wheelId] */\n      0x00\n        /* \"docs.chain.link/samples/VRF/VRFD20.sol\":5076:5083  wheelId */\n      dup4\n        /* \"docs.chain.link/samples/VRF/VRFD20.sol\":5059:5084  wheelIdToSpinIds[wheelId] */\n      dup2\n      mstore\n      0x20\n      add\n      swap1\n      dup2\n      mstore\n      0x20\n      add\n      0x00\n      keccak256\n        /* \"docs.chain.link/samples/VRF/VRFD20.sol\":5090:5099  requestId */\n      dup2\n        /* \"docs.chain.link/samples/VRF/VRFD20.sol\":5059:5100  wheelIdToSpinIds[wheelId].push(requestId) */\n      swap1\n      dup1\n      0x01\n      dup2\n      sload\n      add\n      dup1\n      dup3\n      sstore\n      dup1\n      swap2\n      pop\n      pop\n      0x01\n      swap1\n      sub\n      swap1\n      0x00\n      mstore\n      keccak256(0x00, 0x20)\n      add\n      0x00\n      swap1\n      swap2\n      swap1\n      swap2\n      swap1\n      swap2\n      pop\n      sstore\n        /* \"docs.chain.link/samples/VRF/VRFD20.sol\":5137:5146  requestId */\n      dup1\n        /* \"docs.chain.link/samples/VRF/VRFD20.sol\":5124:5147  WheelSpinned(requestId) */\n      0xcce1bad18029b5b615b936f3f0275f9adcb92594b2a258d494b0c0b6b98677e5\n      mload(0x40)\n      mload(0x40)\n      dup1\n      swap2\n      sub\n      swap1\n      log2\n        /* \"docs.chain.link/samples/VRF/VRFD20.sol\":4527:5154  function spinWheel(... */\n      swap2\n      swap1\n      pop\n      jump\t// out\n        /* \"docs.chain.link/samples/VRF/VRFD20.sol\":2531:2585  mapping(address => uint256[]) public creatorToWheelIds */\n    tag_62:\n      mstore(0x20, 0x05)\n      dup2\n      0x00\n      mstore\n      keccak256(0x00, 0x40)\n      dup2\n      dup2\n      sload\n      dup2\n      lt\n      tag_115\n      jumpi\n      0x00\n      dup1\n      revert\n    tag_115:\n      swap1\n      0x00\n      mstore\n      keccak256(0x00, 0x20)\n      add\n      0x00\n      swap2\n      pop\n      swap2\n      pop\n      pop\n      sload\n      dup2\n      jump\t// out\n        /* \"docs.chain.link/samples/VRF/VRFD20.sol\":7454:7569  function spinById(uint256 spinId) public view returns (Spin memory) {... */\n    tag_66:\n        /* \"docs.chain.link/samples/VRF/VRFD20.sol\":7509:7520  Spin memory */\n      tag_117\n      tag_118\n      jump\t// in\n    tag_117:\n        /* \"docs.chain.link/samples/VRF/VRFD20.sol\":7539:7554  requestIdToSpin */\n      0x08\n        /* \"docs.chain.link/samples/VRF/VRFD20.sol\":7539:7562  requestIdToSpin[spinId] */\n      0x00\n        /* \"docs.chain.link/samples/VRF/VRFD20.sol\":7555:7561  spinId */\n      dup4\n        /* \"docs.chain.link/samples/VRF/VRFD20.sol\":7539:7562  requestIdToSpin[spinId] */\n      dup2\n      mstore\n      0x20\n      add\n      swap1\n      dup2\n      mstore\n      0x20\n      add\n      0x00\n      keccak256\n        /* \"docs.chain.link/samples/VRF/VRFD20.sol\":7532:7562  return requestIdToSpin[spinId] */\n      mload(0x40)\n      dup1\n      0x60\n      add\n      0x40\n      mstore\n      swap1\n      dup2\n      0x00\n      dup3\n      add\n      sload\n      dup2\n      mstore\n      0x20\n      add\n      0x01\n      dup3\n      add\n      sload\n      dup2\n      mstore\n      0x20\n      add\n      0x02\n      dup3\n      add\n      sload\n      dup2\n      mstore\n      pop\n      pop\n      swap1\n      pop\n        /* \"docs.chain.link/samples/VRF/VRFD20.sol\":7454:7569  function spinById(uint256 spinId) public view returns (Spin memory) {... */\n      swap2\n      swap1\n      pop\n      jump\t// out\n        /* \"docs.chain.link/samples/VRF/VRFD20.sol\":2591:2638  mapping(uint256 => Wheel) public wheelIdToWheel */\n    tag_71:\n      mstore(0x20, 0x06)\n      dup1\n      0x00\n      mstore\n      keccak256(0x00, 0x40)\n      0x00\n      swap2\n      pop\n      swap1\n      pop\n      dup1\n      0x00\n      add\n      sload\n      swap1\n      dup1\n      0x01\n      add\n      sload\n      swap1\n      pop\n      dup3\n      jump\t// out\n        /* \"docs.chain.link/samples/VRF/VRFD20.sol\":3598:4166  function createWheel(... */\n    tag_77:\n        /* \"docs.chain.link/samples/VRF/VRFD20.sol\":3677:3694  uint256 optionLen */\n      0x00\n        /* \"docs.chain.link/samples/VRF/VRFD20.sol\":3697:3704  options */\n      dup3\n      dup3\n        /* \"docs.chain.link/samples/VRF/VRFD20.sol\":3697:3711  options.length */\n      swap1\n      pop\n        /* \"docs.chain.link/samples/VRF/VRFD20.sol\":3677:3711  uint256 optionLen = options.length */\n      swap1\n      pop\n        /* \"docs.chain.link/samples/VRF/VRFD20.sol\":3737:3738  2 */\n      0x02\n        /* \"docs.chain.link/samples/VRF/VRFD20.sol\":3725:3734  optionLen */\n      dup2\n        /* \"docs.chain.link/samples/VRF/VRFD20.sol\":3725:3738  optionLen < 2 */\n      lt\n        /* \"docs.chain.link/samples/VRF/VRFD20.sol\":3722:3817  if(optionLen < 2) {... */\n      iszero\n      tag_121\n      jumpi\n        /* \"docs.chain.link/samples/VRF/VRFD20.sol\":3795:3804  optionLen */\n      dup1\n        /* \"docs.chain.link/samples/VRF/VRFD20.sol\":3761:3806  LessThanTwoOptions({numOfOptions: optionLen}) */\n      mload(0x40)\n      0x8faecbf100000000000000000000000000000000000000000000000000000000\n      dup2\n      mstore\n      0x04\n      add\n      tag_122\n      swap2\n      swap1\n      tag_31\n      jump\t// in\n    tag_122:\n      mload(0x40)\n      dup1\n      swap2\n      sub\n      swap1\n      revert\n        /* \"docs.chain.link/samples/VRF/VRFD20.sol\":3722:3817  if(optionLen < 2) {... */\n    tag_121:\n        /* \"docs.chain.link/samples/VRF/VRFD20.sol\":2279:2281  10 */\n      0x0a\n        /* \"docs.chain.link/samples/VRF/VRFD20.sol\":3829:3838  optionLen */\n      dup2\n        /* \"docs.chain.link/samples/VRF/VRFD20.sol\":3829:3859  optionLen > MAX_NUM_OF_OPTIONS */\n      gt\n        /* \"docs.chain.link/samples/VRF/VRFD20.sol\":3826:3940  if(optionLen > MAX_NUM_OF_OPTIONS) {... */\n      iszero\n      tag_123\n      jumpi\n        /* \"docs.chain.link/samples/VRF/VRFD20.sol\":3918:3927  optionLen */\n      dup1\n        /* \"docs.chain.link/samples/VRF/VRFD20.sol\":3882:3929  ExceedOptionMaxLimit({numOfOptions: optionLen}) */\n      mload(0x40)\n      0xf042a13900000000000000000000000000000000000000000000000000000000\n      dup2\n      mstore\n      0x04\n      add\n      tag_124\n      swap2\n      swap1\n      tag_31\n      jump\t// in\n    tag_124:\n      mload(0x40)\n      dup1\n      swap2\n      sub\n      swap1\n      revert\n        /* \"docs.chain.link/samples/VRF/VRFD20.sol\":3826:3940  if(optionLen > MAX_NUM_OF_OPTIONS) {... */\n    tag_123:\n        /* \"docs.chain.link/samples/VRF/VRFD20.sol\":3950:3961  numOfWheels */\n      0x04\n      0x00\n        /* \"docs.chain.link/samples/VRF/VRFD20.sol\":3950:3963  numOfWheels++ */\n      dup2\n      sload\n      dup1\n      swap3\n      swap2\n      swap1\n      tag_125\n      swap1\n      tag_126\n      jump\t// in\n    tag_125:\n      swap2\n      swap1\n      pop\n      sstore\n      pop\n        /* \"docs.chain.link/samples/VRF/VRFD20.sol\":3973:3990  creatorToWheelIds */\n      0x05\n        /* \"docs.chain.link/samples/VRF/VRFD20.sol\":3973:4002  creatorToWheelIds[msg.sender] */\n      0x00\n        /* \"docs.chain.link/samples/VRF/VRFD20.sol\":3991:4001  msg.sender */\n      caller\n        /* \"docs.chain.link/samples/VRF/VRFD20.sol\":3973:4002  creatorToWheelIds[msg.sender] */\n      0xffffffffffffffffffffffffffffffffffffffff\n      and\n      0xffffffffffffffffffffffffffffffffffffffff\n      and\n      dup2\n      mstore\n      0x20\n      add\n      swap1\n      dup2\n      mstore\n      0x20\n      add\n      0x00\n      keccak256\n        /* \"docs.chain.link/samples/VRF/VRFD20.sol\":4008:4019  numOfWheels */\n      sload(0x04)\n        /* \"docs.chain.link/samples/VRF/VRFD20.sol\":3973:4020  creatorToWheelIds[msg.sender].push(numOfWheels) */\n      swap1\n      dup1\n      0x01\n      dup2\n      sload\n      add\n      dup1\n      dup3\n      sstore\n      dup1\n      swap2\n      pop\n      pop\n      0x01\n      swap1\n      sub\n      swap1\n      0x00\n      mstore\n      keccak256(0x00, 0x20)\n      add\n      0x00\n      swap1\n      swap2\n      swap1\n      swap2\n      swap1\n      swap2\n      pop\n      sstore\n        /* \"docs.chain.link/samples/VRF/VRFD20.sol\":4060:4098  Wheel(numOfWheels, optionLen, options) */\n      mload(0x40)\n      dup1\n      0x60\n      add\n      0x40\n      mstore\n      dup1\n        /* \"docs.chain.link/samples/VRF/VRFD20.sol\":4066:4077  numOfWheels */\n      sload(0x04)\n        /* \"docs.chain.link/samples/VRF/VRFD20.sol\":4060:4098  Wheel(numOfWheels, optionLen, options) */\n      dup2\n      mstore\n      0x20\n      add\n        /* \"docs.chain.link/samples/VRF/VRFD20.sol\":4079:4088  optionLen */\n      dup3\n        /* \"docs.chain.link/samples/VRF/VRFD20.sol\":4060:4098  Wheel(numOfWheels, optionLen, options) */\n      dup2\n      mstore\n      0x20\n      add\n        /* \"docs.chain.link/samples/VRF/VRFD20.sol\":4090:4097  options */\n      dup5\n      dup5\n        /* \"docs.chain.link/samples/VRF/VRFD20.sol\":4060:4098  Wheel(numOfWheels, optionLen, options) */\n      swap1\n      tag_128\n      swap2\n      swap1\n      tag_129\n      jump\t// in\n    tag_128:\n      dup2\n      mstore\n      pop\n        /* \"docs.chain.link/samples/VRF/VRFD20.sol\":4030:4044  wheelIdToWheel */\n      0x06\n        /* \"docs.chain.link/samples/VRF/VRFD20.sol\":4030:4057  wheelIdToWheel[numOfWheels] */\n      0x00\n        /* \"docs.chain.link/samples/VRF/VRFD20.sol\":4045:4056  numOfWheels */\n      sload(0x04)\n        /* \"docs.chain.link/samples/VRF/VRFD20.sol\":4030:4057  wheelIdToWheel[numOfWheels] */\n      dup2\n      mstore\n      0x20\n      add\n      swap1\n      dup2\n      mstore\n      0x20\n      add\n      0x00\n      keccak256\n        /* \"docs.chain.link/samples/VRF/VRFD20.sol\":4030:4098  wheelIdToWheel[numOfWheels] = Wheel(numOfWheels, optionLen, options) */\n      0x00\n      dup3\n      add\n      mload\n      dup2\n      0x00\n      add\n      sstore\n      0x20\n      dup3\n      add\n      mload\n      dup2\n      0x01\n      add\n      sstore\n      0x40\n      dup3\n      add\n      mload\n      dup2\n      0x02\n      add\n      swap1\n      dup1\n      mload\n      swap1\n      0x20\n      add\n      swap1\n      tag_130\n      swap3\n      swap2\n      swap1\n      tag_131\n      jump\t// in\n    tag_130:\n      pop\n      swap1\n      pop\n      pop\n        /* \"docs.chain.link/samples/VRF/VRFD20.sol\":4148:4158  msg.sender */\n      caller\n        /* \"docs.chain.link/samples/VRF/VRFD20.sol\":4122:4159  WheelCreated(numOfWheels, msg.sender) */\n      0xffffffffffffffffffffffffffffffffffffffff\n      and\n        /* \"docs.chain.link/samples/VRF/VRFD20.sol\":4135:4146  numOfWheels */\n      sload(0x04)\n        /* \"docs.chain.link/samples/VRF/VRFD20.sol\":4122:4159  WheelCreated(numOfWheels, msg.sender) */\n      0x86d26c194d8c757e91f000baaa05e15cd68dc60e2a49cb82cb25099aa54d5009\n      mload(0x40)\n      mload(0x40)\n      dup1\n      swap2\n      sub\n      swap1\n      log3\n        /* \"docs.chain.link/samples/VRF/VRFD20.sol\":3667:4166  {... */\n      pop\n        /* \"docs.chain.link/samples/VRF/VRFD20.sol\":3598:4166  function createWheel(... */\n      pop\n      pop\n      jump\t// out\n        /* \"docs.chain.link/samples/VRF/VRFD20.sol\":5994:6574  function fulfillRandomWords(... */\n    tag_83:\n        /* \"docs.chain.link/samples/VRF/VRFD20.sol\":6121:6137  Spin memory spin */\n      0x00\n        /* \"docs.chain.link/samples/VRF/VRFD20.sol\":6140:6155  requestIdToSpin */\n      0x08\n        /* \"docs.chain.link/samples/VRF/VRFD20.sol\":6140:6166  requestIdToSpin[requestId] */\n      0x00\n        /* \"docs.chain.link/samples/VRF/VRFD20.sol\":6156:6165  requestId */\n      dup5\n        /* \"docs.chain.link/samples/VRF/VRFD20.sol\":6140:6166  requestIdToSpin[requestId] */\n      dup2\n      mstore\n      0x20\n      add\n      swap1\n      dup2\n      mstore\n      0x20\n      add\n      0x00\n      keccak256\n        /* \"docs.chain.link/samples/VRF/VRFD20.sol\":6121:6166  Spin memory spin = requestIdToSpin[requestId] */\n      mload(0x40)\n      dup1\n      0x60\n      add\n      0x40\n      mstore\n      swap1\n      dup2\n      0x00\n      dup3\n      add\n      sload\n      dup2\n      mstore\n      0x20\n      add\n      0x01\n      dup3\n      add\n      sload\n      dup2\n      mstore\n      0x20\n      add\n      0x02\n      dup3\n      add\n      sload\n      dup2\n      mstore\n      pop\n      pop\n      swap1\n      pop\n        /* \"docs.chain.link/samples/VRF/VRFD20.sol\":6197:6198  0 */\n      0x00\n        /* \"docs.chain.link/samples/VRF/VRFD20.sol\":6181:6185  spin */\n      dup2\n        /* \"docs.chain.link/samples/VRF/VRFD20.sol\":6181:6193  spin.wheelId */\n      0x20\n      add\n      mload\n        /* \"docs.chain.link/samples/VRF/VRFD20.sol\":6181:6198  spin.wheelId == 0 */\n      sub\n        /* \"docs.chain.link/samples/VRF/VRFD20.sol\":6177:6260  if (spin.wheelId == 0) {... */\n      tag_133\n      jumpi\n        /* \"docs.chain.link/samples/VRF/VRFD20.sol\":6236:6240  spin */\n      dup1\n        /* \"docs.chain.link/samples/VRF/VRFD20.sol\":6236:6248  spin.wheelId */\n      0x20\n      add\n      mload\n        /* \"docs.chain.link/samples/VRF/VRFD20.sol\":6221:6249  InvalidWheelId(spin.wheelId) */\n      mload(0x40)\n      0x8bf5343a00000000000000000000000000000000000000000000000000000000\n      dup2\n      mstore\n      0x04\n      add\n      tag_134\n      swap2\n      swap1\n      tag_31\n      jump\t// in\n    tag_134:\n      mload(0x40)\n      dup1\n      swap2\n      sub\n      swap1\n      revert\n        /* \"docs.chain.link/samples/VRF/VRFD20.sol\":6177:6260  if (spin.wheelId == 0) {... */\n    tag_133:\n        /* \"docs.chain.link/samples/VRF/VRFD20.sol\":6270:6288  Wheel memory wheel */\n      0x00\n        /* \"docs.chain.link/samples/VRF/VRFD20.sol\":6291:6305  wheelIdToWheel */\n      0x06\n        /* \"docs.chain.link/samples/VRF/VRFD20.sol\":6291:6319  wheelIdToWheel[spin.wheelId] */\n      0x00\n        /* \"docs.chain.link/samples/VRF/VRFD20.sol\":6306:6310  spin */\n      dup4\n        /* \"docs.chain.link/samples/VRF/VRFD20.sol\":6306:6318  spin.wheelId */\n      0x20\n      add\n      mload\n        /* \"docs.chain.link/samples/VRF/VRFD20.sol\":6291:6319  wheelIdToWheel[spin.wheelId] */\n      dup2\n      mstore\n      0x20\n      add\n      swap1\n      dup2\n      mstore\n      0x20\n      add\n      0x00\n      keccak256\n        /* \"docs.chain.link/samples/VRF/VRFD20.sol\":6270:6319  Wheel memory wheel = wheelIdToWheel[spin.wheelId] */\n      mload(0x40)\n      dup1\n      0x60\n      add\n      0x40\n      mstore\n      swap1\n      dup2\n      0x00\n      dup3\n      add\n      sload\n      dup2\n      mstore\n      0x20\n      add\n      0x01\n      dup3\n      add\n      sload\n      dup2\n      mstore\n      0x20\n      add\n      0x02\n      dup3\n      add\n      dup1\n      sload\n      dup1\n      0x20\n      mul\n      0x20\n      add\n      mload(0x40)\n      swap1\n      dup2\n      add\n      0x40\n      mstore\n      dup1\n      swap3\n      swap2\n      swap1\n      dup2\n      dup2\n      mstore\n      0x20\n      add\n      0x00\n      swap1\n    tag_135:\n      dup3\n      dup3\n      lt\n      iszero\n      tag_136\n      jumpi\n      dup4\n      dup3\n      swap1\n      0x00\n      mstore\n      keccak256(0x00, 0x20)\n      add\n      dup1\n      sload\n      tag_138\n      swap1\n      tag_94\n      jump\t// in\n    tag_138:\n      dup1\n      0x1f\n      add\n      0x20\n      dup1\n      swap2\n      div\n      mul\n      0x20\n      add\n      mload(0x40)\n      swap1\n      dup2\n      add\n      0x40\n      mstore\n      dup1\n      swap3\n      swap2\n      swap1\n      dup2\n      dup2\n      mstore\n      0x20\n      add\n      dup3\n      dup1\n      sload\n      tag_139\n      swap1\n      tag_94\n      jump\t// in\n    tag_139:\n      dup1\n      iszero\n      tag_140\n      jumpi\n      dup1\n      0x1f\n      lt\n      tag_141\n      jumpi\n      0x0100\n      dup1\n      dup4\n      sload\n      div\n      mul\n      dup4\n      mstore\n      swap2\n      0x20\n      add\n      swap2\n      jump(tag_140)\n    tag_141:\n      dup3\n      add\n      swap2\n      swap1\n      0x00\n      mstore\n      keccak256(0x00, 0x20)\n      swap1\n    tag_142:\n      dup2\n      sload\n      dup2\n      mstore\n      swap1\n      0x01\n      add\n      swap1\n      0x20\n      add\n      dup1\n      dup4\n      gt\n      tag_142\n      jumpi\n      dup3\n      swap1\n      sub\n      0x1f\n      and\n      dup3\n      add\n      swap2\n    tag_140:\n      pop\n      pop\n      pop\n      pop\n      pop\n      dup2\n      mstore\n      0x20\n      add\n      swap1\n      0x01\n      add\n      swap1\n      jump(tag_135)\n    tag_136:\n      pop\n      pop\n      pop\n      pop\n      dup2\n      mstore\n      pop\n      pop\n      swap1\n      pop\n        /* \"docs.chain.link/samples/VRF/VRFD20.sol\":6345:6346  0 */\n      0x00\n        /* \"docs.chain.link/samples/VRF/VRFD20.sol\":6333:6338  wheel */\n      dup2\n        /* \"docs.chain.link/samples/VRF/VRFD20.sol\":6333:6341  wheel.id */\n      0x00\n      add\n      mload\n        /* \"docs.chain.link/samples/VRF/VRFD20.sol\":6333:6346  wheel.id == 0 */\n      sub\n        /* \"docs.chain.link/samples/VRF/VRFD20.sol\":6329:6404  if (wheel.id == 0) {... */\n      tag_143\n      jumpi\n        /* \"docs.chain.link/samples/VRF/VRFD20.sol\":6384:6389  wheel */\n      dup1\n        /* \"docs.chain.link/samples/VRF/VRFD20.sol\":6384:6392  wheel.id */\n      0x00\n      add\n      mload\n        /* \"docs.chain.link/samples/VRF/VRFD20.sol\":6369:6393  InvalidWheelId(wheel.id) */\n      mload(0x40)\n      0x8bf5343a00000000000000000000000000000000000000000000000000000000\n      dup2\n      mstore\n      0x04\n      add\n      tag_144\n      swap2\n      swap1\n      tag_31\n      jump\t// in\n    tag_144:\n      mload(0x40)\n      dup1\n      swap2\n      sub\n      swap1\n      revert\n        /* \"docs.chain.link/samples/VRF/VRFD20.sol\":6329:6404  if (wheel.id == 0) {... */\n    tag_143:\n        /* \"docs.chain.link/samples/VRF/VRFD20.sol\":6414:6427  uint256 value */\n      0x00\n        /* \"docs.chain.link/samples/VRF/VRFD20.sol\":6470:6471  1 */\n      0x01\n        /* \"docs.chain.link/samples/VRF/VRFD20.sol\":6448:6453  wheel */\n      dup3\n        /* \"docs.chain.link/samples/VRF/VRFD20.sol\":6448:6466  wheel.numOfOptions */\n      0x20\n      add\n      mload\n        /* \"docs.chain.link/samples/VRF/VRFD20.sol\":6431:6442  randomWords */\n      dup6\n        /* \"docs.chain.link/samples/VRF/VRFD20.sol\":6443:6444  0 */\n      0x00\n        /* \"docs.chain.link/samples/VRF/VRFD20.sol\":6431:6445  randomWords[0] */\n      dup2\n      mload\n      dup2\n      lt\n      tag_145\n      jumpi\n      tag_146\n      tag_147\n      jump\t// in\n    tag_146:\n    tag_145:\n      0x20\n      mul\n      0x20\n      add\n      add\n      mload\n        /* \"docs.chain.link/samples/VRF/VRFD20.sol\":6431:6466  randomWords[0] % wheel.numOfOptions */\n      tag_148\n      swap2\n      swap1\n      tag_149\n      jump\t// in\n    tag_148:\n        /* \"docs.chain.link/samples/VRF/VRFD20.sol\":6430:6471  (randomWords[0] % wheel.numOfOptions) + 1 */\n      tag_150\n      swap2\n      swap1\n      tag_151\n      jump\t// in\n    tag_150:\n        /* \"docs.chain.link/samples/VRF/VRFD20.sol\":6414:6471  uint256 value = (randomWords[0] % wheel.numOfOptions) + 1 */\n      swap1\n      pop\n        /* \"docs.chain.link/samples/VRF/VRFD20.sol\":6517:6522  value */\n      dup1\n        /* \"docs.chain.link/samples/VRF/VRFD20.sol\":6481:6496  requestIdToSpin */\n      0x08\n        /* \"docs.chain.link/samples/VRF/VRFD20.sol\":6481:6507  requestIdToSpin[requestId] */\n      0x00\n        /* \"docs.chain.link/samples/VRF/VRFD20.sol\":6497:6506  requestId */\n      dup8\n        /* \"docs.chain.link/samples/VRF/VRFD20.sol\":6481:6507  requestIdToSpin[requestId] */\n      dup2\n      mstore\n      0x20\n      add\n      swap1\n      dup2\n      mstore\n      0x20\n      add\n      0x00\n      keccak256\n        /* \"docs.chain.link/samples/VRF/VRFD20.sol\":6481:6514  requestIdToSpin[requestId].result */\n      0x02\n      add\n        /* \"docs.chain.link/samples/VRF/VRFD20.sol\":6481:6522  requestIdToSpin[requestId].result = value */\n      dup2\n      swap1\n      sstore\n      pop\n        /* \"docs.chain.link/samples/VRF/VRFD20.sol\":6550:6559  requestId */\n      dup5\n        /* \"docs.chain.link/samples/VRF/VRFD20.sol\":6537:6567  WheelStopped(requestId, value) */\n      0x9dd757ad53679bd882232d07d50736dcbcc6ae740872ecc23b2849af954abdaf\n        /* \"docs.chain.link/samples/VRF/VRFD20.sol\":6561:6566  value */\n      dup3\n        /* \"docs.chain.link/samples/VRF/VRFD20.sol\":6537:6567  WheelStopped(requestId, value) */\n      mload(0x40)\n      tag_152\n      swap2\n      swap1\n      tag_31\n      jump\t// in\n    tag_152:\n      mload(0x40)\n      dup1\n      swap2\n      sub\n      swap1\n      log2\n        /* \"docs.chain.link/samples/VRF/VRFD20.sol\":6111:6574  {... */\n      pop\n      pop\n      pop\n        /* \"docs.chain.link/samples/VRF/VRFD20.sol\":5994:6574  function fulfillRandomWords(... */\n      pop\n      pop\n      jump\t// out\n    tag_88:\n      mload(0x40)\n      dup1\n      0x60\n      add\n      0x40\n      mstore\n      dup1\n      0x00\n      dup2\n      mstore\n      0x20\n      add\n      0x00\n      dup2\n      mstore\n      0x20\n      add\n      0x60\n      dup2\n      mstore\n      pop\n      swap1\n      jump\t// out\n    tag_118:\n      mload(0x40)\n      dup1\n      0x60\n      add\n      0x40\n      mstore\n      dup1\n      0x00\n      dup2\n      mstore\n      0x20\n      add\n      0x00\n      dup2\n      mstore\n      0x20\n      add\n      0x00\n      dup2\n      mstore\n      pop\n      swap1\n      jump\t// out\n    tag_131:\n      dup3\n      dup1\n      sload\n      dup3\n      dup3\n      sstore\n      swap1\n      0x00\n      mstore\n      keccak256(0x00, 0x20)\n      swap1\n      dup2\n      add\n      swap3\n      dup3\n      iszero\n      tag_153\n      jumpi\n      swap2\n      0x20\n      mul\n      dup3\n      add\n    tag_154:\n      dup3\n      dup2\n      gt\n      iszero\n      tag_155\n      jumpi\n      dup3\n      mload\n      dup3\n      swap1\n      dup2\n      tag_156\n      swap2\n      swap1\n      tag_157\n      jump\t// in\n    tag_156:\n      pop\n      swap2\n      0x20\n      add\n      swap2\n      swap1\n      0x01\n      add\n      swap1\n      jump(tag_154)\n    tag_155:\n    tag_153:\n      pop\n      swap1\n      pop\n      tag_158\n      swap2\n      swap1\n      tag_159\n      jump\t// in\n    tag_158:\n      pop\n      swap1\n      jump\t// out\n    tag_159:\n    tag_160:\n      dup1\n      dup3\n      gt\n      iszero\n      tag_161\n      jumpi\n      0x00\n      dup2\n      dup2\n      tag_162\n      swap2\n      swap1\n      tag_163\n      jump\t// in\n    tag_162:\n      pop\n      0x01\n      add\n      jump(tag_160)\n    tag_161:\n      pop\n      swap1\n      jump\t// out\n    tag_163:\n      pop\n      dup1\n      sload\n      tag_164\n      swap1\n      tag_94\n      jump\t// in\n    tag_164:\n      0x00\n      dup3\n      sstore\n      dup1\n      0x1f\n      lt\n      tag_166\n      jumpi\n      pop\n      jump(tag_165)\n    tag_166:\n      0x1f\n      add\n      0x20\n      swap1\n      div\n      swap1\n      0x00\n      mstore\n      keccak256(0x00, 0x20)\n      swap1\n      dup2\n      add\n      swap1\n      tag_167\n      swap2\n      swap1\n      tag_168\n      jump\t// in\n    tag_167:\n    tag_165:\n      pop\n      jump\t// out\n    tag_168:\n    tag_169:\n      dup1\n      dup3\n      gt\n      iszero\n      tag_170\n      jumpi\n      0x00\n      dup2\n      0x00\n      swap1\n      sstore\n      pop\n      0x01\n      add\n      jump(tag_169)\n    tag_170:\n      pop\n      swap1\n      jump\t// out\n        /* \"#utility.yul\":7:82   */\n    tag_171:\n        /* \"#utility.yul\":40:46   */\n      0x00\n        /* \"#utility.yul\":73:75   */\n      0x40\n        /* \"#utility.yul\":67:76   */\n      mload\n        /* \"#utility.yul\":57:76   */\n      swap1\n      pop\n        /* \"#utility.yul\":7:82   */\n      swap1\n      jump\t// out\n        /* \"#utility.yul\":88:205   */\n    tag_172:\n        /* \"#utility.yul\":197:198   */\n      0x00\n        /* \"#utility.yul\":194:195   */\n      dup1\n        /* \"#utility.yul\":187:199   */\n      revert\n        /* \"#utility.yul\":211:328   */\n    tag_173:\n        /* \"#utility.yul\":320:321   */\n      0x00\n        /* \"#utility.yul\":317:318   */\n      dup1\n        /* \"#utility.yul\":310:322   */\n      revert\n        /* \"#utility.yul\":334:411   */\n    tag_174:\n        /* \"#utility.yul\":371:378   */\n      0x00\n        /* \"#utility.yul\":400:405   */\n      dup2\n        /* \"#utility.yul\":389:405   */\n      swap1\n      pop\n        /* \"#utility.yul\":334:411   */\n      swap2\n      swap1\n      pop\n      jump\t// out\n        /* \"#utility.yul\":417:539   */\n    tag_175:\n        /* \"#utility.yul\":490:514   */\n      tag_253\n        /* \"#utility.yul\":508:513   */\n      dup2\n        /* \"#utility.yul\":490:514   */\n      tag_174\n      jump\t// in\n    tag_253:\n        /* \"#utility.yul\":483:488   */\n      dup2\n        /* \"#utility.yul\":480:515   */\n      eq\n        /* \"#utility.yul\":470:533   */\n      tag_254\n      jumpi\n        /* \"#utility.yul\":529:530   */\n      0x00\n        /* \"#utility.yul\":526:527   */\n      dup1\n        /* \"#utility.yul\":519:531   */\n      revert\n        /* \"#utility.yul\":470:533   */\n    tag_254:\n        /* \"#utility.yul\":417:539   */\n      pop\n      jump\t// out\n        /* \"#utility.yul\":545:684   */\n    tag_176:\n        /* \"#utility.yul\":591:596   */\n      0x00\n        /* \"#utility.yul\":629:635   */\n      dup2\n        /* \"#utility.yul\":616:636   */\n      calldataload\n        /* \"#utility.yul\":607:636   */\n      swap1\n      pop\n        /* \"#utility.yul\":645:678   */\n      tag_256\n        /* \"#utility.yul\":672:677   */\n      dup2\n        /* \"#utility.yul\":645:678   */\n      tag_175\n      jump\t// in\n    tag_256:\n        /* \"#utility.yul\":545:684   */\n      swap3\n      swap2\n      pop\n      pop\n      jump\t// out\n        /* \"#utility.yul\":690:807   */\n    tag_177:\n        /* \"#utility.yul\":799:800   */\n      0x00\n        /* \"#utility.yul\":796:797   */\n      dup1\n        /* \"#utility.yul\":789:801   */\n      revert\n        /* \"#utility.yul\":813:915   */\n    tag_178:\n        /* \"#utility.yul\":854:860   */\n      0x00\n        /* \"#utility.yul\":905:907   */\n      0x1f\n        /* \"#utility.yul\":901:908   */\n      not\n        /* \"#utility.yul\":896:898   */\n      0x1f\n        /* \"#utility.yul\":889:894   */\n      dup4\n        /* \"#utility.yul\":885:899   */\n      add\n        /* \"#utility.yul\":881:909   */\n      and\n        /* \"#utility.yul\":871:909   */\n      swap1\n      pop\n        /* \"#utility.yul\":813:915   */\n      swap2\n      swap1\n      pop\n      jump\t// out\n        /* \"#utility.yul\":921:1101   */\n    tag_179:\n        /* \"#utility.yul\":969:1046   */\n      0x4e487b7100000000000000000000000000000000000000000000000000000000\n        /* \"#utility.yul\":966:967   */\n      0x00\n        /* \"#utility.yul\":959:1047   */\n      mstore\n        /* \"#utility.yul\":1066:1070   */\n      0x41\n        /* \"#utility.yul\":1063:1064   */\n      0x04\n        /* \"#utility.yul\":1056:1071   */\n      mstore\n        /* \"#utility.yul\":1090:1094   */\n      0x24\n        /* \"#utility.yul\":1087:1088   */\n      0x00\n        /* \"#utility.yul\":1080:1095   */\n      revert\n        /* \"#utility.yul\":1107:1388   */\n    tag_180:\n        /* \"#utility.yul\":1190:1217   */\n      tag_261\n        /* \"#utility.yul\":1212:1216   */\n      dup3\n        /* \"#utility.yul\":1190:1217   */\n      tag_178\n      jump\t// in\n    tag_261:\n        /* \"#utility.yul\":1182:1188   */\n      dup2\n        /* \"#utility.yul\":1178:1218   */\n      add\n        /* \"#utility.yul\":1320:1326   */\n      dup2\n        /* \"#utility.yul\":1308:1318   */\n      dup2\n        /* \"#utility.yul\":1305:1327   */\n      lt\n        /* \"#utility.yul\":1284:1302   */\n      0xffffffffffffffff\n        /* \"#utility.yul\":1272:1282   */\n      dup3\n        /* \"#utility.yul\":1269:1303   */\n      gt\n        /* \"#utility.yul\":1266:1328   */\n      or\n        /* \"#utility.yul\":1263:1351   */\n      iszero\n      tag_262\n      jumpi\n        /* \"#utility.yul\":1331:1349   */\n      tag_263\n      tag_179\n      jump\t// in\n    tag_263:\n        /* \"#utility.yul\":1263:1351   */\n    tag_262:\n        /* \"#utility.yul\":1371:1381   */\n      dup1\n        /* \"#utility.yul\":1367:1369   */\n      0x40\n        /* \"#utility.yul\":1360:1382   */\n      mstore\n        /* \"#utility.yul\":1150:1388   */\n      pop\n        /* \"#utility.yul\":1107:1388   */\n      pop\n      pop\n      jump\t// out\n        /* \"#utility.yul\":1394:1523   */\n    tag_181:\n        /* \"#utility.yul\":1428:1434   */\n      0x00\n        /* \"#utility.yul\":1455:1475   */\n      tag_265\n      tag_171\n      jump\t// in\n    tag_265:\n        /* \"#utility.yul\":1445:1475   */\n      swap1\n      pop\n        /* \"#utility.yul\":1484:1517   */\n      tag_266\n        /* \"#utility.yul\":1512:1516   */\n      dup3\n        /* \"#utility.yul\":1504:1510   */\n      dup3\n        /* \"#utility.yul\":1484:1517   */\n      tag_180\n      jump\t// in\n    tag_266:\n        /* \"#utility.yul\":1394:1523   */\n      swap2\n      swap1\n      pop\n      jump\t// out\n        /* \"#utility.yul\":1529:1840   */\n    tag_182:\n        /* \"#utility.yul\":1606:1610   */\n      0x00\n        /* \"#utility.yul\":1696:1714   */\n      0xffffffffffffffff\n        /* \"#utility.yul\":1688:1694   */\n      dup3\n        /* \"#utility.yul\":1685:1715   */\n      gt\n        /* \"#utility.yul\":1682:1738   */\n      iszero\n      tag_268\n      jumpi\n        /* \"#utility.yul\":1718:1736   */\n      tag_269\n      tag_179\n      jump\t// in\n    tag_269:\n        /* \"#utility.yul\":1682:1738   */\n    tag_268:\n        /* \"#utility.yul\":1768:1772   */\n      0x20\n        /* \"#utility.yul\":1760:1766   */\n      dup3\n        /* \"#utility.yul\":1756:1773   */\n      mul\n        /* \"#utility.yul\":1748:1773   */\n      swap1\n      pop\n        /* \"#utility.yul\":1828:1832   */\n      0x20\n        /* \"#utility.yul\":1822:1826   */\n      dup2\n        /* \"#utility.yul\":1818:1833   */\n      add\n        /* \"#utility.yul\":1810:1833   */\n      swap1\n      pop\n        /* \"#utility.yul\":1529:1840   */\n      swap2\n      swap1\n      pop\n      jump\t// out\n        /* \"#utility.yul\":1846:1963   */\n    tag_183:\n        /* \"#utility.yul\":1955:1956   */\n      0x00\n        /* \"#utility.yul\":1952:1953   */\n      dup1\n        /* \"#utility.yul\":1945:1957   */\n      revert\n        /* \"#utility.yul\":1986:2696   */\n    tag_184:\n        /* \"#utility.yul\":2082:2087   */\n      0x00\n        /* \"#utility.yul\":2107:2188   */\n      tag_272\n        /* \"#utility.yul\":2123:2187   */\n      tag_273\n        /* \"#utility.yul\":2180:2186   */\n      dup5\n        /* \"#utility.yul\":2123:2187   */\n      tag_182\n      jump\t// in\n    tag_273:\n        /* \"#utility.yul\":2107:2188   */\n      tag_181\n      jump\t// in\n    tag_272:\n        /* \"#utility.yul\":2098:2188   */\n      swap1\n      pop\n        /* \"#utility.yul\":2208:2213   */\n      dup1\n        /* \"#utility.yul\":2237:2243   */\n      dup4\n        /* \"#utility.yul\":2230:2235   */\n      dup3\n        /* \"#utility.yul\":2223:2244   */\n      mstore\n        /* \"#utility.yul\":2271:2275   */\n      0x20\n        /* \"#utility.yul\":2264:2269   */\n      dup3\n        /* \"#utility.yul\":2260:2276   */\n      add\n        /* \"#utility.yul\":2253:2276   */\n      swap1\n      pop\n        /* \"#utility.yul\":2324:2328   */\n      0x20\n        /* \"#utility.yul\":2316:2322   */\n      dup5\n        /* \"#utility.yul\":2312:2329   */\n      mul\n        /* \"#utility.yul\":2304:2310   */\n      dup4\n        /* \"#utility.yul\":2300:2330   */\n      add\n        /* \"#utility.yul\":2353:2356   */\n      dup6\n        /* \"#utility.yul\":2345:2351   */\n      dup2\n        /* \"#utility.yul\":2342:2357   */\n      gt\n        /* \"#utility.yul\":2339:2461   */\n      iszero\n      tag_274\n      jumpi\n        /* \"#utility.yul\":2372:2451   */\n      tag_275\n      tag_183\n      jump\t// in\n    tag_275:\n        /* \"#utility.yul\":2339:2461   */\n    tag_274:\n        /* \"#utility.yul\":2487:2493   */\n      dup4\n        /* \"#utility.yul\":2470:2690   */\n    tag_276:\n        /* \"#utility.yul\":2504:2510   */\n      dup2\n        /* \"#utility.yul\":2499:2502   */\n      dup2\n        /* \"#utility.yul\":2496:2511   */\n      lt\n        /* \"#utility.yul\":2470:2690   */\n      iszero\n      tag_278\n      jumpi\n        /* \"#utility.yul\":2579:2582   */\n      dup1\n        /* \"#utility.yul\":2608:2645   */\n      tag_279\n        /* \"#utility.yul\":2641:2644   */\n      dup9\n        /* \"#utility.yul\":2629:2639   */\n      dup3\n        /* \"#utility.yul\":2608:2645   */\n      tag_176\n      jump\t// in\n    tag_279:\n        /* \"#utility.yul\":2603:2606   */\n      dup5\n        /* \"#utility.yul\":2596:2646   */\n      mstore\n        /* \"#utility.yul\":2675:2679   */\n      0x20\n        /* \"#utility.yul\":2670:2673   */\n      dup5\n        /* \"#utility.yul\":2666:2680   */\n      add\n        /* \"#utility.yul\":2659:2680   */\n      swap4\n      pop\n        /* \"#utility.yul\":2546:2690   */\n      pop\n        /* \"#utility.yul\":2530:2534   */\n      0x20\n        /* \"#utility.yul\":2525:2528   */\n      dup2\n        /* \"#utility.yul\":2521:2535   */\n      add\n        /* \"#utility.yul\":2514:2535   */\n      swap1\n      pop\n        /* \"#utility.yul\":2470:2690   */\n      jump(tag_276)\n    tag_278:\n        /* \"#utility.yul\":2474:2495   */\n      pop\n        /* \"#utility.yul\":2088:2696   */\n      pop\n      pop\n        /* \"#utility.yul\":1986:2696   */\n      swap4\n      swap3\n      pop\n      pop\n      pop\n      jump\t// out\n        /* \"#utility.yul\":2719:3089   */\n    tag_185:\n        /* \"#utility.yul\":2790:2795   */\n      0x00\n        /* \"#utility.yul\":2839:2842   */\n      dup3\n        /* \"#utility.yul\":2832:2836   */\n      0x1f\n        /* \"#utility.yul\":2824:2830   */\n      dup4\n        /* \"#utility.yul\":2820:2837   */\n      add\n        /* \"#utility.yul\":2816:2843   */\n      slt\n        /* \"#utility.yul\":2806:2928   */\n      tag_281\n      jumpi\n        /* \"#utility.yul\":2847:2926   */\n      tag_282\n      tag_177\n      jump\t// in\n    tag_282:\n        /* \"#utility.yul\":2806:2928   */\n    tag_281:\n        /* \"#utility.yul\":2964:2970   */\n      dup2\n        /* \"#utility.yul\":2951:2971   */\n      calldataload\n        /* \"#utility.yul\":2989:3083   */\n      tag_283\n        /* \"#utility.yul\":3079:3082   */\n      dup5\n        /* \"#utility.yul\":3071:3077   */\n      dup3\n        /* \"#utility.yul\":3064:3068   */\n      0x20\n        /* \"#utility.yul\":3056:3062   */\n      dup7\n        /* \"#utility.yul\":3052:3069   */\n      add\n        /* \"#utility.yul\":2989:3083   */\n      tag_184\n      jump\t// in\n    tag_283:\n        /* \"#utility.yul\":2980:3083   */\n      swap2\n      pop\n        /* \"#utility.yul\":2796:3089   */\n      pop\n        /* \"#utility.yul\":2719:3089   */\n      swap3\n      swap2\n      pop\n      pop\n      jump\t// out\n        /* \"#utility.yul\":3095:3779   */\n    tag_20:\n        /* \"#utility.yul\":3188:3194   */\n      0x00\n        /* \"#utility.yul\":3196:3202   */\n      dup1\n        /* \"#utility.yul\":3245:3247   */\n      0x40\n        /* \"#utility.yul\":3233:3242   */\n      dup4\n        /* \"#utility.yul\":3224:3231   */\n      dup6\n        /* \"#utility.yul\":3220:3243   */\n      sub\n        /* \"#utility.yul\":3216:3248   */\n      slt\n        /* \"#utility.yul\":3213:3332   */\n      iszero\n      tag_285\n      jumpi\n        /* \"#utility.yul\":3251:3330   */\n      tag_286\n      tag_172\n      jump\t// in\n    tag_286:\n        /* \"#utility.yul\":3213:3332   */\n    tag_285:\n        /* \"#utility.yul\":3371:3372   */\n      0x00\n        /* \"#utility.yul\":3396:3449   */\n      tag_287\n        /* \"#utility.yul\":3441:3448   */\n      dup6\n        /* \"#utility.yul\":3432:3438   */\n      dup3\n        /* \"#utility.yul\":3421:3430   */\n      dup7\n        /* \"#utility.yul\":3417:3439   */\n      add\n        /* \"#utility.yul\":3396:3449   */\n      tag_176\n      jump\t// in\n    tag_287:\n        /* \"#utility.yul\":3386:3449   */\n      swap3\n      pop\n        /* \"#utility.yul\":3342:3459   */\n      pop\n        /* \"#utility.yul\":3526:3528   */\n      0x20\n        /* \"#utility.yul\":3515:3524   */\n      dup4\n        /* \"#utility.yul\":3511:3529   */\n      add\n        /* \"#utility.yul\":3498:3530   */\n      calldataload\n        /* \"#utility.yul\":3557:3575   */\n      0xffffffffffffffff\n        /* \"#utility.yul\":3549:3555   */\n      dup2\n        /* \"#utility.yul\":3546:3576   */\n      gt\n        /* \"#utility.yul\":3543:3660   */\n      iszero\n      tag_288\n      jumpi\n        /* \"#utility.yul\":3579:3658   */\n      tag_289\n      tag_173\n      jump\t// in\n    tag_289:\n        /* \"#utility.yul\":3543:3660   */\n    tag_288:\n        /* \"#utility.yul\":3684:3762   */\n      tag_290\n        /* \"#utility.yul\":3754:3761   */\n      dup6\n        /* \"#utility.yul\":3745:3751   */\n      dup3\n        /* \"#utility.yul\":3734:3743   */\n      dup7\n        /* \"#utility.yul\":3730:3752   */\n      add\n        /* \"#utility.yul\":3684:3762   */\n      tag_185\n      jump\t// in\n    tag_290:\n        /* \"#utility.yul\":3674:3762   */\n      swap2\n      pop\n        /* \"#utility.yul\":3469:3772   */\n      pop\n        /* \"#utility.yul\":3095:3779   */\n      swap3\n      pop\n      swap3\n      swap1\n      pop\n      jump\t// out\n        /* \"#utility.yul\":3785:4114   */\n    tag_24:\n        /* \"#utility.yul\":3844:3850   */\n      0x00\n        /* \"#utility.yul\":3893:3895   */\n      0x20\n        /* \"#utility.yul\":3881:3890   */\n      dup3\n        /* \"#utility.yul\":3872:3879   */\n      dup5\n        /* \"#utility.yul\":3868:3891   */\n      sub\n        /* \"#utility.yul\":3864:3896   */\n      slt\n        /* \"#utility.yul\":3861:3980   */\n      iszero\n      tag_292\n      jumpi\n        /* \"#utility.yul\":3899:3978   */\n      tag_293\n      tag_172\n      jump\t// in\n    tag_293:\n        /* \"#utility.yul\":3861:3980   */\n    tag_292:\n        /* \"#utility.yul\":4019:4020   */\n      0x00\n        /* \"#utility.yul\":4044:4097   */\n      tag_294\n        /* \"#utility.yul\":4089:4096   */\n      dup5\n        /* \"#utility.yul\":4080:4086   */\n      dup3\n        /* \"#utility.yul\":4069:4078   */\n      dup6\n        /* \"#utility.yul\":4065:4087   */\n      add\n        /* \"#utility.yul\":4044:4097   */\n      tag_176\n      jump\t// in\n    tag_294:\n        /* \"#utility.yul\":4034:4097   */\n      swap2\n      pop\n        /* \"#utility.yul\":3990:4107   */\n      pop\n        /* \"#utility.yul\":3785:4114   */\n      swap3\n      swap2\n      pop\n      pop\n      jump\t// out\n        /* \"#utility.yul\":4120:4234   */\n    tag_186:\n        /* \"#utility.yul\":4187:4193   */\n      0x00\n        /* \"#utility.yul\":4221:4226   */\n      dup2\n        /* \"#utility.yul\":4215:4227   */\n      mload\n        /* \"#utility.yul\":4205:4227   */\n      swap1\n      pop\n        /* \"#utility.yul\":4120:4234   */\n      swap2\n      swap1\n      pop\n      jump\t// out\n        /* \"#utility.yul\":4240:4424   */\n    tag_187:\n        /* \"#utility.yul\":4339:4350   */\n      0x00\n        /* \"#utility.yul\":4373:4379   */\n      dup3\n        /* \"#utility.yul\":4368:4371   */\n      dup3\n        /* \"#utility.yul\":4361:4380   */\n      mstore\n        /* \"#utility.yul\":4413:4417   */\n      0x20\n        /* \"#utility.yul\":4408:4411   */\n      dup3\n        /* \"#utility.yul\":4404:4418   */\n      add\n        /* \"#utility.yul\":4389:4418   */\n      swap1\n      pop\n        /* \"#utility.yul\":4240:4424   */\n      swap3\n      swap2\n      pop\n      pop\n      jump\t// out\n        /* \"#utility.yul\":4430:4562   */\n    tag_188:\n        /* \"#utility.yul\":4497:4501   */\n      0x00\n        /* \"#utility.yul\":4520:4523   */\n      dup2\n        /* \"#utility.yul\":4512:4523   */\n      swap1\n      pop\n        /* \"#utility.yul\":4550:4554   */\n      0x20\n        /* \"#utility.yul\":4545:4548   */\n      dup3\n        /* \"#utility.yul\":4541:4555   */\n      add\n        /* \"#utility.yul\":4533:4555   */\n      swap1\n      pop\n        /* \"#utility.yul\":4430:4562   */\n      swap2\n      swap1\n      pop\n      jump\t// out\n        /* \"#utility.yul\":4568:4676   */\n    tag_189:\n        /* \"#utility.yul\":4645:4669   */\n      tag_299\n        /* \"#utility.yul\":4663:4668   */\n      dup2\n        /* \"#utility.yul\":4645:4669   */\n      tag_174\n      jump\t// in\n    tag_299:\n        /* \"#utility.yul\":4640:4643   */\n      dup3\n        /* \"#utility.yul\":4633:4670   */\n      mstore\n        /* \"#utility.yul\":4568:4676   */\n      pop\n      pop\n      jump\t// out\n        /* \"#utility.yul\":4682:4861   */\n    tag_190:\n        /* \"#utility.yul\":4751:4761   */\n      0x00\n        /* \"#utility.yul\":4772:4818   */\n      tag_301\n        /* \"#utility.yul\":4814:4817   */\n      dup4\n        /* \"#utility.yul\":4806:4812   */\n      dup4\n        /* \"#utility.yul\":4772:4818   */\n      tag_189\n      jump\t// in\n    tag_301:\n        /* \"#utility.yul\":4850:4854   */\n      0x20\n        /* \"#utility.yul\":4845:4848   */\n      dup4\n        /* \"#utility.yul\":4841:4855   */\n      add\n        /* \"#utility.yul\":4827:4855   */\n      swap1\n      pop\n        /* \"#utility.yul\":4682:4861   */\n      swap3\n      swap2\n      pop\n      pop\n      jump\t// out\n        /* \"#utility.yul\":4867:4980   */\n    tag_191:\n        /* \"#utility.yul\":4937:4941   */\n      0x00\n        /* \"#utility.yul\":4969:4973   */\n      0x20\n        /* \"#utility.yul\":4964:4967   */\n      dup3\n        /* \"#utility.yul\":4960:4974   */\n      add\n        /* \"#utility.yul\":4952:4974   */\n      swap1\n      pop\n        /* \"#utility.yul\":4867:4980   */\n      swap2\n      swap1\n      pop\n      jump\t// out\n        /* \"#utility.yul\":5016:5748   */\n    tag_192:\n        /* \"#utility.yul\":5135:5138   */\n      0x00\n        /* \"#utility.yul\":5164:5218   */\n      tag_304\n        /* \"#utility.yul\":5212:5217   */\n      dup3\n        /* \"#utility.yul\":5164:5218   */\n      tag_186\n      jump\t// in\n    tag_304:\n        /* \"#utility.yul\":5234:5320   */\n      tag_305\n        /* \"#utility.yul\":5313:5319   */\n      dup2\n        /* \"#utility.yul\":5308:5311   */\n      dup6\n        /* \"#utility.yul\":5234:5320   */\n      tag_187\n      jump\t// in\n    tag_305:\n        /* \"#utility.yul\":5227:5320   */\n      swap4\n      pop\n        /* \"#utility.yul\":5344:5400   */\n      tag_306\n        /* \"#utility.yul\":5394:5399   */\n      dup4\n        /* \"#utility.yul\":5344:5400   */\n      tag_188\n      jump\t// in\n    tag_306:\n        /* \"#utility.yul\":5423:5430   */\n      dup1\n        /* \"#utility.yul\":5454:5455   */\n      0x00\n        /* \"#utility.yul\":5439:5723   */\n    tag_307:\n        /* \"#utility.yul\":5464:5470   */\n      dup4\n        /* \"#utility.yul\":5461:5462   */\n      dup2\n        /* \"#utility.yul\":5458:5471   */\n      lt\n        /* \"#utility.yul\":5439:5723   */\n      iszero\n      tag_309\n      jumpi\n        /* \"#utility.yul\":5540:5546   */\n      dup2\n        /* \"#utility.yul\":5534:5547   */\n      mload\n        /* \"#utility.yul\":5567:5630   */\n      tag_310\n        /* \"#utility.yul\":5626:5629   */\n      dup9\n        /* \"#utility.yul\":5611:5624   */\n      dup3\n        /* \"#utility.yul\":5567:5630   */\n      tag_190\n      jump\t// in\n    tag_310:\n        /* \"#utility.yul\":5560:5630   */\n      swap8\n      pop\n        /* \"#utility.yul\":5653:5713   */\n      tag_311\n        /* \"#utility.yul\":5706:5712   */\n      dup4\n        /* \"#utility.yul\":5653:5713   */\n      tag_191\n      jump\t// in\n    tag_311:\n        /* \"#utility.yul\":5643:5713   */\n      swap3\n      pop\n        /* \"#utility.yul\":5499:5723   */\n      pop\n        /* \"#utility.yul\":5486:5487   */\n      0x01\n        /* \"#utility.yul\":5483:5484   */\n      dup2\n        /* \"#utility.yul\":5479:5488   */\n      add\n        /* \"#utility.yul\":5474:5488   */\n      swap1\n      pop\n        /* \"#utility.yul\":5439:5723   */\n      jump(tag_307)\n    tag_309:\n        /* \"#utility.yul\":5443:5457   */\n      pop\n        /* \"#utility.yul\":5739:5742   */\n      dup6\n        /* \"#utility.yul\":5732:5742   */\n      swap4\n      pop\n        /* \"#utility.yul\":5140:5748   */\n      pop\n      pop\n      pop\n        /* \"#utility.yul\":5016:5748   */\n      swap3\n      swap2\n      pop\n      pop\n      jump\t// out\n        /* \"#utility.yul\":5754:6127   */\n    tag_27:\n        /* \"#utility.yul\":5897:5901   */\n      0x00\n        /* \"#utility.yul\":5935:5937   */\n      0x20\n        /* \"#utility.yul\":5924:5933   */\n      dup3\n        /* \"#utility.yul\":5920:5938   */\n      add\n        /* \"#utility.yul\":5912:5938   */\n      swap1\n      pop\n        /* \"#utility.yul\":5984:5993   */\n      dup2\n        /* \"#utility.yul\":5978:5982   */\n      dup2\n        /* \"#utility.yul\":5974:5994   */\n      sub\n        /* \"#utility.yul\":5970:5971   */\n      0x00\n        /* \"#utility.yul\":5959:5968   */\n      dup4\n        /* \"#utility.yul\":5955:5972   */\n      add\n        /* \"#utility.yul\":5948:5995   */\n      mstore\n        /* \"#utility.yul\":6012:6120   */\n      tag_313\n        /* \"#utility.yul\":6115:6119   */\n      dup2\n        /* \"#utility.yul\":6106:6112   */\n      dup5\n        /* \"#utility.yul\":6012:6120   */\n      tag_192\n      jump\t// in\n    tag_313:\n        /* \"#utility.yul\":6004:6120   */\n      swap1\n      pop\n        /* \"#utility.yul\":5754:6127   */\n      swap3\n      swap2\n      pop\n      pop\n      jump\t// out\n        /* \"#utility.yul\":6133:6251   */\n    tag_193:\n        /* \"#utility.yul\":6220:6244   */\n      tag_315\n        /* \"#utility.yul\":6238:6243   */\n      dup2\n        /* \"#utility.yul\":6220:6244   */\n      tag_174\n      jump\t// in\n    tag_315:\n        /* \"#utility.yul\":6215:6218   */\n      dup3\n        /* \"#utility.yul\":6208:6245   */\n      mstore\n        /* \"#utility.yul\":6133:6251   */\n      pop\n      pop\n      jump\t// out\n        /* \"#utility.yul\":6257:6479   */\n    tag_31:\n        /* \"#utility.yul\":6350:6354   */\n      0x00\n        /* \"#utility.yul\":6388:6390   */\n      0x20\n        /* \"#utility.yul\":6377:6386   */\n      dup3\n        /* \"#utility.yul\":6373:6391   */\n      add\n        /* \"#utility.yul\":6365:6391   */\n      swap1\n      pop\n        /* \"#utility.yul\":6401:6472   */\n      tag_317\n        /* \"#utility.yul\":6469:6470   */\n      0x00\n        /* \"#utility.yul\":6458:6467   */\n      dup4\n        /* \"#utility.yul\":6454:6471   */\n      add\n        /* \"#utility.yul\":6445:6451   */\n      dup5\n        /* \"#utility.yul\":6401:6472   */\n      tag_193\n      jump\t// in\n    tag_317:\n        /* \"#utility.yul\":6257:6479   */\n      swap3\n      swap2\n      pop\n      pop\n      jump\t// out\n        /* \"#utility.yul\":6485:6609   */\n    tag_194:\n        /* \"#utility.yul\":6562:6568   */\n      0x00\n        /* \"#utility.yul\":6596:6601   */\n      dup2\n        /* \"#utility.yul\":6590:6602   */\n      mload\n        /* \"#utility.yul\":6580:6602   */\n      swap1\n      pop\n        /* \"#utility.yul\":6485:6609   */\n      swap2\n      swap1\n      pop\n      jump\t// out\n        /* \"#utility.yul\":6615:6799   */\n    tag_195:\n        /* \"#utility.yul\":6714:6725   */\n      0x00\n        /* \"#utility.yul\":6748:6754   */\n      dup3\n        /* \"#utility.yul\":6743:6746   */\n      dup3\n        /* \"#utility.yul\":6736:6755   */\n      mstore\n        /* \"#utility.yul\":6788:6792   */\n      0x20\n        /* \"#utility.yul\":6783:6786   */\n      dup3\n        /* \"#utility.yul\":6779:6793   */\n      add\n        /* \"#utility.yul\":6764:6793   */\n      swap1\n      pop\n        /* \"#utility.yul\":6615:6799   */\n      swap3\n      swap2\n      pop\n      pop\n      jump\t// out\n        /* \"#utility.yul\":6805:6947   */\n    tag_196:\n        /* \"#utility.yul\":6882:6886   */\n      0x00\n        /* \"#utility.yul\":6905:6908   */\n      dup2\n        /* \"#utility.yul\":6897:6908   */\n      swap1\n      pop\n        /* \"#utility.yul\":6935:6939   */\n      0x20\n        /* \"#utility.yul\":6930:6933   */\n      dup3\n        /* \"#utility.yul\":6926:6940   */\n      add\n        /* \"#utility.yul\":6918:6940   */\n      swap1\n      pop\n        /* \"#utility.yul\":6805:6947   */\n      swap2\n      swap1\n      pop\n      jump\t// out\n        /* \"#utility.yul\":6953:7052   */\n    tag_197:\n        /* \"#utility.yul\":7005:7011   */\n      0x00\n        /* \"#utility.yul\":7039:7044   */\n      dup2\n        /* \"#utility.yul\":7033:7045   */\n      mload\n        /* \"#utility.yul\":7023:7045   */\n      swap1\n      pop\n        /* \"#utility.yul\":6953:7052   */\n      swap2\n      swap1\n      pop\n      jump\t// out\n        /* \"#utility.yul\":7058:7217   */\n    tag_198:\n        /* \"#utility.yul\":7132:7143   */\n      0x00\n        /* \"#utility.yul\":7166:7172   */\n      dup3\n        /* \"#utility.yul\":7161:7164   */\n      dup3\n        /* \"#utility.yul\":7154:7173   */\n      mstore\n        /* \"#utility.yul\":7206:7210   */\n      0x20\n        /* \"#utility.yul\":7201:7204   */\n      dup3\n        /* \"#utility.yul\":7197:7211   */\n      add\n        /* \"#utility.yul\":7182:7211   */\n      swap1\n      pop\n        /* \"#utility.yul\":7058:7217   */\n      swap3\n      swap2\n      pop\n      pop\n      jump\t// out\n        /* \"#utility.yul\":7223:7469   */\n    tag_199:\n        /* \"#utility.yul\":7304:7305   */\n      0x00\n        /* \"#utility.yul\":7314:7427   */\n    tag_324:\n        /* \"#utility.yul\":7328:7334   */\n      dup4\n        /* \"#utility.yul\":7325:7326   */\n      dup2\n        /* \"#utility.yul\":7322:7335   */\n      lt\n        /* \"#utility.yul\":7314:7427   */\n      iszero\n      tag_326\n      jumpi\n        /* \"#utility.yul\":7413:7414   */\n      dup1\n        /* \"#utility.yul\":7408:7411   */\n      dup3\n        /* \"#utility.yul\":7404:7415   */\n      add\n        /* \"#utility.yul\":7398:7416   */\n      mload\n        /* \"#utility.yul\":7394:7395   */\n      dup2\n        /* \"#utility.yul\":7389:7392   */\n      dup5\n        /* \"#utility.yul\":7385:7396   */\n      add\n        /* \"#utility.yul\":7378:7417   */\n      mstore\n        /* \"#utility.yul\":7350:7352   */\n      0x20\n        /* \"#utility.yul\":7347:7348   */\n      dup2\n        /* \"#utility.yul\":7343:7353   */\n      add\n        /* \"#utility.yul\":7338:7353   */\n      swap1\n      pop\n        /* \"#utility.yul\":7314:7427   */\n      jump(tag_324)\n    tag_326:\n        /* \"#utility.yul\":7461:7462   */\n      0x00\n        /* \"#utility.yul\":7452:7458   */\n      dup5\n        /* \"#utility.yul\":7447:7450   */\n      dup5\n        /* \"#utility.yul\":7443:7459   */\n      add\n        /* \"#utility.yul\":7436:7463   */\n      mstore\n        /* \"#utility.yul\":7285:7469   */\n      pop\n        /* \"#utility.yul\":7223:7469   */\n      pop\n      pop\n      pop\n      jump\t// out\n        /* \"#utility.yul\":7475:7832   */\n    tag_200:\n        /* \"#utility.yul\":7553:7556   */\n      0x00\n        /* \"#utility.yul\":7581:7620   */\n      tag_328\n        /* \"#utility.yul\":7614:7619   */\n      dup3\n        /* \"#utility.yul\":7581:7620   */\n      tag_197\n      jump\t// in\n    tag_328:\n        /* \"#utility.yul\":7636:7697   */\n      tag_329\n        /* \"#utility.yul\":7690:7696   */\n      dup2\n        /* \"#utility.yul\":7685:7688   */\n      dup6\n        /* \"#utility.yul\":7636:7697   */\n      tag_198\n      jump\t// in\n    tag_329:\n        /* \"#utility.yul\":7629:7697   */\n      swap4\n      pop\n        /* \"#utility.yul\":7706:7771   */\n      tag_330\n        /* \"#utility.yul\":7764:7770   */\n      dup2\n        /* \"#utility.yul\":7759:7762   */\n      dup6\n        /* \"#utility.yul\":7752:7756   */\n      0x20\n        /* \"#utility.yul\":7745:7750   */\n      dup7\n        /* \"#utility.yul\":7741:7757   */\n      add\n        /* \"#utility.yul\":7706:7771   */\n      tag_199\n      jump\t// in\n    tag_330:\n        /* \"#utility.yul\":7796:7825   */\n      tag_331\n        /* \"#utility.yul\":7818:7824   */\n      dup2\n        /* \"#utility.yul\":7796:7825   */\n      tag_178\n      jump\t// in\n    tag_331:\n        /* \"#utility.yul\":7791:7794   */\n      dup5\n        /* \"#utility.yul\":7787:7826   */\n      add\n        /* \"#utility.yul\":7780:7826   */\n      swap2\n      pop\n        /* \"#utility.yul\":7557:7832   */\n      pop\n        /* \"#utility.yul\":7475:7832   */\n      swap3\n      swap2\n      pop\n      pop\n      jump\t// out\n        /* \"#utility.yul\":7838:8034   */\n    tag_201:\n        /* \"#utility.yul\":7927:7937   */\n      0x00\n        /* \"#utility.yul\":7962:8028   */\n      tag_333\n        /* \"#utility.yul\":8024:8027   */\n      dup4\n        /* \"#utility.yul\":8016:8022   */\n      dup4\n        /* \"#utility.yul\":7962:8028   */\n      tag_200\n      jump\t// in\n    tag_333:\n        /* \"#utility.yul\":7948:8028   */\n      swap1\n      pop\n        /* \"#utility.yul\":7838:8034   */\n      swap3\n      swap2\n      pop\n      pop\n      jump\t// out\n        /* \"#utility.yul\":8040:8163   */\n    tag_202:\n        /* \"#utility.yul\":8120:8124   */\n      0x00\n        /* \"#utility.yul\":8152:8156   */\n      0x20\n        /* \"#utility.yul\":8147:8150   */\n      dup3\n        /* \"#utility.yul\":8143:8157   */\n      add\n        /* \"#utility.yul\":8135:8157   */\n      swap1\n      pop\n        /* \"#utility.yul\":8040:8163   */\n      swap2\n      swap1\n      pop\n      jump\t// out\n        /* \"#utility.yul\":8197:9168   */\n    tag_203:\n        /* \"#utility.yul\":8326:8329   */\n      0x00\n        /* \"#utility.yul\":8355:8419   */\n      tag_336\n        /* \"#utility.yul\":8413:8418   */\n      dup3\n        /* \"#utility.yul\":8355:8419   */\n      tag_194\n      jump\t// in\n    tag_336:\n        /* \"#utility.yul\":8435:8521   */\n      tag_337\n        /* \"#utility.yul\":8514:8520   */\n      dup2\n        /* \"#utility.yul\":8509:8512   */\n      dup6\n        /* \"#utility.yul\":8435:8521   */\n      tag_195\n      jump\t// in\n    tag_337:\n        /* \"#utility.yul\":8428:8521   */\n      swap4\n      pop\n        /* \"#utility.yul\":8547:8550   */\n      dup4\n        /* \"#utility.yul\":8592:8596   */\n      0x20\n        /* \"#utility.yul\":8584:8590   */\n      dup3\n        /* \"#utility.yul\":8580:8597   */\n      mul\n        /* \"#utility.yul\":8575:8578   */\n      dup6\n        /* \"#utility.yul\":8571:8598   */\n      add\n        /* \"#utility.yul\":8622:8688   */\n      tag_338\n        /* \"#utility.yul\":8682:8687   */\n      dup6\n        /* \"#utility.yul\":8622:8688   */\n      tag_196\n      jump\t// in\n    tag_338:\n        /* \"#utility.yul\":8711:8718   */\n      dup1\n        /* \"#utility.yul\":8742:8743   */\n      0x00\n        /* \"#utility.yul\":8727:9123   */\n    tag_339:\n        /* \"#utility.yul\":8752:8758   */\n      dup6\n        /* \"#utility.yul\":8749:8750   */\n      dup2\n        /* \"#utility.yul\":8746:8759   */\n      lt\n        /* \"#utility.yul\":8727:9123   */\n      iszero\n      tag_341\n      jumpi\n        /* \"#utility.yul\":8823:8832   */\n      dup5\n        /* \"#utility.yul\":8817:8821   */\n      dup5\n        /* \"#utility.yul\":8813:8833   */\n      sub\n        /* \"#utility.yul\":8808:8811   */\n      dup10\n        /* \"#utility.yul\":8801:8834   */\n      mstore\n        /* \"#utility.yul\":8874:8880   */\n      dup2\n        /* \"#utility.yul\":8868:8881   */\n      mload\n        /* \"#utility.yul\":8902:8986   */\n      tag_342\n        /* \"#utility.yul\":8981:8985   */\n      dup6\n        /* \"#utility.yul\":8966:8979   */\n      dup3\n        /* \"#utility.yul\":8902:8986   */\n      tag_201\n      jump\t// in\n    tag_342:\n        /* \"#utility.yul\":8894:8986   */\n      swap5\n      pop\n        /* \"#utility.yul\":9009:9079   */\n      tag_343\n        /* \"#utility.yul\":9072:9078   */\n      dup4\n        /* \"#utility.yul\":9009:9079   */\n      tag_202\n      jump\t// in\n    tag_343:\n        /* \"#utility.yul\":8999:9079   */\n      swap3\n      pop\n        /* \"#utility.yul\":9108:9112   */\n      0x20\n        /* \"#utility.yul\":9103:9106   */\n      dup11\n        /* \"#utility.yul\":9099:9113   */\n      add\n        /* \"#utility.yul\":9092:9113   */\n      swap10\n      pop\n        /* \"#utility.yul\":8787:9123   */\n      pop\n        /* \"#utility.yul\":8774:8775   */\n      0x01\n        /* \"#utility.yul\":8771:8772   */\n      dup2\n        /* \"#utility.yul\":8767:8776   */\n      add\n        /* \"#utility.yul\":8762:8776   */\n      swap1\n      pop\n        /* \"#utility.yul\":8727:9123   */\n      jump(tag_339)\n    tag_341:\n        /* \"#utility.yul\":8731:8745   */\n      pop\n        /* \"#utility.yul\":9139:9143   */\n      dup3\n        /* \"#utility.yul\":9132:9143   */\n      swap8\n      pop\n        /* \"#utility.yul\":9159:9162   */\n      dup8\n        /* \"#utility.yul\":9152:9162   */\n      swap6\n      pop\n        /* \"#utility.yul\":8331:9168   */\n      pop\n      pop\n      pop\n      pop\n      pop\n        /* \"#utility.yul\":8197:9168   */\n      swap3\n      swap2\n      pop\n      pop\n      jump\t// out\n        /* \"#utility.yul\":9224:10057   */\n    tag_204:\n        /* \"#utility.yul\":9337:9340   */\n      0x00\n        /* \"#utility.yul\":9373:9377   */\n      0x60\n        /* \"#utility.yul\":9368:9371   */\n      dup4\n        /* \"#utility.yul\":9364:9378   */\n      add\n        /* \"#utility.yul\":9458:9462   */\n      0x00\n        /* \"#utility.yul\":9451:9456   */\n      dup4\n        /* \"#utility.yul\":9447:9463   */\n      add\n        /* \"#utility.yul\":9441:9464   */\n      mload\n        /* \"#utility.yul\":9477:9540   */\n      tag_345\n        /* \"#utility.yul\":9534:9538   */\n      0x00\n        /* \"#utility.yul\":9529:9532   */\n      dup7\n        /* \"#utility.yul\":9525:9539   */\n      add\n        /* \"#utility.yul\":9511:9523   */\n      dup3\n        /* \"#utility.yul\":9477:9540   */\n      tag_189\n      jump\t// in\n    tag_345:\n        /* \"#utility.yul\":9388:9550   */\n      pop\n        /* \"#utility.yul\":9640:9644   */\n      0x20\n        /* \"#utility.yul\":9633:9638   */\n      dup4\n        /* \"#utility.yul\":9629:9645   */\n      add\n        /* \"#utility.yul\":9623:9646   */\n      mload\n        /* \"#utility.yul\":9659:9722   */\n      tag_346\n        /* \"#utility.yul\":9716:9720   */\n      0x20\n        /* \"#utility.yul\":9711:9714   */\n      dup7\n        /* \"#utility.yul\":9707:9721   */\n      add\n        /* \"#utility.yul\":9693:9705   */\n      dup3\n        /* \"#utility.yul\":9659:9722   */\n      tag_189\n      jump\t// in\n    tag_346:\n        /* \"#utility.yul\":9560:9732   */\n      pop\n        /* \"#utility.yul\":9817:9821   */\n      0x40\n        /* \"#utility.yul\":9810:9815   */\n      dup4\n        /* \"#utility.yul\":9806:9822   */\n      add\n        /* \"#utility.yul\":9800:9823   */\n      mload\n        /* \"#utility.yul\":9870:9873   */\n      dup5\n        /* \"#utility.yul\":9864:9868   */\n      dup3\n        /* \"#utility.yul\":9860:9874   */\n      sub\n        /* \"#utility.yul\":9853:9857   */\n      0x40\n        /* \"#utility.yul\":9848:9851   */\n      dup7\n        /* \"#utility.yul\":9844:9858   */\n      add\n        /* \"#utility.yul\":9837:9875   */\n      mstore\n        /* \"#utility.yul\":9896:10019   */\n      tag_347\n        /* \"#utility.yul\":10014:10018   */\n      dup3\n        /* \"#utility.yul\":10000:10012   */\n      dup3\n        /* \"#utility.yul\":9896:10019   */\n      tag_203\n      jump\t// in\n    tag_347:\n        /* \"#utility.yul\":9888:10019   */\n      swap2\n      pop\n        /* \"#utility.yul\":9742:10030   */\n      pop\n        /* \"#utility.yul\":10047:10051   */\n      dup1\n        /* \"#utility.yul\":10040:10051   */\n      swap2\n      pop\n        /* \"#utility.yul\":9342:10057   */\n      pop\n        /* \"#utility.yul\":9224:10057   */\n      swap3\n      swap2\n      pop\n      pop\n      jump\t// out\n        /* \"#utility.yul\":10063:10424   */\n    tag_36:\n        /* \"#utility.yul\":10200:10204   */\n      0x00\n        /* \"#utility.yul\":10238:10240   */\n      0x20\n        /* \"#utility.yul\":10227:10236   */\n      dup3\n        /* \"#utility.yul\":10223:10241   */\n      add\n        /* \"#utility.yul\":10215:10241   */\n      swap1\n      pop\n        /* \"#utility.yul\":10287:10296   */\n      dup2\n        /* \"#utility.yul\":10281:10285   */\n      dup2\n        /* \"#utility.yul\":10277:10297   */\n      sub\n        /* \"#utility.yul\":10273:10274   */\n      0x00\n        /* \"#utility.yul\":10262:10271   */\n      dup4\n        /* \"#utility.yul\":10258:10275   */\n      add\n        /* \"#utility.yul\":10251:10298   */\n      mstore\n        /* \"#utility.yul\":10315:10417   */\n      tag_349\n        /* \"#utility.yul\":10412:10416   */\n      dup2\n        /* \"#utility.yul\":10403:10409   */\n      dup5\n        /* \"#utility.yul\":10315:10417   */\n      tag_204\n      jump\t// in\n    tag_349:\n        /* \"#utility.yul\":10307:10417   */\n      swap1\n      pop\n        /* \"#utility.yul\":10063:10424   */\n      swap3\n      swap2\n      pop\n      pop\n      jump\t// out\n        /* \"#utility.yul\":10430:10872   */\n    tag_44:\n        /* \"#utility.yul\":10579:10583   */\n      0x00\n        /* \"#utility.yul\":10617:10619   */\n      0x60\n        /* \"#utility.yul\":10606:10615   */\n      dup3\n        /* \"#utility.yul\":10602:10620   */\n      add\n        /* \"#utility.yul\":10594:10620   */\n      swap1\n      pop\n        /* \"#utility.yul\":10630:10701   */\n      tag_351\n        /* \"#utility.yul\":10698:10699   */\n      0x00\n        /* \"#utility.yul\":10687:10696   */\n      dup4\n        /* \"#utility.yul\":10683:10700   */\n      add\n        /* \"#utility.yul\":10674:10680   */\n      dup7\n        /* \"#utility.yul\":10630:10701   */\n      tag_193\n      jump\t// in\n    tag_351:\n        /* \"#utility.yul\":10711:10783   */\n      tag_352\n        /* \"#utility.yul\":10779:10781   */\n      0x20\n        /* \"#utility.yul\":10768:10777   */\n      dup4\n        /* \"#utility.yul\":10764:10782   */\n      add\n        /* \"#utility.yul\":10755:10761   */\n      dup6\n        /* \"#utility.yul\":10711:10783   */\n      tag_193\n      jump\t// in\n    tag_352:\n        /* \"#utility.yul\":10793:10865   */\n      tag_353\n        /* \"#utility.yul\":10861:10863   */\n      0x40\n        /* \"#utility.yul\":10850:10859   */\n      dup4\n        /* \"#utility.yul\":10846:10864   */\n      add\n        /* \"#utility.yul\":10837:10843   */\n      dup5\n        /* \"#utility.yul\":10793:10865   */\n      tag_193\n      jump\t// in\n    tag_353:\n        /* \"#utility.yul\":10430:10872   */\n      swap5\n      swap4\n      pop\n      pop\n      pop\n      pop\n      jump\t// out\n        /* \"#utility.yul\":10878:11352   */\n    tag_47:\n        /* \"#utility.yul\":10946:10952   */\n      0x00\n        /* \"#utility.yul\":10954:10960   */\n      dup1\n        /* \"#utility.yul\":11003:11005   */\n      0x40\n        /* \"#utility.yul\":10991:11000   */\n      dup4\n        /* \"#utility.yul\":10982:10989   */\n      dup6\n        /* \"#utility.yul\":10978:11001   */\n      sub\n        /* \"#utility.yul\":10974:11006   */\n      slt\n        /* \"#utility.yul\":10971:11090   */\n      iszero\n      tag_355\n      jumpi\n        /* \"#utility.yul\":11009:11088   */\n      tag_356\n      tag_172\n      jump\t// in\n    tag_356:\n        /* \"#utility.yul\":10971:11090   */\n    tag_355:\n        /* \"#utility.yul\":11129:11130   */\n      0x00\n        /* \"#utility.yul\":11154:11207   */\n      tag_357\n        /* \"#utility.yul\":11199:11206   */\n      dup6\n        /* \"#utility.yul\":11190:11196   */\n      dup3\n        /* \"#utility.yul\":11179:11188   */\n      dup7\n        /* \"#utility.yul\":11175:11197   */\n      add\n        /* \"#utility.yul\":11154:11207   */\n      tag_176\n      jump\t// in\n    tag_357:\n        /* \"#utility.yul\":11144:11207   */\n      swap3\n      pop\n        /* \"#utility.yul\":11100:11217   */\n      pop\n        /* \"#utility.yul\":11256:11258   */\n      0x20\n        /* \"#utility.yul\":11282:11335   */\n      tag_358\n        /* \"#utility.yul\":11327:11334   */\n      dup6\n        /* \"#utility.yul\":11318:11324   */\n      dup3\n        /* \"#utility.yul\":11307:11316   */\n      dup7\n        /* \"#utility.yul\":11303:11325   */\n      add\n        /* \"#utility.yul\":11282:11335   */\n      tag_176\n      jump\t// in\n    tag_358:\n        /* \"#utility.yul\":11272:11335   */\n      swap2\n      pop\n        /* \"#utility.yul\":11227:11345   */\n      pop\n        /* \"#utility.yul\":10878:11352   */\n      swap3\n      pop\n      swap3\n      swap1\n      pop\n      jump\t// out\n        /* \"#utility.yul\":11358:11484   */\n    tag_205:\n        /* \"#utility.yul\":11395:11402   */\n      0x00\n        /* \"#utility.yul\":11435:11477   */\n      0xffffffffffffffffffffffffffffffffffffffff\n        /* \"#utility.yul\":11428:11433   */\n      dup3\n        /* \"#utility.yul\":11424:11478   */\n      and\n        /* \"#utility.yul\":11413:11478   */\n      swap1\n      pop\n        /* \"#utility.yul\":11358:11484   */\n      swap2\n      swap1\n      pop\n      jump\t// out\n        /* \"#utility.yul\":11490:11586   */\n    tag_206:\n        /* \"#utility.yul\":11527:11534   */\n      0x00\n        /* \"#utility.yul\":11556:11580   */\n      tag_361\n        /* \"#utility.yul\":11574:11579   */\n      dup3\n        /* \"#utility.yul\":11556:11580   */\n      tag_205\n      jump\t// in\n    tag_361:\n        /* \"#utility.yul\":11545:11580   */\n      swap1\n      pop\n        /* \"#utility.yul\":11490:11586   */\n      swap2\n      swap1\n      pop\n      jump\t// out\n        /* \"#utility.yul\":11592:11714   */\n    tag_207:\n        /* \"#utility.yul\":11665:11689   */\n      tag_363\n        /* \"#utility.yul\":11683:11688   */\n      dup2\n        /* \"#utility.yul\":11665:11689   */\n      tag_206\n      jump\t// in\n    tag_363:\n        /* \"#utility.yul\":11658:11663   */\n      dup2\n        /* \"#utility.yul\":11655:11690   */\n      eq\n        /* \"#utility.yul\":11645:11708   */\n      tag_364\n      jumpi\n        /* \"#utility.yul\":11704:11705   */\n      0x00\n        /* \"#utility.yul\":11701:11702   */\n      dup1\n        /* \"#utility.yul\":11694:11706   */\n      revert\n        /* \"#utility.yul\":11645:11708   */\n    tag_364:\n        /* \"#utility.yul\":11592:11714   */\n      pop\n      jump\t// out\n        /* \"#utility.yul\":11720:11859   */\n    tag_208:\n        /* \"#utility.yul\":11766:11771   */\n      0x00\n        /* \"#utility.yul\":11804:11810   */\n      dup2\n        /* \"#utility.yul\":11791:11811   */\n      calldataload\n        /* \"#utility.yul\":11782:11811   */\n      swap1\n      pop\n        /* \"#utility.yul\":11820:11853   */\n      tag_366\n        /* \"#utility.yul\":11847:11852   */\n      dup2\n        /* \"#utility.yul\":11820:11853   */\n      tag_207\n      jump\t// in\n    tag_366:\n        /* \"#utility.yul\":11720:11859   */\n      swap3\n      swap2\n      pop\n      pop\n      jump\t// out\n        /* \"#utility.yul\":11865:12194   */\n    tag_52:\n        /* \"#utility.yul\":11924:11930   */\n      0x00\n        /* \"#utility.yul\":11973:11975   */\n      0x20\n        /* \"#utility.yul\":11961:11970   */\n      dup3\n        /* \"#utility.yul\":11952:11959   */\n      dup5\n        /* \"#utility.yul\":11948:11971   */\n      sub\n        /* \"#utility.yul\":11944:11976   */\n      slt\n        /* \"#utility.yul\":11941:12060   */\n      iszero\n      tag_368\n      jumpi\n        /* \"#utility.yul\":11979:12058   */\n      tag_369\n      tag_172\n      jump\t// in\n    tag_369:\n        /* \"#utility.yul\":11941:12060   */\n    tag_368:\n        /* \"#utility.yul\":12099:12100   */\n      0x00\n        /* \"#utility.yul\":12124:12177   */\n      tag_370\n        /* \"#utility.yul\":12169:12176   */\n      dup5\n        /* \"#utility.yul\":12160:12166   */\n      dup3\n        /* \"#utility.yul\":12149:12158   */\n      dup6\n        /* \"#utility.yul\":12145:12167   */\n      add\n        /* \"#utility.yul\":12124:12177   */\n      tag_208\n      jump\t// in\n    tag_370:\n        /* \"#utility.yul\":12114:12177   */\n      swap2\n      pop\n        /* \"#utility.yul\":12070:12187   */\n      pop\n        /* \"#utility.yul\":11865:12194   */\n      swap3\n      swap2\n      pop\n      pop\n      jump\t// out\n        /* \"#utility.yul\":12200:12674   */\n    tag_61:\n        /* \"#utility.yul\":12268:12274   */\n      0x00\n        /* \"#utility.yul\":12276:12282   */\n      dup1\n        /* \"#utility.yul\":12325:12327   */\n      0x40\n        /* \"#utility.yul\":12313:12322   */\n      dup4\n        /* \"#utility.yul\":12304:12311   */\n      dup6\n        /* \"#utility.yul\":12300:12323   */\n      sub\n        /* \"#utility.yul\":12296:12328   */\n      slt\n        /* \"#utility.yul\":12293:12412   */\n      iszero\n      tag_372\n      jumpi\n        /* \"#utility.yul\":12331:12410   */\n      tag_373\n      tag_172\n      jump\t// in\n    tag_373:\n        /* \"#utility.yul\":12293:12412   */\n    tag_372:\n        /* \"#utility.yul\":12451:12452   */\n      0x00\n        /* \"#utility.yul\":12476:12529   */\n      tag_374\n        /* \"#utility.yul\":12521:12528   */\n      dup6\n        /* \"#utility.yul\":12512:12518   */\n      dup3\n        /* \"#utility.yul\":12501:12510   */\n      dup7\n        /* \"#utility.yul\":12497:12519   */\n      add\n        /* \"#utility.yul\":12476:12529   */\n      tag_208\n      jump\t// in\n    tag_374:\n        /* \"#utility.yul\":12466:12529   */\n      swap3\n      pop\n        /* \"#utility.yul\":12422:12539   */\n      pop\n        /* \"#utility.yul\":12578:12580   */\n      0x20\n        /* \"#utility.yul\":12604:12657   */\n      tag_375\n        /* \"#utility.yul\":12649:12656   */\n      dup6\n        /* \"#utility.yul\":12640:12646   */\n      dup3\n        /* \"#utility.yul\":12629:12638   */\n      dup7\n        /* \"#utility.yul\":12625:12647   */\n      add\n        /* \"#utility.yul\":12604:12657   */\n      tag_176\n      jump\t// in\n    tag_375:\n        /* \"#utility.yul\":12594:12657   */\n      swap2\n      pop\n        /* \"#utility.yul\":12549:12667   */\n      pop\n        /* \"#utility.yul\":12200:12674   */\n      swap3\n      pop\n      swap3\n      swap1\n      pop\n      jump\t// out\n        /* \"#utility.yul\":12728:13411   */\n    tag_209:\n        /* \"#utility.yul\":12867:12871   */\n      0x60\n        /* \"#utility.yul\":12862:12865   */\n      dup3\n        /* \"#utility.yul\":12858:12872   */\n      add\n        /* \"#utility.yul\":12959:12963   */\n      0x00\n        /* \"#utility.yul\":12952:12957   */\n      dup3\n        /* \"#utility.yul\":12948:12964   */\n      add\n        /* \"#utility.yul\":12942:12965   */\n      mload\n        /* \"#utility.yul\":12978:13041   */\n      tag_377\n        /* \"#utility.yul\":13035:13039   */\n      0x00\n        /* \"#utility.yul\":13030:13033   */\n      dup6\n        /* \"#utility.yul\":13026:13040   */\n      add\n        /* \"#utility.yul\":13012:13024   */\n      dup3\n        /* \"#utility.yul\":12978:13041   */\n      tag_189\n      jump\t// in\n    tag_377:\n        /* \"#utility.yul\":12882:13051   */\n      pop\n        /* \"#utility.yul\":13136:13140   */\n      0x20\n        /* \"#utility.yul\":13129:13134   */\n      dup3\n        /* \"#utility.yul\":13125:13141   */\n      add\n        /* \"#utility.yul\":13119:13142   */\n      mload\n        /* \"#utility.yul\":13155:13218   */\n      tag_378\n        /* \"#utility.yul\":13212:13216   */\n      0x20\n        /* \"#utility.yul\":13207:13210   */\n      dup6\n        /* \"#utility.yul\":13203:13217   */\n      add\n        /* \"#utility.yul\":13189:13201   */\n      dup3\n        /* \"#utility.yul\":13155:13218   */\n      tag_189\n      jump\t// in\n    tag_378:\n        /* \"#utility.yul\":13061:13228   */\n      pop\n        /* \"#utility.yul\":13312:13316   */\n      0x40\n        /* \"#utility.yul\":13305:13310   */\n      dup3\n        /* \"#utility.yul\":13301:13317   */\n      add\n        /* \"#utility.yul\":13295:13318   */\n      mload\n        /* \"#utility.yul\":13331:13394   */\n      tag_379\n        /* \"#utility.yul\":13388:13392   */\n      0x40\n        /* \"#utility.yul\":13383:13386   */\n      dup6\n        /* \"#utility.yul\":13379:13393   */\n      add\n        /* \"#utility.yul\":13365:13377   */\n      dup3\n        /* \"#utility.yul\":13331:13394   */\n      tag_189\n      jump\t// in\n    tag_379:\n        /* \"#utility.yul\":13238:13404   */\n      pop\n        /* \"#utility.yul\":12836:13411   */\n      pop\n        /* \"#utility.yul\":12728:13411   */\n      pop\n      pop\n      jump\t// out\n        /* \"#utility.yul\":13417:13723   */\n    tag_68:\n        /* \"#utility.yul\":13552:13556   */\n      0x00\n        /* \"#utility.yul\":13590:13592   */\n      0x60\n        /* \"#utility.yul\":13579:13588   */\n      dup3\n        /* \"#utility.yul\":13575:13593   */\n      add\n        /* \"#utility.yul\":13567:13593   */\n      swap1\n      pop\n        /* \"#utility.yul\":13603:13716   */\n      tag_381\n        /* \"#utility.yul\":13713:13714   */\n      0x00\n        /* \"#utility.yul\":13702:13711   */\n      dup4\n        /* \"#utility.yul\":13698:13715   */\n      add\n        /* \"#utility.yul\":13689:13695   */\n      dup5\n        /* \"#utility.yul\":13603:13716   */\n      tag_209\n      jump\t// in\n    tag_381:\n        /* \"#utility.yul\":13417:13723   */\n      swap3\n      swap2\n      pop\n      pop\n      jump\t// out\n        /* \"#utility.yul\":13729:14061   */\n    tag_73:\n        /* \"#utility.yul\":13850:13854   */\n      0x00\n        /* \"#utility.yul\":13888:13890   */\n      0x40\n        /* \"#utility.yul\":13877:13886   */\n      dup3\n        /* \"#utility.yul\":13873:13891   */\n      add\n        /* \"#utility.yul\":13865:13891   */\n      swap1\n      pop\n        /* \"#utility.yul\":13901:13972   */\n      tag_383\n        /* \"#utility.yul\":13969:13970   */\n      0x00\n        /* \"#utility.yul\":13958:13967   */\n      dup4\n        /* \"#utility.yul\":13954:13971   */\n      add\n        /* \"#utility.yul\":13945:13951   */\n      dup6\n        /* \"#utility.yul\":13901:13972   */\n      tag_193\n      jump\t// in\n    tag_383:\n        /* \"#utility.yul\":13982:14054   */\n      tag_384\n        /* \"#utility.yul\":14050:14052   */\n      0x20\n        /* \"#utility.yul\":14039:14048   */\n      dup4\n        /* \"#utility.yul\":14035:14053   */\n      add\n        /* \"#utility.yul\":14026:14032   */\n      dup5\n        /* \"#utility.yul\":13982:14054   */\n      tag_193\n      jump\t// in\n    tag_384:\n        /* \"#utility.yul\":13729:14061   */\n      swap4\n      swap3\n      pop\n      pop\n      pop\n      jump\t// out\n        /* \"#utility.yul\":14067:14184   */\n    tag_210:\n        /* \"#utility.yul\":14176:14177   */\n      0x00\n        /* \"#utility.yul\":14173:14174   */\n      dup1\n        /* \"#utility.yul\":14166:14178   */\n      revert\n        /* \"#utility.yul\":14206:14786   */\n    tag_211:\n        /* \"#utility.yul\":14291:14299   */\n      0x00\n        /* \"#utility.yul\":14301:14307   */\n      dup1\n        /* \"#utility.yul\":14351:14354   */\n      dup4\n        /* \"#utility.yul\":14344:14348   */\n      0x1f\n        /* \"#utility.yul\":14336:14342   */\n      dup5\n        /* \"#utility.yul\":14332:14349   */\n      add\n        /* \"#utility.yul\":14328:14355   */\n      slt\n        /* \"#utility.yul\":14318:14440   */\n      tag_387\n      jumpi\n        /* \"#utility.yul\":14359:14438   */\n      tag_388\n      tag_177\n      jump\t// in\n    tag_388:\n        /* \"#utility.yul\":14318:14440   */\n    tag_387:\n        /* \"#utility.yul\":14472:14478   */\n      dup3\n        /* \"#utility.yul\":14459:14479   */\n      calldataload\n        /* \"#utility.yul\":14449:14479   */\n      swap1\n      pop\n        /* \"#utility.yul\":14502:14520   */\n      0xffffffffffffffff\n        /* \"#utility.yul\":14494:14500   */\n      dup2\n        /* \"#utility.yul\":14491:14521   */\n      gt\n        /* \"#utility.yul\":14488:14605   */\n      iszero\n      tag_389\n      jumpi\n        /* \"#utility.yul\":14524:14603   */\n      tag_390\n      tag_210\n      jump\t// in\n    tag_390:\n        /* \"#utility.yul\":14488:14605   */\n    tag_389:\n        /* \"#utility.yul\":14638:14642   */\n      0x20\n        /* \"#utility.yul\":14630:14636   */\n      dup4\n        /* \"#utility.yul\":14626:14643   */\n      add\n        /* \"#utility.yul\":14614:14643   */\n      swap2\n      pop\n        /* \"#utility.yul\":14692:14695   */\n      dup4\n        /* \"#utility.yul\":14684:14688   */\n      0x20\n        /* \"#utility.yul\":14676:14682   */\n      dup3\n        /* \"#utility.yul\":14672:14689   */\n      mul\n        /* \"#utility.yul\":14662:14670   */\n      dup4\n        /* \"#utility.yul\":14658:14690   */\n      add\n        /* \"#utility.yul\":14655:14696   */\n      gt\n        /* \"#utility.yul\":14652:14780   */\n      iszero\n      tag_391\n      jumpi\n        /* \"#utility.yul\":14699:14778   */\n      tag_392\n      tag_183\n      jump\t// in\n    tag_392:\n        /* \"#utility.yul\":14652:14780   */\n    tag_391:\n        /* \"#utility.yul\":14206:14786   */\n      swap3\n      pop\n      swap3\n      swap1\n      pop\n      jump\t// out\n        /* \"#utility.yul\":14792:15375   */\n    tag_76:\n        /* \"#utility.yul\":14890:14896   */\n      0x00\n        /* \"#utility.yul\":14898:14904   */\n      dup1\n        /* \"#utility.yul\":14947:14949   */\n      0x20\n        /* \"#utility.yul\":14935:14944   */\n      dup4\n        /* \"#utility.yul\":14926:14933   */\n      dup6\n        /* \"#utility.yul\":14922:14945   */\n      sub\n        /* \"#utility.yul\":14918:14950   */\n      slt\n        /* \"#utility.yul\":14915:15034   */\n      iszero\n      tag_394\n      jumpi\n        /* \"#utility.yul\":14953:15032   */\n      tag_395\n      tag_172\n      jump\t// in\n    tag_395:\n        /* \"#utility.yul\":14915:15034   */\n    tag_394:\n        /* \"#utility.yul\":15101:15102   */\n      0x00\n        /* \"#utility.yul\":15090:15099   */\n      dup4\n        /* \"#utility.yul\":15086:15103   */\n      add\n        /* \"#utility.yul\":15073:15104   */\n      calldataload\n        /* \"#utility.yul\":15131:15149   */\n      0xffffffffffffffff\n        /* \"#utility.yul\":15123:15129   */\n      dup2\n        /* \"#utility.yul\":15120:15150   */\n      gt\n        /* \"#utility.yul\":15117:15234   */\n      iszero\n      tag_396\n      jumpi\n        /* \"#utility.yul\":15153:15232   */\n      tag_397\n      tag_173\n      jump\t// in\n    tag_397:\n        /* \"#utility.yul\":15117:15234   */\n    tag_396:\n        /* \"#utility.yul\":15266:15358   */\n      tag_398\n        /* \"#utility.yul\":15350:15357   */\n      dup6\n        /* \"#utility.yul\":15341:15347   */\n      dup3\n        /* \"#utility.yul\":15330:15339   */\n      dup7\n        /* \"#utility.yul\":15326:15348   */\n      add\n        /* \"#utility.yul\":15266:15358   */\n      tag_211\n      jump\t// in\n    tag_398:\n        /* \"#utility.yul\":15248:15358   */\n      swap3\n      pop\n      swap3\n      pop\n        /* \"#utility.yul\":15044:15368   */\n      pop\n        /* \"#utility.yul\":14792:15375   */\n      swap3\n      pop\n      swap3\n      swap1\n      pop\n      jump\t// out\n        /* \"#utility.yul\":15381:15499   */\n    tag_212:\n        /* \"#utility.yul\":15468:15492   */\n      tag_400\n        /* \"#utility.yul\":15486:15491   */\n      dup2\n        /* \"#utility.yul\":15468:15492   */\n      tag_206\n      jump\t// in\n    tag_400:\n        /* \"#utility.yul\":15463:15466   */\n      dup3\n        /* \"#utility.yul\":15456:15493   */\n      mstore\n        /* \"#utility.yul\":15381:15499   */\n      pop\n      pop\n      jump\t// out\n        /* \"#utility.yul\":15505:15837   */\n    tag_81:\n        /* \"#utility.yul\":15626:15630   */\n      0x00\n        /* \"#utility.yul\":15664:15666   */\n      0x40\n        /* \"#utility.yul\":15653:15662   */\n      dup3\n        /* \"#utility.yul\":15649:15667   */\n      add\n        /* \"#utility.yul\":15641:15667   */\n      swap1\n      pop\n        /* \"#utility.yul\":15677:15748   */\n      tag_402\n        /* \"#utility.yul\":15745:15746   */\n      0x00\n        /* \"#utility.yul\":15734:15743   */\n      dup4\n        /* \"#utility.yul\":15730:15747   */\n      add\n        /* \"#utility.yul\":15721:15727   */\n      dup6\n        /* \"#utility.yul\":15677:15748   */\n      tag_212\n      jump\t// in\n    tag_402:\n        /* \"#utility.yul\":15758:15830   */\n      tag_403\n        /* \"#utility.yul\":15826:15828   */\n      0x20\n        /* \"#utility.yul\":15815:15824   */\n      dup4\n        /* \"#utility.yul\":15811:15829   */\n      add\n        /* \"#utility.yul\":15802:15808   */\n      dup5\n        /* \"#utility.yul\":15758:15830   */\n      tag_212\n      jump\t// in\n    tag_403:\n        /* \"#utility.yul\":15505:15837   */\n      swap4\n      swap3\n      pop\n      pop\n      pop\n      jump\t// out\n        /* \"#utility.yul\":15843:16023   */\n    tag_213:\n        /* \"#utility.yul\":15891:15968   */\n      0x4e487b7100000000000000000000000000000000000000000000000000000000\n        /* \"#utility.yul\":15888:15889   */\n      0x00\n        /* \"#utility.yul\":15881:15969   */\n      mstore\n        /* \"#utility.yul\":15988:15992   */\n      0x22\n        /* \"#utility.yul\":15985:15986   */\n      0x04\n        /* \"#utility.yul\":15978:15993   */\n      mstore\n        /* \"#utility.yul\":16012:16016   */\n      0x24\n        /* \"#utility.yul\":16009:16010   */\n      0x00\n        /* \"#utility.yul\":16002:16017   */\n      revert\n        /* \"#utility.yul\":16029:16349   */\n    tag_94:\n        /* \"#utility.yul\":16073:16079   */\n      0x00\n        /* \"#utility.yul\":16110:16111   */\n      0x02\n        /* \"#utility.yul\":16104:16108   */\n      dup3\n        /* \"#utility.yul\":16100:16112   */\n      div\n        /* \"#utility.yul\":16090:16112   */\n      swap1\n      pop\n        /* \"#utility.yul\":16157:16158   */\n      0x01\n        /* \"#utility.yul\":16151:16155   */\n      dup3\n        /* \"#utility.yul\":16147:16159   */\n      and\n        /* \"#utility.yul\":16178:16196   */\n      dup1\n        /* \"#utility.yul\":16168:16249   */\n      tag_406\n      jumpi\n        /* \"#utility.yul\":16234:16238   */\n      0x7f\n        /* \"#utility.yul\":16226:16232   */\n      dup3\n        /* \"#utility.yul\":16222:16239   */\n      and\n        /* \"#utility.yul\":16212:16239   */\n      swap2\n      pop\n        /* \"#utility.yul\":16168:16249   */\n    tag_406:\n        /* \"#utility.yul\":16296:16298   */\n      0x20\n        /* \"#utility.yul\":16288:16294   */\n      dup3\n        /* \"#utility.yul\":16285:16299   */\n      lt\n        /* \"#utility.yul\":16265:16283   */\n      dup2\n        /* \"#utility.yul\":16262:16300   */\n      sub\n        /* \"#utility.yul\":16259:16343   */\n      tag_407\n      jumpi\n        /* \"#utility.yul\":16315:16333   */\n      tag_408\n      tag_213\n      jump\t// in\n    tag_408:\n        /* \"#utility.yul\":16259:16343   */\n    tag_407:\n        /* \"#utility.yul\":16080:16349   */\n      pop\n        /* \"#utility.yul\":16029:16349   */\n      swap2\n      swap1\n      pop\n      jump\t// out\n        /* \"#utility.yul\":16355:16432   */\n    tag_214:\n        /* \"#utility.yul\":16392:16399   */\n      0x00\n        /* \"#utility.yul\":16421:16426   */\n      dup2\n        /* \"#utility.yul\":16410:16426   */\n      swap1\n      pop\n        /* \"#utility.yul\":16355:16432   */\n      swap2\n      swap1\n      pop\n      jump\t// out\n        /* \"#utility.yul\":16438:16556   */\n    tag_215:\n        /* \"#utility.yul\":16525:16549   */\n      tag_411\n        /* \"#utility.yul\":16543:16548   */\n      dup2\n        /* \"#utility.yul\":16525:16549   */\n      tag_214\n      jump\t// in\n    tag_411:\n        /* \"#utility.yul\":16520:16523   */\n      dup3\n        /* \"#utility.yul\":16513:16550   */\n      mstore\n        /* \"#utility.yul\":16438:16556   */\n      pop\n      pop\n      jump\t// out\n        /* \"#utility.yul\":16562:16663   */\n    tag_216:\n        /* \"#utility.yul\":16598:16605   */\n      0x00\n        /* \"#utility.yul\":16638:16656   */\n      0xffffffffffffffff\n        /* \"#utility.yul\":16631:16636   */\n      dup3\n        /* \"#utility.yul\":16627:16657   */\n      and\n        /* \"#utility.yul\":16616:16657   */\n      swap1\n      pop\n        /* \"#utility.yul\":16562:16663   */\n      swap2\n      swap1\n      pop\n      jump\t// out\n        /* \"#utility.yul\":16669:16784   */\n    tag_217:\n        /* \"#utility.yul\":16754:16777   */\n      tag_414\n        /* \"#utility.yul\":16771:16776   */\n      dup2\n        /* \"#utility.yul\":16754:16777   */\n      tag_216\n      jump\t// in\n    tag_414:\n        /* \"#utility.yul\":16749:16752   */\n      dup3\n        /* \"#utility.yul\":16742:16778   */\n      mstore\n        /* \"#utility.yul\":16669:16784   */\n      pop\n      pop\n      jump\t// out\n        /* \"#utility.yul\":16790:16879   */\n    tag_218:\n        /* \"#utility.yul\":16826:16833   */\n      0x00\n        /* \"#utility.yul\":16866:16872   */\n      0xffff\n        /* \"#utility.yul\":16859:16864   */\n      dup3\n        /* \"#utility.yul\":16855:16873   */\n      and\n        /* \"#utility.yul\":16844:16873   */\n      swap1\n      pop\n        /* \"#utility.yul\":16790:16879   */\n      swap2\n      swap1\n      pop\n      jump\t// out\n        /* \"#utility.yul\":16885:17000   */\n    tag_219:\n        /* \"#utility.yul\":16970:16993   */\n      tag_417\n        /* \"#utility.yul\":16987:16992   */\n      dup2\n        /* \"#utility.yul\":16970:16993   */\n      tag_218\n      jump\t// in\n    tag_417:\n        /* \"#utility.yul\":16965:16968   */\n      dup3\n        /* \"#utility.yul\":16958:16994   */\n      mstore\n        /* \"#utility.yul\":16885:17000   */\n      pop\n      pop\n      jump\t// out\n        /* \"#utility.yul\":17006:17099   */\n    tag_220:\n        /* \"#utility.yul\":17042:17049   */\n      0x00\n        /* \"#utility.yul\":17082:17092   */\n      0xffffffff\n        /* \"#utility.yul\":17075:17080   */\n      dup3\n        /* \"#utility.yul\":17071:17093   */\n      and\n        /* \"#utility.yul\":17060:17093   */\n      swap1\n      pop\n        /* \"#utility.yul\":17006:17099   */\n      swap2\n      swap1\n      pop\n      jump\t// out\n        /* \"#utility.yul\":17105:17220   */\n    tag_221:\n        /* \"#utility.yul\":17190:17213   */\n      tag_420\n        /* \"#utility.yul\":17207:17212   */\n      dup2\n        /* \"#utility.yul\":17190:17213   */\n      tag_220\n      jump\t// in\n    tag_420:\n        /* \"#utility.yul\":17185:17188   */\n      dup3\n        /* \"#utility.yul\":17178:17214   */\n      mstore\n        /* \"#utility.yul\":17105:17220   */\n      pop\n      pop\n      jump\t// out\n        /* \"#utility.yul\":17226:17874   */\n    tag_109:\n        /* \"#utility.yul\":17423:17427   */\n      0x00\n        /* \"#utility.yul\":17461:17464   */\n      0xa0\n        /* \"#utility.yul\":17450:17459   */\n      dup3\n        /* \"#utility.yul\":17446:17465   */\n      add\n        /* \"#utility.yul\":17438:17465   */\n      swap1\n      pop\n        /* \"#utility.yul\":17475:17546   */\n      tag_422\n        /* \"#utility.yul\":17543:17544   */\n      0x00\n        /* \"#utility.yul\":17532:17541   */\n      dup4\n        /* \"#utility.yul\":17528:17545   */\n      add\n        /* \"#utility.yul\":17519:17525   */\n      dup9\n        /* \"#utility.yul\":17475:17546   */\n      tag_215\n      jump\t// in\n    tag_422:\n        /* \"#utility.yul\":17556:17626   */\n      tag_423\n        /* \"#utility.yul\":17622:17624   */\n      0x20\n        /* \"#utility.yul\":17611:17620   */\n      dup4\n        /* \"#utility.yul\":17607:17625   */\n      add\n        /* \"#utility.yul\":17598:17604   */\n      dup8\n        /* \"#utility.yul\":17556:17626   */\n      tag_217\n      jump\t// in\n    tag_423:\n        /* \"#utility.yul\":17636:17706   */\n      tag_424\n        /* \"#utility.yul\":17702:17704   */\n      0x40\n        /* \"#utility.yul\":17691:17700   */\n      dup4\n        /* \"#utility.yul\":17687:17705   */\n      add\n        /* \"#utility.yul\":17678:17684   */\n      dup7\n        /* \"#utility.yul\":17636:17706   */\n      tag_219\n      jump\t// in\n    tag_424:\n        /* \"#utility.yul\":17716:17786   */\n      tag_425\n        /* \"#utility.yul\":17782:17784   */\n      0x60\n        /* \"#utility.yul\":17771:17780   */\n      dup4\n        /* \"#utility.yul\":17767:17785   */\n      add\n        /* \"#utility.yul\":17758:17764   */\n      dup6\n        /* \"#utility.yul\":17716:17786   */\n      tag_221\n      jump\t// in\n    tag_425:\n        /* \"#utility.yul\":17796:17867   */\n      tag_426\n        /* \"#utility.yul\":17862:17865   */\n      0x80\n        /* \"#utility.yul\":17851:17860   */\n      dup4\n        /* \"#utility.yul\":17847:17866   */\n      add\n        /* \"#utility.yul\":17838:17844   */\n      dup5\n        /* \"#utility.yul\":17796:17867   */\n      tag_221\n      jump\t// in\n    tag_426:\n        /* \"#utility.yul\":17226:17874   */\n      swap7\n      swap6\n      pop\n      pop\n      pop\n      pop\n      pop\n      pop\n      jump\t// out\n        /* \"#utility.yul\":17880:18023   */\n    tag_222:\n        /* \"#utility.yul\":17937:17942   */\n      0x00\n        /* \"#utility.yul\":17968:17974   */\n      dup2\n        /* \"#utility.yul\":17962:17975   */\n      mload\n        /* \"#utility.yul\":17953:17975   */\n      swap1\n      pop\n        /* \"#utility.yul\":17984:18017   */\n      tag_428\n        /* \"#utility.yul\":18011:18016   */\n      dup2\n        /* \"#utility.yul\":17984:18017   */\n      tag_175\n      jump\t// in\n    tag_428:\n        /* \"#utility.yul\":17880:18023   */\n      swap3\n      swap2\n      pop\n      pop\n      jump\t// out\n        /* \"#utility.yul\":18029:18380   */\n    tag_113:\n        /* \"#utility.yul\":18099:18105   */\n      0x00\n        /* \"#utility.yul\":18148:18150   */\n      0x20\n        /* \"#utility.yul\":18136:18145   */\n      dup3\n        /* \"#utility.yul\":18127:18134   */\n      dup5\n        /* \"#utility.yul\":18123:18146   */\n      sub\n        /* \"#utility.yul\":18119:18151   */\n      slt\n        /* \"#utility.yul\":18116:18235   */\n      iszero\n      tag_430\n      jumpi\n        /* \"#utility.yul\":18154:18233   */\n      tag_431\n      tag_172\n      jump\t// in\n    tag_431:\n        /* \"#utility.yul\":18116:18235   */\n    tag_430:\n        /* \"#utility.yul\":18274:18275   */\n      0x00\n        /* \"#utility.yul\":18299:18363   */\n      tag_432\n        /* \"#utility.yul\":18355:18362   */\n      dup5\n        /* \"#utility.yul\":18346:18352   */\n      dup3\n        /* \"#utility.yul\":18335:18344   */\n      dup6\n        /* \"#utility.yul\":18331:18353   */\n      add\n        /* \"#utility.yul\":18299:18363   */\n      tag_222\n      jump\t// in\n    tag_432:\n        /* \"#utility.yul\":18289:18363   */\n      swap2\n      pop\n        /* \"#utility.yul\":18245:18373   */\n      pop\n        /* \"#utility.yul\":18029:18380   */\n      swap3\n      swap2\n      pop\n      pop\n      jump\t// out\n        /* \"#utility.yul\":18386:18566   */\n    tag_223:\n        /* \"#utility.yul\":18434:18511   */\n      0x4e487b7100000000000000000000000000000000000000000000000000000000\n        /* \"#utility.yul\":18431:18432   */\n      0x00\n        /* \"#utility.yul\":18424:18512   */\n      mstore\n        /* \"#utility.yul\":18531:18535   */\n      0x11\n        /* \"#utility.yul\":18528:18529   */\n      0x04\n        /* \"#utility.yul\":18521:18536   */\n      mstore\n        /* \"#utility.yul\":18555:18559   */\n      0x24\n        /* \"#utility.yul\":18552:18553   */\n      0x00\n        /* \"#utility.yul\":18545:18560   */\n      revert\n        /* \"#utility.yul\":18572:18805   */\n    tag_126:\n        /* \"#utility.yul\":18611:18614   */\n      0x00\n        /* \"#utility.yul\":18634:18658   */\n      tag_435\n        /* \"#utility.yul\":18652:18657   */\n      dup3\n        /* \"#utility.yul\":18634:18658   */\n      tag_174\n      jump\t// in\n    tag_435:\n        /* \"#utility.yul\":18625:18658   */\n      swap2\n      pop\n        /* \"#utility.yul\":18680:18746   */\n      0xffffffffffffffffffffffffffffffffffffffffffffffffffffffffffffffff\n        /* \"#utility.yul\":18673:18678   */\n      dup3\n        /* \"#utility.yul\":18670:18747   */\n      sub\n        /* \"#utility.yul\":18667:18770   */\n      tag_436\n      jumpi\n        /* \"#utility.yul\":18750:18768   */\n      tag_437\n      tag_223\n      jump\t// in\n    tag_437:\n        /* \"#utility.yul\":18667:18770   */\n    tag_436:\n        /* \"#utility.yul\":18797:18798   */\n      0x01\n        /* \"#utility.yul\":18790:18795   */\n      dup3\n        /* \"#utility.yul\":18786:18799   */\n      add\n        /* \"#utility.yul\":18779:18799   */\n      swap1\n      pop\n        /* \"#utility.yul\":18572:18805   */\n      swap2\n      swap1\n      pop\n      jump\t// out\n        /* \"#utility.yul\":18811:19132   */\n    tag_224:\n        /* \"#utility.yul\":18898:18902   */\n      0x00\n        /* \"#utility.yul\":18988:19006   */\n      0xffffffffffffffff\n        /* \"#utility.yul\":18980:18986   */\n      dup3\n        /* \"#utility.yul\":18977:19007   */\n      gt\n        /* \"#utility.yul\":18974:19030   */\n      iszero\n      tag_439\n      jumpi\n        /* \"#utility.yul\":19010:19028   */\n      tag_440\n      tag_179\n      jump\t// in\n    tag_440:\n        /* \"#utility.yul\":18974:19030   */\n    tag_439:\n        /* \"#utility.yul\":19060:19064   */\n      0x20\n        /* \"#utility.yul\":19052:19058   */\n      dup3\n        /* \"#utility.yul\":19048:19065   */\n      mul\n        /* \"#utility.yul\":19040:19065   */\n      swap1\n      pop\n        /* \"#utility.yul\":19120:19124   */\n      0x20\n        /* \"#utility.yul\":19114:19118   */\n      dup2\n        /* \"#utility.yul\":19110:19125   */\n      add\n        /* \"#utility.yul\":19102:19125   */\n      swap1\n      pop\n        /* \"#utility.yul\":18811:19132   */\n      swap2\n      swap1\n      pop\n      jump\t// out\n        /* \"#utility.yul\":19138:19255   */\n    tag_225:\n        /* \"#utility.yul\":19247:19248   */\n      0x00\n        /* \"#utility.yul\":19244:19245   */\n      dup1\n        /* \"#utility.yul\":19237:19249   */\n      revert\n        /* \"#utility.yul\":19261:19569   */\n    tag_226:\n        /* \"#utility.yul\":19323:19327   */\n      0x00\n        /* \"#utility.yul\":19413:19431   */\n      0xffffffffffffffff\n        /* \"#utility.yul\":19405:19411   */\n      dup3\n        /* \"#utility.yul\":19402:19432   */\n      gt\n        /* \"#utility.yul\":19399:19455   */\n      iszero\n      tag_443\n      jumpi\n        /* \"#utility.yul\":19435:19453   */\n      tag_444\n      tag_179\n      jump\t// in\n    tag_444:\n        /* \"#utility.yul\":19399:19455   */\n    tag_443:\n        /* \"#utility.yul\":19473:19502   */\n      tag_445\n        /* \"#utility.yul\":19495:19501   */\n      dup3\n        /* \"#utility.yul\":19473:19502   */\n      tag_178\n      jump\t// in\n    tag_445:\n        /* \"#utility.yul\":19465:19502   */\n      swap1\n      pop\n        /* \"#utility.yul\":19557:19561   */\n      0x20\n        /* \"#utility.yul\":19551:19555   */\n      dup2\n        /* \"#utility.yul\":19547:19562   */\n      add\n        /* \"#utility.yul\":19539:19562   */\n      swap1\n      pop\n        /* \"#utility.yul\":19261:19569   */\n      swap2\n      swap1\n      pop\n      jump\t// out\n        /* \"#utility.yul\":19575:19721   */\n    tag_227:\n        /* \"#utility.yul\":19672:19678   */\n      dup3\n        /* \"#utility.yul\":19667:19670   */\n      dup2\n        /* \"#utility.yul\":19662:19665   */\n      dup4\n        /* \"#utility.yul\":19649:19679   */\n      calldatacopy\n        /* \"#utility.yul\":19713:19714   */\n      0x00\n        /* \"#utility.yul\":19704:19710   */\n      dup4\n        /* \"#utility.yul\":19699:19702   */\n      dup4\n        /* \"#utility.yul\":19695:19711   */\n      add\n        /* \"#utility.yul\":19688:19715   */\n      mstore\n        /* \"#utility.yul\":19575:19721   */\n      pop\n      pop\n      pop\n      jump\t// out\n        /* \"#utility.yul\":19727:20152   */\n    tag_228:\n        /* \"#utility.yul\":19805:19810   */\n      0x00\n        /* \"#utility.yul\":19830:19896   */\n      tag_448\n        /* \"#utility.yul\":19846:19895   */\n      tag_449\n        /* \"#utility.yul\":19888:19894   */\n      dup5\n        /* \"#utility.yul\":19846:19895   */\n      tag_226\n      jump\t// in\n    tag_449:\n        /* \"#utility.yul\":19830:19896   */\n      tag_181\n      jump\t// in\n    tag_448:\n        /* \"#utility.yul\":19821:19896   */\n      swap1\n      pop\n        /* \"#utility.yul\":19919:19925   */\n      dup3\n        /* \"#utility.yul\":19912:19917   */\n      dup2\n        /* \"#utility.yul\":19905:19926   */\n      mstore\n        /* \"#utility.yul\":19957:19961   */\n      0x20\n        /* \"#utility.yul\":19950:19955   */\n      dup2\n        /* \"#utility.yul\":19946:19962   */\n      add\n        /* \"#utility.yul\":19995:19998   */\n      dup5\n        /* \"#utility.yul\":19986:19992   */\n      dup5\n        /* \"#utility.yul\":19981:19984   */\n      dup5\n        /* \"#utility.yul\":19977:19993   */\n      add\n        /* \"#utility.yul\":19974:19999   */\n      gt\n        /* \"#utility.yul\":19971:20083   */\n      iszero\n      tag_450\n      jumpi\n        /* \"#utility.yul\":20002:20081   */\n      tag_451\n      tag_225\n      jump\t// in\n    tag_451:\n        /* \"#utility.yul\":19971:20083   */\n    tag_450:\n        /* \"#utility.yul\":20092:20146   */\n      tag_452\n        /* \"#utility.yul\":20139:20145   */\n      dup5\n        /* \"#utility.yul\":20134:20137   */\n      dup3\n        /* \"#utility.yul\":20129:20132   */\n      dup6\n        /* \"#utility.yul\":20092:20146   */\n      tag_227\n      jump\t// in\n    tag_452:\n        /* \"#utility.yul\":19811:20152   */\n      pop\n        /* \"#utility.yul\":19727:20152   */\n      swap4\n      swap3\n      pop\n      pop\n      pop\n      jump\t// out\n        /* \"#utility.yul\":20172:20512   */\n    tag_229:\n        /* \"#utility.yul\":20228:20233   */\n      0x00\n        /* \"#utility.yul\":20277:20280   */\n      dup3\n        /* \"#utility.yul\":20270:20274   */\n      0x1f\n        /* \"#utility.yul\":20262:20268   */\n      dup4\n        /* \"#utility.yul\":20258:20275   */\n      add\n        /* \"#utility.yul\":20254:20281   */\n      slt\n        /* \"#utility.yul\":20244:20366   */\n      tag_454\n      jumpi\n        /* \"#utility.yul\":20285:20364   */\n      tag_455\n      tag_177\n      jump\t// in\n    tag_455:\n        /* \"#utility.yul\":20244:20366   */\n    tag_454:\n        /* \"#utility.yul\":20402:20408   */\n      dup2\n        /* \"#utility.yul\":20389:20409   */\n      calldataload\n        /* \"#utility.yul\":20427:20506   */\n      tag_456\n        /* \"#utility.yul\":20502:20505   */\n      dup5\n        /* \"#utility.yul\":20494:20500   */\n      dup3\n        /* \"#utility.yul\":20487:20491   */\n      0x20\n        /* \"#utility.yul\":20479:20485   */\n      dup7\n        /* \"#utility.yul\":20475:20492   */\n      add\n        /* \"#utility.yul\":20427:20506   */\n      tag_228\n      jump\t// in\n    tag_456:\n        /* \"#utility.yul\":20418:20506   */\n      swap2\n      pop\n        /* \"#utility.yul\":20234:20512   */\n      pop\n        /* \"#utility.yul\":20172:20512   */\n      swap3\n      swap2\n      pop\n      pop\n      jump\t// out\n        /* \"#utility.yul\":20534:21479   */\n    tag_230:\n        /* \"#utility.yul\":20640:20645   */\n      0x00\n        /* \"#utility.yul\":20665:20756   */\n      tag_458\n        /* \"#utility.yul\":20681:20755   */\n      tag_459\n        /* \"#utility.yul\":20748:20754   */\n      dup5\n        /* \"#utility.yul\":20681:20755   */\n      tag_224\n      jump\t// in\n    tag_459:\n        /* \"#utility.yul\":20665:20756   */\n      tag_181\n      jump\t// in\n    tag_458:\n        /* \"#utility.yul\":20656:20756   */\n      swap1\n      pop\n        /* \"#utility.yul\":20776:20781   */\n      dup1\n        /* \"#utility.yul\":20805:20811   */\n      dup4\n        /* \"#utility.yul\":20798:20803   */\n      dup3\n        /* \"#utility.yul\":20791:20812   */\n      mstore\n        /* \"#utility.yul\":20839:20843   */\n      0x20\n        /* \"#utility.yul\":20832:20837   */\n      dup3\n        /* \"#utility.yul\":20828:20844   */\n      add\n        /* \"#utility.yul\":20821:20844   */\n      swap1\n      pop\n        /* \"#utility.yul\":20892:20896   */\n      0x20\n        /* \"#utility.yul\":20884:20890   */\n      dup5\n        /* \"#utility.yul\":20880:20897   */\n      mul\n        /* \"#utility.yul\":20872:20878   */\n      dup4\n        /* \"#utility.yul\":20868:20898   */\n      add\n        /* \"#utility.yul\":20921:20924   */\n      dup6\n        /* \"#utility.yul\":20913:20919   */\n      dup2\n        /* \"#utility.yul\":20910:20925   */\n      gt\n        /* \"#utility.yul\":20907:21029   */\n      iszero\n      tag_460\n      jumpi\n        /* \"#utility.yul\":20940:21019   */\n      tag_461\n      tag_183\n      jump\t// in\n    tag_461:\n        /* \"#utility.yul\":20907:21029   */\n    tag_460:\n        /* \"#utility.yul\":21055:21061   */\n      dup4\n        /* \"#utility.yul\":21038:21473   */\n    tag_462:\n        /* \"#utility.yul\":21072:21078   */\n      dup2\n        /* \"#utility.yul\":21067:21070   */\n      dup2\n        /* \"#utility.yul\":21064:21079   */\n      lt\n        /* \"#utility.yul\":21038:21473   */\n      iszero\n      tag_464\n      jumpi\n        /* \"#utility.yul\":21161:21164   */\n      dup1\n        /* \"#utility.yul\":21148:21165   */\n      calldataload\n        /* \"#utility.yul\":21197:21215   */\n      0xffffffffffffffff\n        /* \"#utility.yul\":21184:21195   */\n      dup2\n        /* \"#utility.yul\":21181:21216   */\n      gt\n        /* \"#utility.yul\":21178:21300   */\n      iszero\n      tag_465\n      jumpi\n        /* \"#utility.yul\":21219:21298   */\n      tag_466\n      tag_177\n      jump\t// in\n    tag_466:\n        /* \"#utility.yul\":21178:21300   */\n    tag_465:\n        /* \"#utility.yul\":21343:21354   */\n      dup1\n        /* \"#utility.yul\":21335:21341   */\n      dup7\n        /* \"#utility.yul\":21331:21355   */\n      add\n        /* \"#utility.yul\":21381:21428   */\n      tag_467\n        /* \"#utility.yul\":21424:21427   */\n      dup10\n        /* \"#utility.yul\":21412:21422   */\n      dup3\n        /* \"#utility.yul\":21381:21428   */\n      tag_229\n      jump\t// in\n    tag_467:\n        /* \"#utility.yul\":21376:21379   */\n      dup6\n        /* \"#utility.yul\":21369:21429   */\n      mstore\n        /* \"#utility.yul\":21458:21462   */\n      0x20\n        /* \"#utility.yul\":21453:21456   */\n      dup6\n        /* \"#utility.yul\":21449:21463   */\n      add\n        /* \"#utility.yul\":21442:21463   */\n      swap5\n      pop\n        /* \"#utility.yul\":21114:21473   */\n      pop\n      pop\n        /* \"#utility.yul\":21098:21102   */\n      0x20\n        /* \"#utility.yul\":21093:21096   */\n      dup2\n        /* \"#utility.yul\":21089:21103   */\n      add\n        /* \"#utility.yul\":21082:21103   */\n      swap1\n      pop\n        /* \"#utility.yul\":21038:21473   */\n      jump(tag_462)\n    tag_464:\n        /* \"#utility.yul\":21042:21063   */\n      pop\n        /* \"#utility.yul\":20646:21479   */\n      pop\n      pop\n        /* \"#utility.yul\":20534:21479   */\n      swap4\n      swap3\n      pop\n      pop\n      pop\n      jump\t// out\n        /* \"#utility.yul\":21485:21832   */\n    tag_129:\n        /* \"#utility.yul\":21623:21632   */\n      0x00\n        /* \"#utility.yul\":21722:21825   */\n      tag_469\n        /* \"#utility.yul\":21810:21824   */\n      calldatasize\n        /* \"#utility.yul\":21802:21808   */\n      dup5\n        /* \"#utility.yul\":21795:21800   */\n      dup5\n        /* \"#utility.yul\":21722:21825   */\n      tag_230\n      jump\t// in\n    tag_469:\n        /* \"#utility.yul\":21700:21825   */\n      swap1\n      pop\n        /* \"#utility.yul\":21485:21832   */\n      swap3\n      swap2\n      pop\n      pop\n      jump\t// out\n        /* \"#utility.yul\":21838:22018   */\n    tag_147:\n        /* \"#utility.yul\":21886:21963   */\n      0x4e487b7100000000000000000000000000000000000000000000000000000000\n        /* \"#utility.yul\":21883:21884   */\n      0x00\n        /* \"#utility.yul\":21876:21964   */\n      mstore\n        /* \"#utility.yul\":21983:21987   */\n      0x32\n        /* \"#utility.yul\":21980:21981   */\n      0x04\n        /* \"#utility.yul\":21973:21988   */\n      mstore\n        /* \"#utility.yul\":22007:22011   */\n      0x24\n        /* \"#utility.yul\":22004:22005   */\n      0x00\n        /* \"#utility.yul\":21997:22012   */\n      revert\n        /* \"#utility.yul\":22024:22204   */\n    tag_231:\n        /* \"#utility.yul\":22072:22149   */\n      0x4e487b7100000000000000000000000000000000000000000000000000000000\n        /* \"#utility.yul\":22069:22070   */\n      0x00\n        /* \"#utility.yul\":22062:22150   */\n      mstore\n        /* \"#utility.yul\":22169:22173   */\n      0x12\n        /* \"#utility.yul\":22166:22167   */\n      0x04\n        /* \"#utility.yul\":22159:22174   */\n      mstore\n        /* \"#utility.yul\":22193:22197   */\n      0x24\n        /* \"#utility.yul\":22190:22191   */\n      0x00\n        /* \"#utility.yul\":22183:22198   */\n      revert\n        /* \"#utility.yul\":22210:22386   */\n    tag_149:\n        /* \"#utility.yul\":22242:22243   */\n      0x00\n        /* \"#utility.yul\":22259:22279   */\n      tag_473\n        /* \"#utility.yul\":22277:22278   */\n      dup3\n        /* \"#utility.yul\":22259:22279   */\n      tag_174\n      jump\t// in\n    tag_473:\n        /* \"#utility.yul\":22254:22279   */\n      swap2\n      pop\n        /* \"#utility.yul\":22293:22313   */\n      tag_474\n        /* \"#utility.yul\":22311:22312   */\n      dup4\n        /* \"#utility.yul\":22293:22313   */\n      tag_174\n      jump\t// in\n    tag_474:\n        /* \"#utility.yul\":22288:22313   */\n      swap3\n      pop\n        /* \"#utility.yul\":22332:22333   */\n      dup3\n        /* \"#utility.yul\":22322:22357   */\n      tag_475\n      jumpi\n        /* \"#utility.yul\":22337:22355   */\n      tag_476\n      tag_231\n      jump\t// in\n    tag_476:\n        /* \"#utility.yul\":22322:22357   */\n    tag_475:\n        /* \"#utility.yul\":22378:22379   */\n      dup3\n        /* \"#utility.yul\":22375:22376   */\n      dup3\n        /* \"#utility.yul\":22371:22380   */\n      mod\n        /* \"#utility.yul\":22366:22380   */\n      swap1\n      pop\n        /* \"#utility.yul\":22210:22386   */\n      swap3\n      swap2\n      pop\n      pop\n      jump\t// out\n        /* \"#utility.yul\":22392:22583   */\n    tag_151:\n        /* \"#utility.yul\":22432:22435   */\n      0x00\n        /* \"#utility.yul\":22451:22471   */\n      tag_478\n        /* \"#utility.yul\":22469:22470   */\n      dup3\n        /* \"#utility.yul\":22451:22471   */\n      tag_174\n      jump\t// in\n    tag_478:\n        /* \"#utility.yul\":22446:22471   */\n      swap2\n      pop\n        /* \"#utility.yul\":22485:22505   */\n      tag_479\n        /* \"#utility.yul\":22503:22504   */\n      dup4\n        /* \"#utility.yul\":22485:22505   */\n      tag_174\n      jump\t// in\n    tag_479:\n        /* \"#utility.yul\":22480:22505   */\n      swap3\n      pop\n        /* \"#utility.yul\":22528:22529   */\n      dup3\n        /* \"#utility.yul\":22525:22526   */\n      dup3\n        /* \"#utility.yul\":22521:22530   */\n      add\n        /* \"#utility.yul\":22514:22530   */\n      swap1\n      pop\n        /* \"#utility.yul\":22549:22552   */\n      dup1\n        /* \"#utility.yul\":22546:22547   */\n      dup3\n        /* \"#utility.yul\":22543:22553   */\n      gt\n        /* \"#utility.yul\":22540:22576   */\n      iszero\n      tag_480\n      jumpi\n        /* \"#utility.yul\":22556:22574   */\n      tag_481\n      tag_223\n      jump\t// in\n    tag_481:\n        /* \"#utility.yul\":22540:22576   */\n    tag_480:\n        /* \"#utility.yul\":22392:22583   */\n      swap3\n      swap2\n      pop\n      pop\n      jump\t// out\n        /* \"#utility.yul\":22589:22730   */\n    tag_232:\n        /* \"#utility.yul\":22638:22642   */\n      0x00\n        /* \"#utility.yul\":22661:22664   */\n      dup2\n        /* \"#utility.yul\":22653:22664   */\n      swap1\n      pop\n        /* \"#utility.yul\":22684:22687   */\n      dup2\n        /* \"#utility.yul\":22681:22682   */\n      0x00\n        /* \"#utility.yul\":22674:22688   */\n      mstore\n        /* \"#utility.yul\":22718:22722   */\n      0x20\n        /* \"#utility.yul\":22715:22716   */\n      0x00\n        /* \"#utility.yul\":22705:22723   */\n      keccak256\n        /* \"#utility.yul\":22697:22723   */\n      swap1\n      pop\n        /* \"#utility.yul\":22589:22730   */\n      swap2\n      swap1\n      pop\n      jump\t// out\n        /* \"#utility.yul\":22736:22829   */\n    tag_233:\n        /* \"#utility.yul\":22773:22779   */\n      0x00\n        /* \"#utility.yul\":22820:22822   */\n      0x20\n        /* \"#utility.yul\":22815:22817   */\n      0x1f\n        /* \"#utility.yul\":22808:22813   */\n      dup4\n        /* \"#utility.yul\":22804:22818   */\n      add\n        /* \"#utility.yul\":22800:22823   */\n      div\n        /* \"#utility.yul\":22790:22823   */\n      swap1\n      pop\n        /* \"#utility.yul\":22736:22829   */\n      swap2\n      swap1\n      pop\n      jump\t// out\n        /* \"#utility.yul\":22835:22942   */\n    tag_234:\n        /* \"#utility.yul\":22879:22887   */\n      0x00\n        /* \"#utility.yul\":22929:22934   */\n      dup3\n        /* \"#utility.yul\":22923:22927   */\n      dup3\n        /* \"#utility.yul\":22919:22935   */\n      shl\n        /* \"#utility.yul\":22898:22935   */\n      swap1\n      pop\n        /* \"#utility.yul\":22835:22942   */\n      swap3\n      swap2\n      pop\n      pop\n      jump\t// out\n        /* \"#utility.yul\":22948:23341   */\n    tag_235:\n        /* \"#utility.yul\":23017:23023   */\n      0x00\n        /* \"#utility.yul\":23067:23068   */\n      0x08\n        /* \"#utility.yul\":23055:23065   */\n      dup4\n        /* \"#utility.yul\":23051:23069   */\n      mul\n        /* \"#utility.yul\":23090:23187   */\n      tag_486\n        /* \"#utility.yul\":23120:23186   */\n      0xffffffffffffffffffffffffffffffffffffffffffffffffffffffffffffffff\n        /* \"#utility.yul\":23109:23118   */\n      dup3\n        /* \"#utility.yul\":23090:23187   */\n      tag_234\n      jump\t// in\n    tag_486:\n        /* \"#utility.yul\":23208:23247   */\n      tag_487\n        /* \"#utility.yul\":23238:23246   */\n      dup7\n        /* \"#utility.yul\":23227:23236   */\n      dup4\n        /* \"#utility.yul\":23208:23247   */\n      tag_234\n      jump\t// in\n    tag_487:\n        /* \"#utility.yul\":23196:23247   */\n      swap6\n      pop\n        /* \"#utility.yul\":23280:23284   */\n      dup1\n        /* \"#utility.yul\":23276:23285   */\n      not\n        /* \"#utility.yul\":23269:23274   */\n      dup5\n        /* \"#utility.yul\":23265:23286   */\n      and\n        /* \"#utility.yul\":23256:23286   */\n      swap4\n      pop\n        /* \"#utility.yul\":23329:23333   */\n      dup1\n        /* \"#utility.yul\":23319:23327   */\n      dup7\n        /* \"#utility.yul\":23315:23334   */\n      and\n        /* \"#utility.yul\":23308:23313   */\n      dup5\n        /* \"#utility.yul\":23305:23335   */\n      or\n        /* \"#utility.yul\":23295:23335   */\n      swap3\n      pop\n        /* \"#utility.yul\":23024:23341   */\n      pop\n      pop\n        /* \"#utility.yul\":22948:23341   */\n      swap4\n      swap3\n      pop\n      pop\n      pop\n      jump\t// out\n        /* \"#utility.yul\":23347:23407   */\n    tag_236:\n        /* \"#utility.yul\":23375:23378   */\n      0x00\n        /* \"#utility.yul\":23396:23401   */\n      dup2\n        /* \"#utility.yul\":23389:23401   */\n      swap1\n      pop\n        /* \"#utility.yul\":23347:23407   */\n      swap2\n      swap1\n      pop\n      jump\t// out\n        /* \"#utility.yul\":23413:23555   */\n    tag_237:\n        /* \"#utility.yul\":23463:23472   */\n      0x00\n        /* \"#utility.yul\":23496:23549   */\n      tag_490\n        /* \"#utility.yul\":23514:23548   */\n      tag_491\n        /* \"#utility.yul\":23523:23547   */\n      tag_492\n        /* \"#utility.yul\":23541:23546   */\n      dup5\n        /* \"#utility.yul\":23523:23547   */\n      tag_174\n      jump\t// in\n    tag_492:\n        /* \"#utility.yul\":23514:23548   */\n      tag_236\n      jump\t// in\n    tag_491:\n        /* \"#utility.yul\":23496:23549   */\n      tag_174\n      jump\t// in\n    tag_490:\n        /* \"#utility.yul\":23483:23549   */\n      swap1\n      pop\n        /* \"#utility.yul\":23413:23555   */\n      swap2\n      swap1\n      pop\n      jump\t// out\n        /* \"#utility.yul\":23561:23636   */\n    tag_238:\n        /* \"#utility.yul\":23604:23607   */\n      0x00\n        /* \"#utility.yul\":23625:23630   */\n      dup2\n        /* \"#utility.yul\":23618:23630   */\n      swap1\n      pop\n        /* \"#utility.yul\":23561:23636   */\n      swap2\n      swap1\n      pop\n      jump\t// out\n        /* \"#utility.yul\":23642:23911   */\n    tag_239:\n        /* \"#utility.yul\":23752:23791   */\n      tag_495\n        /* \"#utility.yul\":23783:23790   */\n      dup4\n        /* \"#utility.yul\":23752:23791   */\n      tag_237\n      jump\t// in\n    tag_495:\n        /* \"#utility.yul\":23813:23904   */\n      tag_496\n        /* \"#utility.yul\":23862:23903   */\n      tag_497\n        /* \"#utility.yul\":23886:23902   */\n      dup3\n        /* \"#utility.yul\":23862:23903   */\n      tag_238\n      jump\t// in\n    tag_497:\n        /* \"#utility.yul\":23854:23860   */\n      dup5\n        /* \"#utility.yul\":23847:23851   */\n      dup5\n        /* \"#utility.yul\":23841:23852   */\n      sload\n        /* \"#utility.yul\":23813:23904   */\n      tag_235\n      jump\t// in\n    tag_496:\n        /* \"#utility.yul\":23807:23811   */\n      dup3\n        /* \"#utility.yul\":23800:23905   */\n      sstore\n        /* \"#utility.yul\":23718:23911   */\n      pop\n        /* \"#utility.yul\":23642:23911   */\n      pop\n      pop\n      pop\n      jump\t// out\n        /* \"#utility.yul\":23917:23990   */\n    tag_240:\n        /* \"#utility.yul\":23962:23965   */\n      0x00\n        /* \"#utility.yul\":23917:23990   */\n      swap1\n      jump\t// out\n        /* \"#utility.yul\":23996:24185   */\n    tag_241:\n        /* \"#utility.yul\":24073:24105   */\n      tag_500\n      tag_240\n      jump\t// in\n    tag_500:\n        /* \"#utility.yul\":24114:24179   */\n      tag_501\n        /* \"#utility.yul\":24172:24178   */\n      dup2\n        /* \"#utility.yul\":24164:24170   */\n      dup5\n        /* \"#utility.yul\":24158:24162   */\n      dup5\n        /* \"#utility.yul\":24114:24179   */\n      tag_239\n      jump\t// in\n    tag_501:\n        /* \"#utility.yul\":24049:24185   */\n      pop\n        /* \"#utility.yul\":23996:24185   */\n      pop\n      pop\n      jump\t// out\n        /* \"#utility.yul\":24191:24377   */\n    tag_242:\n        /* \"#utility.yul\":24251:24371   */\n    tag_503:\n        /* \"#utility.yul\":24268:24271   */\n      dup2\n        /* \"#utility.yul\":24261:24266   */\n      dup2\n        /* \"#utility.yul\":24258:24272   */\n      lt\n        /* \"#utility.yul\":24251:24371   */\n      iszero\n      tag_505\n      jumpi\n        /* \"#utility.yul\":24322:24361   */\n      tag_506\n        /* \"#utility.yul\":24359:24360   */\n      0x00\n        /* \"#utility.yul\":24352:24357   */\n      dup3\n        /* \"#utility.yul\":24322:24361   */\n      tag_241\n      jump\t// in\n    tag_506:\n        /* \"#utility.yul\":24295:24296   */\n      0x01\n        /* \"#utility.yul\":24288:24293   */\n      dup2\n        /* \"#utility.yul\":24284:24297   */\n      add\n        /* \"#utility.yul\":24275:24297   */\n      swap1\n      pop\n        /* \"#utility.yul\":24251:24371   */\n      jump(tag_503)\n    tag_505:\n        /* \"#utility.yul\":24191:24377   */\n      pop\n      pop\n      jump\t// out\n        /* \"#utility.yul\":24383:24926   */\n    tag_243:\n        /* \"#utility.yul\":24484:24486   */\n      0x1f\n        /* \"#utility.yul\":24479:24482   */\n      dup3\n        /* \"#utility.yul\":24476:24487   */\n      gt\n        /* \"#utility.yul\":24473:24919   */\n      iszero\n      tag_508\n      jumpi\n        /* \"#utility.yul\":24518:24556   */\n      tag_509\n        /* \"#utility.yul\":24550:24555   */\n      dup2\n        /* \"#utility.yul\":24518:24556   */\n      tag_232\n      jump\t// in\n    tag_509:\n        /* \"#utility.yul\":24602:24631   */\n      tag_510\n        /* \"#utility.yul\":24620:24630   */\n      dup5\n        /* \"#utility.yul\":24602:24631   */\n      tag_233\n      jump\t// in\n    tag_510:\n        /* \"#utility.yul\":24592:24600   */\n      dup2\n        /* \"#utility.yul\":24588:24632   */\n      add\n        /* \"#utility.yul\":24785:24787   */\n      0x20\n        /* \"#utility.yul\":24773:24783   */\n      dup6\n        /* \"#utility.yul\":24770:24788   */\n      lt\n        /* \"#utility.yul\":24767:24816   */\n      iszero\n      tag_511\n      jumpi\n        /* \"#utility.yul\":24806:24814   */\n      dup2\n        /* \"#utility.yul\":24791:24814   */\n      swap1\n      pop\n        /* \"#utility.yul\":24767:24816   */\n    tag_511:\n        /* \"#utility.yul\":24829:24909   */\n      tag_512\n        /* \"#utility.yul\":24885:24907   */\n      tag_513\n        /* \"#utility.yul\":24903:24906   */\n      dup6\n        /* \"#utility.yul\":24885:24907   */\n      tag_233\n      jump\t// in\n    tag_513:\n        /* \"#utility.yul\":24875:24883   */\n      dup4\n        /* \"#utility.yul\":24871:24908   */\n      add\n        /* \"#utility.yul\":24858:24869   */\n      dup3\n        /* \"#utility.yul\":24829:24909   */\n      tag_242\n      jump\t// in\n    tag_512:\n        /* \"#utility.yul\":24488:24919   */\n      pop\n      pop\n        /* \"#utility.yul\":24473:24919   */\n    tag_508:\n        /* \"#utility.yul\":24383:24926   */\n      pop\n      pop\n      pop\n      jump\t// out\n        /* \"#utility.yul\":24932:25049   */\n    tag_244:\n        /* \"#utility.yul\":24986:24994   */\n      0x00\n        /* \"#utility.yul\":25036:25041   */\n      dup3\n        /* \"#utility.yul\":25030:25034   */\n      dup3\n        /* \"#utility.yul\":25026:25042   */\n      shr\n        /* \"#utility.yul\":25005:25042   */\n      swap1\n      pop\n        /* \"#utility.yul\":24932:25049   */\n      swap3\n      swap2\n      pop\n      pop\n      jump\t// out\n        /* \"#utility.yul\":25055:25224   */\n    tag_245:\n        /* \"#utility.yul\":25099:25105   */\n      0x00\n        /* \"#utility.yul\":25132:25183   */\n      tag_516\n        /* \"#utility.yul\":25180:25181   */\n      0x00\n        /* \"#utility.yul\":25176:25182   */\n      not\n        /* \"#utility.yul\":25168:25173   */\n      dup5\n        /* \"#utility.yul\":25165:25166   */\n      0x08\n        /* \"#utility.yul\":25161:25174   */\n      mul\n        /* \"#utility.yul\":25132:25183   */\n      tag_244\n      jump\t// in\n    tag_516:\n        /* \"#utility.yul\":25128:25184   */\n      not\n        /* \"#utility.yul\":25213:25217   */\n      dup1\n        /* \"#utility.yul\":25207:25211   */\n      dup4\n        /* \"#utility.yul\":25203:25218   */\n      and\n        /* \"#utility.yul\":25193:25218   */\n      swap2\n      pop\n        /* \"#utility.yul\":25106:25224   */\n      pop\n        /* \"#utility.yul\":25055:25224   */\n      swap3\n      swap2\n      pop\n      pop\n      jump\t// out\n        /* \"#utility.yul\":25229:25524   */\n    tag_246:\n        /* \"#utility.yul\":25305:25309   */\n      0x00\n        /* \"#utility.yul\":25451:25480   */\n      tag_518\n        /* \"#utility.yul\":25476:25479   */\n      dup4\n        /* \"#utility.yul\":25470:25474   */\n      dup4\n        /* \"#utility.yul\":25451:25480   */\n      tag_245\n      jump\t// in\n    tag_518:\n        /* \"#utility.yul\":25443:25480   */\n      swap2\n      pop\n        /* \"#utility.yul\":25513:25516   */\n      dup3\n        /* \"#utility.yul\":25510:25511   */\n      0x02\n        /* \"#utility.yul\":25506:25517   */\n      mul\n        /* \"#utility.yul\":25500:25504   */\n      dup3\n        /* \"#utility.yul\":25497:25518   */\n      or\n        /* \"#utility.yul\":25489:25518   */\n      swap1\n      pop\n        /* \"#utility.yul\":25229:25524   */\n      swap3\n      swap2\n      pop\n      pop\n      jump\t// out\n        /* \"#utility.yul\":25529:26924   */\n    tag_157:\n        /* \"#utility.yul\":25646:25683   */\n      tag_520\n        /* \"#utility.yul\":25679:25682   */\n      dup3\n        /* \"#utility.yul\":25646:25683   */\n      tag_197\n      jump\t// in\n    tag_520:\n        /* \"#utility.yul\":25748:25766   */\n      0xffffffffffffffff\n        /* \"#utility.yul\":25740:25746   */\n      dup2\n        /* \"#utility.yul\":25737:25767   */\n      gt\n        /* \"#utility.yul\":25734:25790   */\n      iszero\n      tag_521\n      jumpi\n        /* \"#utility.yul\":25770:25788   */\n      tag_522\n      tag_179\n      jump\t// in\n    tag_522:\n        /* \"#utility.yul\":25734:25790   */\n    tag_521:\n        /* \"#utility.yul\":25814:25852   */\n      tag_523\n        /* \"#utility.yul\":25846:25850   */\n      dup3\n        /* \"#utility.yul\":25840:25851   */\n      sload\n        /* \"#utility.yul\":25814:25852   */\n      tag_94\n      jump\t// in\n    tag_523:\n        /* \"#utility.yul\":25899:25966   */\n      tag_524\n        /* \"#utility.yul\":25959:25965   */\n      dup3\n        /* \"#utility.yul\":25951:25957   */\n      dup3\n        /* \"#utility.yul\":25945:25949   */\n      dup6\n        /* \"#utility.yul\":25899:25966   */\n      tag_243\n      jump\t// in\n    tag_524:\n        /* \"#utility.yul\":25993:25994   */\n      0x00\n        /* \"#utility.yul\":26017:26021   */\n      0x20\n        /* \"#utility.yul\":26004:26021   */\n      swap1\n      pop\n        /* \"#utility.yul\":26049:26051   */\n      0x1f\n        /* \"#utility.yul\":26041:26047   */\n      dup4\n        /* \"#utility.yul\":26038:26052   */\n      gt\n        /* \"#utility.yul\":26066:26067   */\n      0x01\n        /* \"#utility.yul\":26061:26679   */\n      dup2\n      eq\n      tag_526\n      jumpi\n        /* \"#utility.yul\":26723:26724   */\n      0x00\n        /* \"#utility.yul\":26740:26746   */\n      dup5\n        /* \"#utility.yul\":26737:26814   */\n      iszero\n      tag_527\n      jumpi\n        /* \"#utility.yul\":26789:26798   */\n      dup3\n        /* \"#utility.yul\":26784:26787   */\n      dup8\n        /* \"#utility.yul\":26780:26799   */\n      add\n        /* \"#utility.yul\":26774:26800   */\n      mload\n        /* \"#utility.yul\":26765:26800   */\n      swap1\n      pop\n        /* \"#utility.yul\":26737:26814   */\n    tag_527:\n        /* \"#utility.yul\":26840:26907   */\n      tag_528\n        /* \"#utility.yul\":26900:26906   */\n      dup6\n        /* \"#utility.yul\":26893:26898   */\n      dup3\n        /* \"#utility.yul\":26840:26907   */\n      tag_246\n      jump\t// in\n    tag_528:\n        /* \"#utility.yul\":26834:26838   */\n      dup7\n        /* \"#utility.yul\":26827:26908   */\n      sstore\n        /* \"#utility.yul\":26696:26918   */\n      pop\n        /* \"#utility.yul\":26031:26918   */\n      jump(tag_525)\n        /* \"#utility.yul\":26061:26679   */\n    tag_526:\n        /* \"#utility.yul\":26113:26117   */\n      0x1f\n        /* \"#utility.yul\":26109:26118   */\n      not\n        /* \"#utility.yul\":26101:26107   */\n      dup5\n        /* \"#utility.yul\":26097:26119   */\n      and\n        /* \"#utility.yul\":26147:26184   */\n      tag_529\n        /* \"#utility.yul\":26179:26183   */\n      dup7\n        /* \"#utility.yul\":26147:26184   */\n      tag_232\n      jump\t// in\n    tag_529:\n        /* \"#utility.yul\":26206:26207   */\n      0x00\n        /* \"#utility.yul\":26220:26428   */\n    tag_530:\n        /* \"#utility.yul\":26234:26241   */\n      dup3\n        /* \"#utility.yul\":26231:26232   */\n      dup2\n        /* \"#utility.yul\":26228:26242   */\n      lt\n        /* \"#utility.yul\":26220:26428   */\n      iszero\n      tag_532\n      jumpi\n        /* \"#utility.yul\":26313:26322   */\n      dup5\n        /* \"#utility.yul\":26308:26311   */\n      dup10\n        /* \"#utility.yul\":26304:26323   */\n      add\n        /* \"#utility.yul\":26298:26324   */\n      mload\n        /* \"#utility.yul\":26290:26296   */\n      dup3\n        /* \"#utility.yul\":26283:26325   */\n      sstore\n        /* \"#utility.yul\":26364:26365   */\n      0x01\n        /* \"#utility.yul\":26356:26362   */\n      dup3\n        /* \"#utility.yul\":26352:26366   */\n      add\n        /* \"#utility.yul\":26342:26366   */\n      swap2\n      pop\n        /* \"#utility.yul\":26411:26413   */\n      0x20\n        /* \"#utility.yul\":26400:26409   */\n      dup6\n        /* \"#utility.yul\":26396:26414   */\n      add\n        /* \"#utility.yul\":26383:26414   */\n      swap5\n      pop\n        /* \"#utility.yul\":26257:26261   */\n      0x20\n        /* \"#utility.yul\":26254:26255   */\n      dup2\n        /* \"#utility.yul\":26250:26262   */\n      add\n        /* \"#utility.yul\":26245:26262   */\n      swap1\n      pop\n        /* \"#utility.yul\":26220:26428   */\n      jump(tag_530)\n    tag_532:\n        /* \"#utility.yul\":26456:26462   */\n      dup7\n        /* \"#utility.yul\":26447:26454   */\n      dup4\n        /* \"#utility.yul\":26444:26463   */\n      lt\n        /* \"#utility.yul\":26441:26620   */\n      iszero\n      tag_533\n      jumpi\n        /* \"#utility.yul\":26514:26523   */\n      dup5\n        /* \"#utility.yul\":26509:26512   */\n      dup10\n        /* \"#utility.yul\":26505:26524   */\n      add\n        /* \"#utility.yul\":26499:26525   */\n      mload\n        /* \"#utility.yul\":26557:26605   */\n      tag_534\n        /* \"#utility.yul\":26599:26603   */\n      0x1f\n        /* \"#utility.yul\":26591:26597   */\n      dup10\n        /* \"#utility.yul\":26587:26604   */\n      and\n        /* \"#utility.yul\":26576:26585   */\n      dup3\n        /* \"#utility.yul\":26557:26605   */\n      tag_245\n      jump\t// in\n    tag_534:\n        /* \"#utility.yul\":26549:26555   */\n      dup4\n        /* \"#utility.yul\":26542:26606   */\n      sstore\n        /* \"#utility.yul\":26464:26620   */\n      pop\n        /* \"#utility.yul\":26441:26620   */\n    tag_533:\n        /* \"#utility.yul\":26666:26667   */\n      0x01\n        /* \"#utility.yul\":26662:26663   */\n      0x02\n        /* \"#utility.yul\":26654:26660   */\n      dup9\n        /* \"#utility.yul\":26650:26664   */\n      mul\n        /* \"#utility.yul\":26646:26668   */\n      add\n        /* \"#utility.yul\":26640:26644   */\n      dup9\n        /* \"#utility.yul\":26633:26669   */\n      sstore\n        /* \"#utility.yul\":26068:26679   */\n      pop\n      pop\n      pop\n        /* \"#utility.yul\":26031:26918   */\n    tag_525:\n      pop\n        /* \"#utility.yul\":25621:26924   */\n      pop\n      pop\n      pop\n        /* \"#utility.yul\":25529:26924   */\n      pop\n      pop\n      jump\t// out\n\n    auxdata: 0xa2646970667358221220c0891a4c589c8a7b95f63a34a73b2c1fa450e86ea1cdcf99a0d5d26894596e6364736f6c63430008160033\n}\n",
				"bytecode": {
					"linkReferences": {},
					"object": "60a0604052738103b0a8a00be2ddc778e6e7eaa21791cd36462560015f6101000a81548173ffffffffffffffffffffffffffffffffffffffff021916908373ffffffffffffffffffffffffffffffffffffffff1602179055507f474e34a077df58807dbe9c96d3c009b23b3c6d0cce433e59bbf5b34f823bc56c5f1b600255619c4060035f6101000a81548163ffffffff021916908363ffffffff16021790555060038060046101000a81548161ffff021916908361ffff1602179055506001600360066101000a81548163ffffffff021916908363ffffffff1602179055505f600455348015620000ef575f80fd5b5060405162001e6a38038062001e6a833981810160405281019062000115919062000241565b60015f9054906101000a900473ffffffffffffffffffffffffffffffffffffffff168073ffffffffffffffffffffffffffffffffffffffff1660808173ffffffffffffffffffffffffffffffffffffffff16815250505060015f9054906101000a900473ffffffffffffffffffffffffffffffffffffffff165f806101000a81548173ffffffffffffffffffffffffffffffffffffffff021916908373ffffffffffffffffffffffffffffffffffffffff160217905550805f60146101000a81548167ffffffffffffffff021916908367ffffffffffffffff1602179055505062000271565b5f80fd5b5f67ffffffffffffffff82169050919050565b6200021d81620001ff565b811462000228575f80fd5b50565b5f815190506200023b8162000212565b92915050565b5f60208284031215620002595762000258620001fb565b5b5f62000268848285016200022b565b91505092915050565b608051611bd9620002915f395f81816102fa015261034e0152611bd95ff3fe608060405234801561000f575f80fd5b50600436106100cd575f3560e01c8063742bc8cf1161008a578063b53c158511610064578063b53c15851461024b578063d7349e201461027b578063eebc118c146102ab578063f442582e146102dc576100cd565b8063742bc8cf146101bb57806386f3518e146101eb578063a2d7c1061461021b576100cd565b80631fe543e3146100d157806331e26c37146100ed57806336b3f4781461011d57806343b96f161461013b578063531de8881461016b57806355f3c98414610189575b5f80fd5b6100eb60048036038101906100e69190610f7a565b6102f8565b005b61010760048036038101906101029190610fd4565b6103b8565b60405161011491906110b6565b60405180910390f35b61012561041f565b60405161013291906110e5565b60405180910390f35b61015560048036038101906101509190610fd4565b610425565b6040516101629190611280565b60405180910390f35b610173610537565b60405161018091906110e5565b60405180910390f35b6101a3600480360381019061019e9190610fd4565b61053c565b6040516101b2939291906112a0565b60405180910390f35b6101d560048036038101906101d091906112d5565b610562565b6040516101e291906110e5565b60405180910390f35b6102056004803603810190610200919061136d565b61058d565b60405161021291906110b6565b60405180910390f35b61023560048036038101906102309190610fd4565b610620565b60405161024291906110e5565b60405180910390f35b61026560048036038101906102609190611398565b610811565b60405161027291906110e5565b60405180910390f35b61029560048036038101906102909190610fd4565b61083c565b6040516102a29190611416565b60405180910390f35b6102c560048036038101906102c09190610fd4565b610884565b6040516102d392919061142f565b60405180910390f35b6102f660048036038101906102f191906114af565b6108a4565b005b7f000000000000000000000000000000000000000000000000000000000000000073ffffffffffffffffffffffffffffffffffffffff163373ffffffffffffffffffffffffffffffffffffffff16146103aa57337f00000000000000000000000000000000000000000000000000000000000000006040517f1cf993f40000000000000000000000000000000000000000000000000000000081526004016103a1929190611509565b60405180910390fd5b6103b48282610a6a565b5050565b606060075f8381526020019081526020015f2080548060200260200160405190810160405280929190818152602001828054801561041357602002820191905f5260205f20905b8154815260200190600101908083116103ff575b50505050509050919050565b60045481565b61042d610cd7565b60065f8381526020019081526020015f206040518060600160405290815f82015481526020016001820154815260200160028201805480602002602001604051908101604052809291908181526020015f905b82821015610528578382905f5260205f2001805461049d9061155d565b80601f01602080910402602001604051908101604052809291908181526020018280546104c99061155d565b80156105145780601f106104eb57610100808354040283529160200191610514565b820191905f5260205f20905b8154815290600101906020018083116104f757829003601f168201915b505050505081526020019060010190610480565b50505050815250509050919050565b600a81565b6008602052805f5260405f205f91509050805f0154908060010154908060020154905083565b6007602052815f5260405f20818154811061057b575f80fd5b905f5260205f20015f91509150505481565b606060055f8373ffffffffffffffffffffffffffffffffffffffff1673ffffffffffffffffffffffffffffffffffffffff1681526020019081526020015f2080548060200260200160405190810160405280929190818152602001828054801561061457602002820191905f5260205f20905b815481526020019060010190808311610600575b50505050509050919050565b5f60045482118061063057505f82145b1561067257816040517f8bf5343a00000000000000000000000000000000000000000000000000000000815260040161066991906110e5565b60405180910390fd5b5f8054906101000a900473ffffffffffffffffffffffffffffffffffffffff1673ffffffffffffffffffffffffffffffffffffffff16635d3b1d306002545f60149054906101000a900467ffffffffffffffff16600360049054906101000a900461ffff1660035f9054906101000a900463ffffffff16600360069054906101000a900463ffffffff166040518663ffffffff1660e01b815260040161071c959493929190611601565b6020604051808303815f875af1158015610738573d5f803e3d5ffd5b505050506040513d601f19601f8201168201806040525081019061075c9190611666565b90506040518060600160405280828152602001838152602001602a81525060085f8381526020019081526020015f205f820151815f0155602082015181600101556040820151816002015590505060075f8381526020019081526020015f2081908060018154018082558091505060019003905f5260205f20015f9091909190915055807fcce1bad18029b5b615b936f3f0275f9adcb92594b2a258d494b0c0b6b98677e560405160405180910390a2919050565b6005602052815f5260405f20818154811061082a575f80fd5b905f5260205f20015f91509150505481565b610844610cf6565b60085f8381526020019081526020015f206040518060600160405290815f8201548152602001600182015481526020016002820154815250509050919050565b6006602052805f5260405f205f91509050805f0154908060010154905082565b5f82829050905060028110156108f157806040517f8faecbf10000000000000000000000000000000000000000000000000000000081526004016108e891906110e5565b60405180910390fd5b600a81111561093757806040517ff042a13900000000000000000000000000000000000000000000000000000000815260040161092e91906110e5565b60405180910390fd5b60045f815480929190610949906116be565b919050555060055f3373ffffffffffffffffffffffffffffffffffffffff1673ffffffffffffffffffffffffffffffffffffffff1681526020019081526020015f20600454908060018154018082558091505060019003905f5260205f20015f9091909190915055604051806060016040528060045481526020018281526020018484906109d79190611866565b81525060065f60045481526020019081526020015f205f820151815f0155602082015181600101556040820151816002019080519060200190610a1b929190610d14565b509050503373ffffffffffffffffffffffffffffffffffffffff166004547f86d26c194d8c757e91f000baaa05e15cd68dc60e2a49cb82cb25099aa54d500960405160405180910390a3505050565b5f60085f8481526020019081526020015f206040518060600160405290815f82015481526020016001820154815260200160028201548152505090505f816020015103610af25780602001516040517f8bf5343a000000000000000000000000000000000000000000000000000000008152600401610ae991906110e5565b60405180910390fd5b5f60065f836020015181526020019081526020015f206040518060600160405290815f82015481526020016001820154815260200160028201805480602002602001604051908101604052809291908181526020015f905b82821015610bf2578382905f5260205f20018054610b679061155d565b80601f0160208091040260200160405190810160405280929190818152602001828054610b939061155d565b8015610bde5780601f10610bb557610100808354040283529160200191610bde565b820191905f5260205f20905b815481529060010190602001808311610bc157829003601f168201915b505050505081526020019060010190610b4a565b505050508152505090505f815f015103610c4657805f01516040517f8bf5343a000000000000000000000000000000000000000000000000000000008152600401610c3d91906110e5565b60405180910390fd5b5f60018260200151855f81518110610c6157610c6061187a565b5b6020026020010151610c7391906118d4565b610c7d9190611904565b90508060085f8781526020019081526020015f2060020181905550847f9dd757ad53679bd882232d07d50736dcbcc6ae740872ecc23b2849af954abdaf82604051610cc891906110e5565b60405180910390a25050505050565b60405180606001604052805f81526020015f8152602001606081525090565b60405180606001604052805f81526020015f81526020015f81525090565b828054828255905f5260205f20908101928215610d5a579160200282015b82811115610d59578251829081610d499190611ad4565b5091602001919060010190610d32565b5b509050610d679190610d6b565b5090565b5b80821115610d8a575f8181610d819190610d8e565b50600101610d6c565b5090565b508054610d9a9061155d565b5f825580601f10610dab5750610dc8565b601f0160209004905f5260205f2090810190610dc79190610dcb565b5b50565b5b80821115610de2575f815f905550600101610dcc565b5090565b5f604051905090565b5f80fd5b5f80fd5b5f819050919050565b610e0981610df7565b8114610e13575f80fd5b50565b5f81359050610e2481610e00565b92915050565b5f80fd5b5f601f19601f8301169050919050565b7f4e487b71000000000000000000000000000000000000000000000000000000005f52604160045260245ffd5b610e7482610e2e565b810181811067ffffffffffffffff82111715610e9357610e92610e3e565b5b80604052505050565b5f610ea5610de6565b9050610eb18282610e6b565b919050565b5f67ffffffffffffffff821115610ed057610ecf610e3e565b5b602082029050602081019050919050565b5f80fd5b5f610ef7610ef284610eb6565b610e9c565b90508083825260208201905060208402830185811115610f1a57610f19610ee1565b5b835b81811015610f435780610f2f8882610e16565b845260208401935050602081019050610f1c565b5050509392505050565b5f82601f830112610f6157610f60610e2a565b5b8135610f71848260208601610ee5565b91505092915050565b5f8060408385031215610f9057610f8f610def565b5b5f610f9d85828601610e16565b925050602083013567ffffffffffffffff811115610fbe57610fbd610df3565b5b610fca85828601610f4d565b9150509250929050565b5f60208284031215610fe957610fe8610def565b5b5f610ff684828501610e16565b91505092915050565b5f81519050919050565b5f82825260208201905092915050565b5f819050602082019050919050565b61103181610df7565b82525050565b5f6110428383611028565b60208301905092915050565b5f602082019050919050565b5f61106482610fff565b61106e8185611009565b935061107983611019565b805f5b838110156110a95781516110908882611037565b975061109b8361104e565b92505060018101905061107c565b5085935050505092915050565b5f6020820190508181035f8301526110ce818461105a565b905092915050565b6110df81610df7565b82525050565b5f6020820190506110f85f8301846110d6565b92915050565b5f81519050919050565b5f82825260208201905092915050565b5f819050602082019050919050565b5f81519050919050565b5f82825260208201905092915050565b5f5b8381101561115e578082015181840152602081019050611143565b5f8484015250505050565b5f61117382611127565b61117d8185611131565b935061118d818560208601611141565b61119681610e2e565b840191505092915050565b5f6111ac8383611169565b905092915050565b5f602082019050919050565b5f6111ca826110fe565b6111d48185611108565b9350836020820285016111e685611118565b805f5b85811015611221578484038952815161120285826111a1565b945061120d836111b4565b925060208a019950506001810190506111e9565b50829750879550505050505092915050565b5f606083015f8301516112485f860182611028565b50602083015161125b6020860182611028565b506040830151848203604086015261127382826111c0565b9150508091505092915050565b5f6020820190508181035f8301526112988184611233565b905092915050565b5f6060820190506112b35f8301866110d6565b6112c060208301856110d6565b6112cd60408301846110d6565b949350505050565b5f80604083850312156112eb576112ea610def565b5b5f6112f885828601610e16565b925050602061130985828601610e16565b9150509250929050565b5f73ffffffffffffffffffffffffffffffffffffffff82169050919050565b5f61133c82611313565b9050919050565b61134c81611332565b8114611356575f80fd5b50565b5f8135905061136781611343565b92915050565b5f6020828403121561138257611381610def565b5b5f61138f84828501611359565b91505092915050565b5f80604083850312156113ae576113ad610def565b5b5f6113bb85828601611359565b92505060206113cc85828601610e16565b9150509250929050565b606082015f8201516113ea5f850182611028565b5060208201516113fd6020850182611028565b5060408201516114106040850182611028565b50505050565b5f6060820190506114295f8301846113d6565b92915050565b5f6040820190506114425f8301856110d6565b61144f60208301846110d6565b9392505050565b5f80fd5b5f8083601f84011261146f5761146e610e2a565b5b8235905067ffffffffffffffff81111561148c5761148b611456565b5b6020830191508360208202830111156114a8576114a7610ee1565b5b9250929050565b5f80602083850312156114c5576114c4610def565b5b5f83013567ffffffffffffffff8111156114e2576114e1610df3565b5b6114ee8582860161145a565b92509250509250929050565b61150381611332565b82525050565b5f60408201905061151c5f8301856114fa565b61152960208301846114fa565b9392505050565b7f4e487b71000000000000000000000000000000000000000000000000000000005f52602260045260245ffd5b5f600282049050600182168061157457607f821691505b60208210810361158757611586611530565b5b50919050565b5f819050919050565b61159f8161158d565b82525050565b5f67ffffffffffffffff82169050919050565b6115c1816115a5565b82525050565b5f61ffff82169050919050565b6115dd816115c7565b82525050565b5f63ffffffff82169050919050565b6115fb816115e3565b82525050565b5f60a0820190506116145f830188611596565b61162160208301876115b8565b61162e60408301866115d4565b61163b60608301856115f2565b61164860808301846115f2565b9695505050505050565b5f8151905061166081610e00565b92915050565b5f6020828403121561167b5761167a610def565b5b5f61168884828501611652565b91505092915050565b7f4e487b71000000000000000000000000000000000000000000000000000000005f52601160045260245ffd5b5f6116c882610df7565b91507fffffffffffffffffffffffffffffffffffffffffffffffffffffffffffffffff82036116fa576116f9611691565b5b600182019050919050565b5f67ffffffffffffffff82111561171f5761171e610e3e565b5b602082029050602081019050919050565b5f80fd5b5f67ffffffffffffffff82111561174e5761174d610e3e565b5b61175782610e2e565b9050602081019050919050565b828183375f83830152505050565b5f61178461177f84611734565b610e9c565b9050828152602081018484840111156117a05761179f611730565b5b6117ab848285611764565b509392505050565b5f82601f8301126117c7576117c6610e2a565b5b81356117d7848260208601611772565b91505092915050565b5f6117f26117ed84611705565b610e9c565b9050808382526020820190506020840283018581111561181557611814610ee1565b5b835b8181101561185c57803567ffffffffffffffff81111561183a57611839610e2a565b5b80860161184789826117b3565b85526020850194505050602081019050611817565b5050509392505050565b5f6118723684846117e0565b905092915050565b7f4e487b71000000000000000000000000000000000000000000000000000000005f52603260045260245ffd5b7f4e487b71000000000000000000000000000000000000000000000000000000005f52601260045260245ffd5b5f6118de82610df7565b91506118e983610df7565b9250826118f9576118f86118a7565b5b828206905092915050565b5f61190e82610df7565b915061191983610df7565b925082820190508082111561193157611930611691565b5b92915050565b5f819050815f5260205f209050919050565b5f6020601f8301049050919050565b5f82821b905092915050565b5f600883026119937fffffffffffffffffffffffffffffffffffffffffffffffffffffffffffffffff82611958565b61199d8683611958565b95508019841693508086168417925050509392505050565b5f819050919050565b5f6119d86119d36119ce84610df7565b6119b5565b610df7565b9050919050565b5f819050919050565b6119f1836119be565b611a056119fd826119df565b848454611964565b825550505050565b5f90565b611a19611a0d565b611a248184846119e8565b505050565b5b81811015611a4757611a3c5f82611a11565b600181019050611a2a565b5050565b601f821115611a8c57611a5d81611937565b611a6684611949565b81016020851015611a75578190505b611a89611a8185611949565b830182611a29565b50505b505050565b5f82821c905092915050565b5f611aac5f1984600802611a91565b1980831691505092915050565b5f611ac48383611a9d565b9150826002028217905092915050565b611add82611127565b67ffffffffffffffff811115611af657611af5610e3e565b5b611b00825461155d565b611b0b828285611a4b565b5f60209050601f831160018114611b3c575f8415611b2a578287015190505b611b348582611ab9565b865550611b9b565b601f198416611b4a86611937565b5f5b82811015611b7157848901518255600182019150602085019450602081019050611b4c565b86831015611b8e5784890151611b8a601f891682611a9d565b8355505b6001600288020188555050505b50505050505056fea2646970667358221220c0891a4c589c8a7b95f63a34a73b2c1fa450e86ea1cdcf99a0d5d26894596e6364736f6c63430008160033",
					"opcodes": "PUSH1 0xA0 PUSH1 0x40 MSTORE PUSH20 0x8103B0A8A00BE2DDC778E6E7EAA21791CD364625 PUSH1 0x1 PUSH0 PUSH2 0x100 EXP DUP2 SLOAD DUP2 PUSH20 0xFFFFFFFFFFFFFFFFFFFFFFFFFFFFFFFFFFFFFFFF MUL NOT AND SWAP1 DUP4 PUSH20 0xFFFFFFFFFFFFFFFFFFFFFFFFFFFFFFFFFFFFFFFF AND MUL OR SWAP1 SSTORE POP PUSH32 0x474E34A077DF58807DBE9C96D3C009B23B3C6D0CCE433E59BBF5B34F823BC56C PUSH0 SHL PUSH1 0x2 SSTORE PUSH2 0x9C40 PUSH1 0x3 PUSH0 PUSH2 0x100 EXP DUP2 SLOAD DUP2 PUSH4 0xFFFFFFFF MUL NOT AND SWAP1 DUP4 PUSH4 0xFFFFFFFF AND MUL OR SWAP1 SSTORE POP PUSH1 0x3 DUP1 PUSH1 0x4 PUSH2 0x100 EXP DUP2 SLOAD DUP2 PUSH2 0xFFFF MUL NOT AND SWAP1 DUP4 PUSH2 0xFFFF AND MUL OR SWAP1 SSTORE POP PUSH1 0x1 PUSH1 0x3 PUSH1 0x6 PUSH2 0x100 EXP DUP2 SLOAD DUP2 PUSH4 0xFFFFFFFF MUL NOT AND SWAP1 DUP4 PUSH4 0xFFFFFFFF AND MUL OR SWAP1 SSTORE POP PUSH0 PUSH1 0x4 SSTORE CALLVALUE DUP1 ISZERO PUSH3 0xEF JUMPI PUSH0 DUP1 REVERT JUMPDEST POP PUSH1 0x40 MLOAD PUSH3 0x1E6A CODESIZE SUB DUP1 PUSH3 0x1E6A DUP4 CODECOPY DUP2 DUP2 ADD PUSH1 0x40 MSTORE DUP2 ADD SWAP1 PUSH3 0x115 SWAP2 SWAP1 PUSH3 0x241 JUMP JUMPDEST PUSH1 0x1 PUSH0 SWAP1 SLOAD SWAP1 PUSH2 0x100 EXP SWAP1 DIV PUSH20 0xFFFFFFFFFFFFFFFFFFFFFFFFFFFFFFFFFFFFFFFF AND DUP1 PUSH20 0xFFFFFFFFFFFFFFFFFFFFFFFFFFFFFFFFFFFFFFFF AND PUSH1 0x80 DUP2 PUSH20 0xFFFFFFFFFFFFFFFFFFFFFFFFFFFFFFFFFFFFFFFF AND DUP2 MSTORE POP POP POP PUSH1 0x1 PUSH0 SWAP1 SLOAD SWAP1 PUSH2 0x100 EXP SWAP1 DIV PUSH20 0xFFFFFFFFFFFFFFFFFFFFFFFFFFFFFFFFFFFFFFFF AND PUSH0 DUP1 PUSH2 0x100 EXP DUP2 SLOAD DUP2 PUSH20 0xFFFFFFFFFFFFFFFFFFFFFFFFFFFFFFFFFFFFFFFF MUL NOT AND SWAP1 DUP4 PUSH20 0xFFFFFFFFFFFFFFFFFFFFFFFFFFFFFFFFFFFFFFFF AND MUL OR SWAP1 SSTORE POP DUP1 PUSH0 PUSH1 0x14 PUSH2 0x100 EXP DUP2 SLOAD DUP2 PUSH8 0xFFFFFFFFFFFFFFFF MUL NOT AND SWAP1 DUP4 PUSH8 0xFFFFFFFFFFFFFFFF AND MUL OR SWAP1 SSTORE POP POP PUSH3 0x271 JUMP JUMPDEST PUSH0 DUP1 REVERT JUMPDEST PUSH0 PUSH8 0xFFFFFFFFFFFFFFFF DUP3 AND SWAP1 POP SWAP2 SWAP1 POP JUMP JUMPDEST PUSH3 0x21D DUP2 PUSH3 0x1FF JUMP JUMPDEST DUP2 EQ PUSH3 0x228 JUMPI PUSH0 DUP1 REVERT JUMPDEST POP JUMP JUMPDEST PUSH0 DUP2 MLOAD SWAP1 POP PUSH3 0x23B DUP2 PUSH3 0x212 JUMP JUMPDEST SWAP3 SWAP2 POP POP JUMP JUMPDEST PUSH0 PUSH1 0x20 DUP3 DUP5 SUB SLT ISZERO PUSH3 0x259 JUMPI PUSH3 0x258 PUSH3 0x1FB JUMP JUMPDEST JUMPDEST PUSH0 PUSH3 0x268 DUP5 DUP3 DUP6 ADD PUSH3 0x22B JUMP JUMPDEST SWAP2 POP POP SWAP3 SWAP2 POP POP JUMP JUMPDEST PUSH1 0x80 MLOAD PUSH2 0x1BD9 PUSH3 0x291 PUSH0 CODECOPY PUSH0 DUP2 DUP2 PUSH2 0x2FA ADD MSTORE PUSH2 0x34E ADD MSTORE PUSH2 0x1BD9 PUSH0 RETURN INVALID PUSH1 0x80 PUSH1 0x40 MSTORE CALLVALUE DUP1 ISZERO PUSH2 0xF JUMPI PUSH0 DUP1 REVERT JUMPDEST POP PUSH1 0x4 CALLDATASIZE LT PUSH2 0xCD JUMPI PUSH0 CALLDATALOAD PUSH1 0xE0 SHR DUP1 PUSH4 0x742BC8CF GT PUSH2 0x8A JUMPI DUP1 PUSH4 0xB53C1585 GT PUSH2 0x64 JUMPI DUP1 PUSH4 0xB53C1585 EQ PUSH2 0x24B JUMPI DUP1 PUSH4 0xD7349E20 EQ PUSH2 0x27B JUMPI DUP1 PUSH4 0xEEBC118C EQ PUSH2 0x2AB JUMPI DUP1 PUSH4 0xF442582E EQ PUSH2 0x2DC JUMPI PUSH2 0xCD JUMP JUMPDEST DUP1 PUSH4 0x742BC8CF EQ PUSH2 0x1BB JUMPI DUP1 PUSH4 0x86F3518E EQ PUSH2 0x1EB JUMPI DUP1 PUSH4 0xA2D7C106 EQ PUSH2 0x21B JUMPI PUSH2 0xCD JUMP JUMPDEST DUP1 PUSH4 0x1FE543E3 EQ PUSH2 0xD1 JUMPI DUP1 PUSH4 0x31E26C37 EQ PUSH2 0xED JUMPI DUP1 PUSH4 0x36B3F478 EQ PUSH2 0x11D JUMPI DUP1 PUSH4 0x43B96F16 EQ PUSH2 0x13B JUMPI DUP1 PUSH4 0x531DE888 EQ PUSH2 0x16B JUMPI DUP1 PUSH4 0x55F3C984 EQ PUSH2 0x189 JUMPI JUMPDEST PUSH0 DUP1 REVERT JUMPDEST PUSH2 0xEB PUSH1 0x4 DUP1 CALLDATASIZE SUB DUP2 ADD SWAP1 PUSH2 0xE6 SWAP2 SWAP1 PUSH2 0xF7A JUMP JUMPDEST PUSH2 0x2F8 JUMP JUMPDEST STOP JUMPDEST PUSH2 0x107 PUSH1 0x4 DUP1 CALLDATASIZE SUB DUP2 ADD SWAP1 PUSH2 0x102 SWAP2 SWAP1 PUSH2 0xFD4 JUMP JUMPDEST PUSH2 0x3B8 JUMP JUMPDEST PUSH1 0x40 MLOAD PUSH2 0x114 SWAP2 SWAP1 PUSH2 0x10B6 JUMP JUMPDEST PUSH1 0x40 MLOAD DUP1 SWAP2 SUB SWAP1 RETURN JUMPDEST PUSH2 0x125 PUSH2 0x41F JUMP JUMPDEST PUSH1 0x40 MLOAD PUSH2 0x132 SWAP2 SWAP1 PUSH2 0x10E5 JUMP JUMPDEST PUSH1 0x40 MLOAD DUP1 SWAP2 SUB SWAP1 RETURN JUMPDEST PUSH2 0x155 PUSH1 0x4 DUP1 CALLDATASIZE SUB DUP2 ADD SWAP1 PUSH2 0x150 SWAP2 SWAP1 PUSH2 0xFD4 JUMP JUMPDEST PUSH2 0x425 JUMP JUMPDEST PUSH1 0x40 MLOAD PUSH2 0x162 SWAP2 SWAP1 PUSH2 0x1280 JUMP JUMPDEST PUSH1 0x40 MLOAD DUP1 SWAP2 SUB SWAP1 RETURN JUMPDEST PUSH2 0x173 PUSH2 0x537 JUMP JUMPDEST PUSH1 0x40 MLOAD PUSH2 0x180 SWAP2 SWAP1 PUSH2 0x10E5 JUMP JUMPDEST PUSH1 0x40 MLOAD DUP1 SWAP2 SUB SWAP1 RETURN JUMPDEST PUSH2 0x1A3 PUSH1 0x4 DUP1 CALLDATASIZE SUB DUP2 ADD SWAP1 PUSH2 0x19E SWAP2 SWAP1 PUSH2 0xFD4 JUMP JUMPDEST PUSH2 0x53C JUMP JUMPDEST PUSH1 0x40 MLOAD PUSH2 0x1B2 SWAP4 SWAP3 SWAP2 SWAP1 PUSH2 0x12A0 JUMP JUMPDEST PUSH1 0x40 MLOAD DUP1 SWAP2 SUB SWAP1 RETURN JUMPDEST PUSH2 0x1D5 PUSH1 0x4 DUP1 CALLDATASIZE SUB DUP2 ADD SWAP1 PUSH2 0x1D0 SWAP2 SWAP1 PUSH2 0x12D5 JUMP JUMPDEST PUSH2 0x562 JUMP JUMPDEST PUSH1 0x40 MLOAD PUSH2 0x1E2 SWAP2 SWAP1 PUSH2 0x10E5 JUMP JUMPDEST PUSH1 0x40 MLOAD DUP1 SWAP2 SUB SWAP1 RETURN JUMPDEST PUSH2 0x205 PUSH1 0x4 DUP1 CALLDATASIZE SUB DUP2 ADD SWAP1 PUSH2 0x200 SWAP2 SWAP1 PUSH2 0x136D JUMP JUMPDEST PUSH2 0x58D JUMP JUMPDEST PUSH1 0x40 MLOAD PUSH2 0x212 SWAP2 SWAP1 PUSH2 0x10B6 JUMP JUMPDEST PUSH1 0x40 MLOAD DUP1 SWAP2 SUB SWAP1 RETURN JUMPDEST PUSH2 0x235 PUSH1 0x4 DUP1 CALLDATASIZE SUB DUP2 ADD SWAP1 PUSH2 0x230 SWAP2 SWAP1 PUSH2 0xFD4 JUMP JUMPDEST PUSH2 0x620 JUMP JUMPDEST PUSH1 0x40 MLOAD PUSH2 0x242 SWAP2 SWAP1 PUSH2 0x10E5 JUMP JUMPDEST PUSH1 0x40 MLOAD DUP1 SWAP2 SUB SWAP1 RETURN JUMPDEST PUSH2 0x265 PUSH1 0x4 DUP1 CALLDATASIZE SUB DUP2 ADD SWAP1 PUSH2 0x260 SWAP2 SWAP1 PUSH2 0x1398 JUMP JUMPDEST PUSH2 0x811 JUMP JUMPDEST PUSH1 0x40 MLOAD PUSH2 0x272 SWAP2 SWAP1 PUSH2 0x10E5 JUMP JUMPDEST PUSH1 0x40 MLOAD DUP1 SWAP2 SUB SWAP1 RETURN JUMPDEST PUSH2 0x295 PUSH1 0x4 DUP1 CALLDATASIZE SUB DUP2 ADD SWAP1 PUSH2 0x290 SWAP2 SWAP1 PUSH2 0xFD4 JUMP JUMPDEST PUSH2 0x83C JUMP JUMPDEST PUSH1 0x40 MLOAD PUSH2 0x2A2 SWAP2 SWAP1 PUSH2 0x1416 JUMP JUMPDEST PUSH1 0x40 MLOAD DUP1 SWAP2 SUB SWAP1 RETURN JUMPDEST PUSH2 0x2C5 PUSH1 0x4 DUP1 CALLDATASIZE SUB DUP2 ADD SWAP1 PUSH2 0x2C0 SWAP2 SWAP1 PUSH2 0xFD4 JUMP JUMPDEST PUSH2 0x884 JUMP JUMPDEST PUSH1 0x40 MLOAD PUSH2 0x2D3 SWAP3 SWAP2 SWAP1 PUSH2 0x142F JUMP JUMPDEST PUSH1 0x40 MLOAD DUP1 SWAP2 SUB SWAP1 RETURN JUMPDEST PUSH2 0x2F6 PUSH1 0x4 DUP1 CALLDATASIZE SUB DUP2 ADD SWAP1 PUSH2 0x2F1 SWAP2 SWAP1 PUSH2 0x14AF JUMP JUMPDEST PUSH2 0x8A4 JUMP JUMPDEST STOP JUMPDEST PUSH32 0x0 PUSH20 0xFFFFFFFFFFFFFFFFFFFFFFFFFFFFFFFFFFFFFFFF AND CALLER PUSH20 0xFFFFFFFFFFFFFFFFFFFFFFFFFFFFFFFFFFFFFFFF AND EQ PUSH2 0x3AA JUMPI CALLER PUSH32 0x0 PUSH1 0x40 MLOAD PUSH32 0x1CF993F400000000000000000000000000000000000000000000000000000000 DUP2 MSTORE PUSH1 0x4 ADD PUSH2 0x3A1 SWAP3 SWAP2 SWAP1 PUSH2 0x1509 JUMP JUMPDEST PUSH1 0x40 MLOAD DUP1 SWAP2 SUB SWAP1 REVERT JUMPDEST PUSH2 0x3B4 DUP3 DUP3 PUSH2 0xA6A JUMP JUMPDEST POP POP JUMP JUMPDEST PUSH1 0x60 PUSH1 0x7 PUSH0 DUP4 DUP2 MSTORE PUSH1 0x20 ADD SWAP1 DUP2 MSTORE PUSH1 0x20 ADD PUSH0 KECCAK256 DUP1 SLOAD DUP1 PUSH1 0x20 MUL PUSH1 0x20 ADD PUSH1 0x40 MLOAD SWAP1 DUP2 ADD PUSH1 0x40 MSTORE DUP1 SWAP3 SWAP2 SWAP1 DUP2 DUP2 MSTORE PUSH1 0x20 ADD DUP3 DUP1 SLOAD DUP1 ISZERO PUSH2 0x413 JUMPI PUSH1 0x20 MUL DUP3 ADD SWAP2 SWAP1 PUSH0 MSTORE PUSH1 0x20 PUSH0 KECCAK256 SWAP1 JUMPDEST DUP2 SLOAD DUP2 MSTORE PUSH1 0x20 ADD SWAP1 PUSH1 0x1 ADD SWAP1 DUP1 DUP4 GT PUSH2 0x3FF JUMPI JUMPDEST POP POP POP POP POP SWAP1 POP SWAP2 SWAP1 POP JUMP JUMPDEST PUSH1 0x4 SLOAD DUP2 JUMP JUMPDEST PUSH2 0x42D PUSH2 0xCD7 JUMP JUMPDEST PUSH1 0x6 PUSH0 DUP4 DUP2 MSTORE PUSH1 0x20 ADD SWAP1 DUP2 MSTORE PUSH1 0x20 ADD PUSH0 KECCAK256 PUSH1 0x40 MLOAD DUP1 PUSH1 0x60 ADD PUSH1 0x40 MSTORE SWAP1 DUP2 PUSH0 DUP3 ADD SLOAD DUP2 MSTORE PUSH1 0x20 ADD PUSH1 0x1 DUP3 ADD SLOAD DUP2 MSTORE PUSH1 0x20 ADD PUSH1 0x2 DUP3 ADD DUP1 SLOAD DUP1 PUSH1 0x20 MUL PUSH1 0x20 ADD PUSH1 0x40 MLOAD SWAP1 DUP2 ADD PUSH1 0x40 MSTORE DUP1 SWAP3 SWAP2 SWAP1 DUP2 DUP2 MSTORE PUSH1 0x20 ADD PUSH0 SWAP1 JUMPDEST DUP3 DUP3 LT ISZERO PUSH2 0x528 JUMPI DUP4 DUP3 SWAP1 PUSH0 MSTORE PUSH1 0x20 PUSH0 KECCAK256 ADD DUP1 SLOAD PUSH2 0x49D SWAP1 PUSH2 0x155D JUMP JUMPDEST DUP1 PUSH1 0x1F ADD PUSH1 0x20 DUP1 SWAP2 DIV MUL PUSH1 0x20 ADD PUSH1 0x40 MLOAD SWAP1 DUP2 ADD PUSH1 0x40 MSTORE DUP1 SWAP3 SWAP2 SWAP1 DUP2 DUP2 MSTORE PUSH1 0x20 ADD DUP3 DUP1 SLOAD PUSH2 0x4C9 SWAP1 PUSH2 0x155D JUMP JUMPDEST DUP1 ISZERO PUSH2 0x514 JUMPI DUP1 PUSH1 0x1F LT PUSH2 0x4EB JUMPI PUSH2 0x100 DUP1 DUP4 SLOAD DIV MUL DUP4 MSTORE SWAP2 PUSH1 0x20 ADD SWAP2 PUSH2 0x514 JUMP JUMPDEST DUP3 ADD SWAP2 SWAP1 PUSH0 MSTORE PUSH1 0x20 PUSH0 KECCAK256 SWAP1 JUMPDEST DUP2 SLOAD DUP2 MSTORE SWAP1 PUSH1 0x1 ADD SWAP1 PUSH1 0x20 ADD DUP1 DUP4 GT PUSH2 0x4F7 JUMPI DUP3 SWAP1 SUB PUSH1 0x1F AND DUP3 ADD SWAP2 JUMPDEST POP POP POP POP POP DUP2 MSTORE PUSH1 0x20 ADD SWAP1 PUSH1 0x1 ADD SWAP1 PUSH2 0x480 JUMP JUMPDEST POP POP POP POP DUP2 MSTORE POP POP SWAP1 POP SWAP2 SWAP1 POP JUMP JUMPDEST PUSH1 0xA DUP2 JUMP JUMPDEST PUSH1 0x8 PUSH1 0x20 MSTORE DUP1 PUSH0 MSTORE PUSH1 0x40 PUSH0 KECCAK256 PUSH0 SWAP2 POP SWAP1 POP DUP1 PUSH0 ADD SLOAD SWAP1 DUP1 PUSH1 0x1 ADD SLOAD SWAP1 DUP1 PUSH1 0x2 ADD SLOAD SWAP1 POP DUP4 JUMP JUMPDEST PUSH1 0x7 PUSH1 0x20 MSTORE DUP2 PUSH0 MSTORE PUSH1 0x40 PUSH0 KECCAK256 DUP2 DUP2 SLOAD DUP2 LT PUSH2 0x57B JUMPI PUSH0 DUP1 REVERT JUMPDEST SWAP1 PUSH0 MSTORE PUSH1 0x20 PUSH0 KECCAK256 ADD PUSH0 SWAP2 POP SWAP2 POP POP SLOAD DUP2 JUMP JUMPDEST PUSH1 0x60 PUSH1 0x5 PUSH0 DUP4 PUSH20 0xFFFFFFFFFFFFFFFFFFFFFFFFFFFFFFFFFFFFFFFF AND PUSH20 0xFFFFFFFFFFFFFFFFFFFFFFFFFFFFFFFFFFFFFFFF AND DUP2 MSTORE PUSH1 0x20 ADD SWAP1 DUP2 MSTORE PUSH1 0x20 ADD PUSH0 KECCAK256 DUP1 SLOAD DUP1 PUSH1 0x20 MUL PUSH1 0x20 ADD PUSH1 0x40 MLOAD SWAP1 DUP2 ADD PUSH1 0x40 MSTORE DUP1 SWAP3 SWAP2 SWAP1 DUP2 DUP2 MSTORE PUSH1 0x20 ADD DUP3 DUP1 SLOAD DUP1 ISZERO PUSH2 0x614 JUMPI PUSH1 0x20 MUL DUP3 ADD SWAP2 SWAP1 PUSH0 MSTORE PUSH1 0x20 PUSH0 KECCAK256 SWAP1 JUMPDEST DUP2 SLOAD DUP2 MSTORE PUSH1 0x20 ADD SWAP1 PUSH1 0x1 ADD SWAP1 DUP1 DUP4 GT PUSH2 0x600 JUMPI JUMPDEST POP POP POP POP POP SWAP1 POP SWAP2 SWAP1 POP JUMP JUMPDEST PUSH0 PUSH1 0x4 SLOAD DUP3 GT DUP1 PUSH2 0x630 JUMPI POP PUSH0 DUP3 EQ JUMPDEST ISZERO PUSH2 0x672 JUMPI DUP2 PUSH1 0x40 MLOAD PUSH32 0x8BF5343A00000000000000000000000000000000000000000000000000000000 DUP2 MSTORE PUSH1 0x4 ADD PUSH2 0x669 SWAP2 SWAP1 PUSH2 0x10E5 JUMP JUMPDEST PUSH1 0x40 MLOAD DUP1 SWAP2 SUB SWAP1 REVERT JUMPDEST PUSH0 DUP1 SLOAD SWAP1 PUSH2 0x100 EXP SWAP1 DIV PUSH20 0xFFFFFFFFFFFFFFFFFFFFFFFFFFFFFFFFFFFFFFFF AND PUSH20 0xFFFFFFFFFFFFFFFFFFFFFFFFFFFFFFFFFFFFFFFF AND PUSH4 0x5D3B1D30 PUSH1 0x2 SLOAD PUSH0 PUSH1 0x14 SWAP1 SLOAD SWAP1 PUSH2 0x100 EXP SWAP1 DIV PUSH8 0xFFFFFFFFFFFFFFFF AND PUSH1 0x3 PUSH1 0x4 SWAP1 SLOAD SWAP1 PUSH2 0x100 EXP SWAP1 DIV PUSH2 0xFFFF AND PUSH1 0x3 PUSH0 SWAP1 SLOAD SWAP1 PUSH2 0x100 EXP SWAP1 DIV PUSH4 0xFFFFFFFF AND PUSH1 0x3 PUSH1 0x6 SWAP1 SLOAD SWAP1 PUSH2 0x100 EXP SWAP1 DIV PUSH4 0xFFFFFFFF AND PUSH1 0x40 MLOAD DUP7 PUSH4 0xFFFFFFFF AND PUSH1 0xE0 SHL DUP2 MSTORE PUSH1 0x4 ADD PUSH2 0x71C SWAP6 SWAP5 SWAP4 SWAP3 SWAP2 SWAP1 PUSH2 0x1601 JUMP JUMPDEST PUSH1 0x20 PUSH1 0x40 MLOAD DUP1 DUP4 SUB DUP2 PUSH0 DUP8 GAS CALL ISZERO DUP1 ISZERO PUSH2 0x738 JUMPI RETURNDATASIZE PUSH0 DUP1 RETURNDATACOPY RETURNDATASIZE PUSH0 REVERT JUMPDEST POP POP POP POP PUSH1 0x40 MLOAD RETURNDATASIZE PUSH1 0x1F NOT PUSH1 0x1F DUP3 ADD AND DUP3 ADD DUP1 PUSH1 0x40 MSTORE POP DUP2 ADD SWAP1 PUSH2 0x75C SWAP2 SWAP1 PUSH2 0x1666 JUMP JUMPDEST SWAP1 POP PUSH1 0x40 MLOAD DUP1 PUSH1 0x60 ADD PUSH1 0x40 MSTORE DUP1 DUP3 DUP2 MSTORE PUSH1 0x20 ADD DUP4 DUP2 MSTORE PUSH1 0x20 ADD PUSH1 0x2A DUP2 MSTORE POP PUSH1 0x8 PUSH0 DUP4 DUP2 MSTORE PUSH1 0x20 ADD SWAP1 DUP2 MSTORE PUSH1 0x20 ADD PUSH0 KECCAK256 PUSH0 DUP3 ADD MLOAD DUP2 PUSH0 ADD SSTORE PUSH1 0x20 DUP3 ADD MLOAD DUP2 PUSH1 0x1 ADD SSTORE PUSH1 0x40 DUP3 ADD MLOAD DUP2 PUSH1 0x2 ADD SSTORE SWAP1 POP POP PUSH1 0x7 PUSH0 DUP4 DUP2 MSTORE PUSH1 0x20 ADD SWAP1 DUP2 MSTORE PUSH1 0x20 ADD PUSH0 KECCAK256 DUP2 SWAP1 DUP1 PUSH1 0x1 DUP2 SLOAD ADD DUP1 DUP3 SSTORE DUP1 SWAP2 POP POP PUSH1 0x1 SWAP1 SUB SWAP1 PUSH0 MSTORE PUSH1 0x20 PUSH0 KECCAK256 ADD PUSH0 SWAP1 SWAP2 SWAP1 SWAP2 SWAP1 SWAP2 POP SSTORE DUP1 PUSH32 0xCCE1BAD18029B5B615B936F3F0275F9ADCB92594B2A258D494B0C0B6B98677E5 PUSH1 0x40 MLOAD PUSH1 0x40 MLOAD DUP1 SWAP2 SUB SWAP1 LOG2 SWAP2 SWAP1 POP JUMP JUMPDEST PUSH1 0x5 PUSH1 0x20 MSTORE DUP2 PUSH0 MSTORE PUSH1 0x40 PUSH0 KECCAK256 DUP2 DUP2 SLOAD DUP2 LT PUSH2 0x82A JUMPI PUSH0 DUP1 REVERT JUMPDEST SWAP1 PUSH0 MSTORE PUSH1 0x20 PUSH0 KECCAK256 ADD PUSH0 SWAP2 POP SWAP2 POP POP SLOAD DUP2 JUMP JUMPDEST PUSH2 0x844 PUSH2 0xCF6 JUMP JUMPDEST PUSH1 0x8 PUSH0 DUP4 DUP2 MSTORE PUSH1 0x20 ADD SWAP1 DUP2 MSTORE PUSH1 0x20 ADD PUSH0 KECCAK256 PUSH1 0x40 MLOAD DUP1 PUSH1 0x60 ADD PUSH1 0x40 MSTORE SWAP1 DUP2 PUSH0 DUP3 ADD SLOAD DUP2 MSTORE PUSH1 0x20 ADD PUSH1 0x1 DUP3 ADD SLOAD DUP2 MSTORE PUSH1 0x20 ADD PUSH1 0x2 DUP3 ADD SLOAD DUP2 MSTORE POP POP SWAP1 POP SWAP2 SWAP1 POP JUMP JUMPDEST PUSH1 0x6 PUSH1 0x20 MSTORE DUP1 PUSH0 MSTORE PUSH1 0x40 PUSH0 KECCAK256 PUSH0 SWAP2 POP SWAP1 POP DUP1 PUSH0 ADD SLOAD SWAP1 DUP1 PUSH1 0x1 ADD SLOAD SWAP1 POP DUP3 JUMP JUMPDEST PUSH0 DUP3 DUP3 SWAP1 POP SWAP1 POP PUSH1 0x2 DUP2 LT ISZERO PUSH2 0x8F1 JUMPI DUP1 PUSH1 0x40 MLOAD PUSH32 0x8FAECBF100000000000000000000000000000000000000000000000000000000 DUP2 MSTORE PUSH1 0x4 ADD PUSH2 0x8E8 SWAP2 SWAP1 PUSH2 0x10E5 JUMP JUMPDEST PUSH1 0x40 MLOAD DUP1 SWAP2 SUB SWAP1 REVERT JUMPDEST PUSH1 0xA DUP2 GT ISZERO PUSH2 0x937 JUMPI DUP1 PUSH1 0x40 MLOAD PUSH32 0xF042A13900000000000000000000000000000000000000000000000000000000 DUP2 MSTORE PUSH1 0x4 ADD PUSH2 0x92E SWAP2 SWAP1 PUSH2 0x10E5 JUMP JUMPDEST PUSH1 0x40 MLOAD DUP1 SWAP2 SUB SWAP1 REVERT JUMPDEST PUSH1 0x4 PUSH0 DUP2 SLOAD DUP1 SWAP3 SWAP2 SWAP1 PUSH2 0x949 SWAP1 PUSH2 0x16BE JUMP JUMPDEST SWAP2 SWAP1 POP SSTORE POP PUSH1 0x5 PUSH0 CALLER PUSH20 0xFFFFFFFFFFFFFFFFFFFFFFFFFFFFFFFFFFFFFFFF AND PUSH20 0xFFFFFFFFFFFFFFFFFFFFFFFFFFFFFFFFFFFFFFFF AND DUP2 MSTORE PUSH1 0x20 ADD SWAP1 DUP2 MSTORE PUSH1 0x20 ADD PUSH0 KECCAK256 PUSH1 0x4 SLOAD SWAP1 DUP1 PUSH1 0x1 DUP2 SLOAD ADD DUP1 DUP3 SSTORE DUP1 SWAP2 POP POP PUSH1 0x1 SWAP1 SUB SWAP1 PUSH0 MSTORE PUSH1 0x20 PUSH0 KECCAK256 ADD PUSH0 SWAP1 SWAP2 SWAP1 SWAP2 SWAP1 SWAP2 POP SSTORE PUSH1 0x40 MLOAD DUP1 PUSH1 0x60 ADD PUSH1 0x40 MSTORE DUP1 PUSH1 0x4 SLOAD DUP2 MSTORE PUSH1 0x20 ADD DUP3 DUP2 MSTORE PUSH1 0x20 ADD DUP5 DUP5 SWAP1 PUSH2 0x9D7 SWAP2 SWAP1 PUSH2 0x1866 JUMP JUMPDEST DUP2 MSTORE POP PUSH1 0x6 PUSH0 PUSH1 0x4 SLOAD DUP2 MSTORE PUSH1 0x20 ADD SWAP1 DUP2 MSTORE PUSH1 0x20 ADD PUSH0 KECCAK256 PUSH0 DUP3 ADD MLOAD DUP2 PUSH0 ADD SSTORE PUSH1 0x20 DUP3 ADD MLOAD DUP2 PUSH1 0x1 ADD SSTORE PUSH1 0x40 DUP3 ADD MLOAD DUP2 PUSH1 0x2 ADD SWAP1 DUP1 MLOAD SWAP1 PUSH1 0x20 ADD SWAP1 PUSH2 0xA1B SWAP3 SWAP2 SWAP1 PUSH2 0xD14 JUMP JUMPDEST POP SWAP1 POP POP CALLER PUSH20 0xFFFFFFFFFFFFFFFFFFFFFFFFFFFFFFFFFFFFFFFF AND PUSH1 0x4 SLOAD PUSH32 0x86D26C194D8C757E91F000BAAA05E15CD68DC60E2A49CB82CB25099AA54D5009 PUSH1 0x40 MLOAD PUSH1 0x40 MLOAD DUP1 SWAP2 SUB SWAP1 LOG3 POP POP POP JUMP JUMPDEST PUSH0 PUSH1 0x8 PUSH0 DUP5 DUP2 MSTORE PUSH1 0x20 ADD SWAP1 DUP2 MSTORE PUSH1 0x20 ADD PUSH0 KECCAK256 PUSH1 0x40 MLOAD DUP1 PUSH1 0x60 ADD PUSH1 0x40 MSTORE SWAP1 DUP2 PUSH0 DUP3 ADD SLOAD DUP2 MSTORE PUSH1 0x20 ADD PUSH1 0x1 DUP3 ADD SLOAD DUP2 MSTORE PUSH1 0x20 ADD PUSH1 0x2 DUP3 ADD SLOAD DUP2 MSTORE POP POP SWAP1 POP PUSH0 DUP2 PUSH1 0x20 ADD MLOAD SUB PUSH2 0xAF2 JUMPI DUP1 PUSH1 0x20 ADD MLOAD PUSH1 0x40 MLOAD PUSH32 0x8BF5343A00000000000000000000000000000000000000000000000000000000 DUP2 MSTORE PUSH1 0x4 ADD PUSH2 0xAE9 SWAP2 SWAP1 PUSH2 0x10E5 JUMP JUMPDEST PUSH1 0x40 MLOAD DUP1 SWAP2 SUB SWAP1 REVERT JUMPDEST PUSH0 PUSH1 0x6 PUSH0 DUP4 PUSH1 0x20 ADD MLOAD DUP2 MSTORE PUSH1 0x20 ADD SWAP1 DUP2 MSTORE PUSH1 0x20 ADD PUSH0 KECCAK256 PUSH1 0x40 MLOAD DUP1 PUSH1 0x60 ADD PUSH1 0x40 MSTORE SWAP1 DUP2 PUSH0 DUP3 ADD SLOAD DUP2 MSTORE PUSH1 0x20 ADD PUSH1 0x1 DUP3 ADD SLOAD DUP2 MSTORE PUSH1 0x20 ADD PUSH1 0x2 DUP3 ADD DUP1 SLOAD DUP1 PUSH1 0x20 MUL PUSH1 0x20 ADD PUSH1 0x40 MLOAD SWAP1 DUP2 ADD PUSH1 0x40 MSTORE DUP1 SWAP3 SWAP2 SWAP1 DUP2 DUP2 MSTORE PUSH1 0x20 ADD PUSH0 SWAP1 JUMPDEST DUP3 DUP3 LT ISZERO PUSH2 0xBF2 JUMPI DUP4 DUP3 SWAP1 PUSH0 MSTORE PUSH1 0x20 PUSH0 KECCAK256 ADD DUP1 SLOAD PUSH2 0xB67 SWAP1 PUSH2 0x155D JUMP JUMPDEST DUP1 PUSH1 0x1F ADD PUSH1 0x20 DUP1 SWAP2 DIV MUL PUSH1 0x20 ADD PUSH1 0x40 MLOAD SWAP1 DUP2 ADD PUSH1 0x40 MSTORE DUP1 SWAP3 SWAP2 SWAP1 DUP2 DUP2 MSTORE PUSH1 0x20 ADD DUP3 DUP1 SLOAD PUSH2 0xB93 SWAP1 PUSH2 0x155D JUMP JUMPDEST DUP1 ISZERO PUSH2 0xBDE JUMPI DUP1 PUSH1 0x1F LT PUSH2 0xBB5 JUMPI PUSH2 0x100 DUP1 DUP4 SLOAD DIV MUL DUP4 MSTORE SWAP2 PUSH1 0x20 ADD SWAP2 PUSH2 0xBDE JUMP JUMPDEST DUP3 ADD SWAP2 SWAP1 PUSH0 MSTORE PUSH1 0x20 PUSH0 KECCAK256 SWAP1 JUMPDEST DUP2 SLOAD DUP2 MSTORE SWAP1 PUSH1 0x1 ADD SWAP1 PUSH1 0x20 ADD DUP1 DUP4 GT PUSH2 0xBC1 JUMPI DUP3 SWAP1 SUB PUSH1 0x1F AND DUP3 ADD SWAP2 JUMPDEST POP POP POP POP POP DUP2 MSTORE PUSH1 0x20 ADD SWAP1 PUSH1 0x1 ADD SWAP1 PUSH2 0xB4A JUMP JUMPDEST POP POP POP POP DUP2 MSTORE POP POP SWAP1 POP PUSH0 DUP2 PUSH0 ADD MLOAD SUB PUSH2 0xC46 JUMPI DUP1 PUSH0 ADD MLOAD PUSH1 0x40 MLOAD PUSH32 0x8BF5343A00000000000000000000000000000000000000000000000000000000 DUP2 MSTORE PUSH1 0x4 ADD PUSH2 0xC3D SWAP2 SWAP1 PUSH2 0x10E5 JUMP JUMPDEST PUSH1 0x40 MLOAD DUP1 SWAP2 SUB SWAP1 REVERT JUMPDEST PUSH0 PUSH1 0x1 DUP3 PUSH1 0x20 ADD MLOAD DUP6 PUSH0 DUP2 MLOAD DUP2 LT PUSH2 0xC61 JUMPI PUSH2 0xC60 PUSH2 0x187A JUMP JUMPDEST JUMPDEST PUSH1 0x20 MUL PUSH1 0x20 ADD ADD MLOAD PUSH2 0xC73 SWAP2 SWAP1 PUSH2 0x18D4 JUMP JUMPDEST PUSH2 0xC7D SWAP2 SWAP1 PUSH2 0x1904 JUMP JUMPDEST SWAP1 POP DUP1 PUSH1 0x8 PUSH0 DUP8 DUP2 MSTORE PUSH1 0x20 ADD SWAP1 DUP2 MSTORE PUSH1 0x20 ADD PUSH0 KECCAK256 PUSH1 0x2 ADD DUP2 SWAP1 SSTORE POP DUP5 PUSH32 0x9DD757AD53679BD882232D07D50736DCBCC6AE740872ECC23B2849AF954ABDAF DUP3 PUSH1 0x40 MLOAD PUSH2 0xCC8 SWAP2 SWAP1 PUSH2 0x10E5 JUMP JUMPDEST PUSH1 0x40 MLOAD DUP1 SWAP2 SUB SWAP1 LOG2 POP POP POP POP POP JUMP JUMPDEST PUSH1 0x40 MLOAD DUP1 PUSH1 0x60 ADD PUSH1 0x40 MSTORE DUP1 PUSH0 DUP2 MSTORE PUSH1 0x20 ADD PUSH0 DUP2 MSTORE PUSH1 0x20 ADD PUSH1 0x60 DUP2 MSTORE POP SWAP1 JUMP JUMPDEST PUSH1 0x40 MLOAD DUP1 PUSH1 0x60 ADD PUSH1 0x40 MSTORE DUP1 PUSH0 DUP2 MSTORE PUSH1 0x20 ADD PUSH0 DUP2 MSTORE PUSH1 0x20 ADD PUSH0 DUP2 MSTORE POP SWAP1 JUMP JUMPDEST DUP3 DUP1 SLOAD DUP3 DUP3 SSTORE SWAP1 PUSH0 MSTORE PUSH1 0x20 PUSH0 KECCAK256 SWAP1 DUP2 ADD SWAP3 DUP3 ISZERO PUSH2 0xD5A JUMPI SWAP2 PUSH1 0x20 MUL DUP3 ADD JUMPDEST DUP3 DUP2 GT ISZERO PUSH2 0xD59 JUMPI DUP3 MLOAD DUP3 SWAP1 DUP2 PUSH2 0xD49 SWAP2 SWAP1 PUSH2 0x1AD4 JUMP JUMPDEST POP SWAP2 PUSH1 0x20 ADD SWAP2 SWAP1 PUSH1 0x1 ADD SWAP1 PUSH2 0xD32 JUMP JUMPDEST JUMPDEST POP SWAP1 POP PUSH2 0xD67 SWAP2 SWAP1 PUSH2 0xD6B JUMP JUMPDEST POP SWAP1 JUMP JUMPDEST JUMPDEST DUP1 DUP3 GT ISZERO PUSH2 0xD8A JUMPI PUSH0 DUP2 DUP2 PUSH2 0xD81 SWAP2 SWAP1 PUSH2 0xD8E JUMP JUMPDEST POP PUSH1 0x1 ADD PUSH2 0xD6C JUMP JUMPDEST POP SWAP1 JUMP JUMPDEST POP DUP1 SLOAD PUSH2 0xD9A SWAP1 PUSH2 0x155D JUMP JUMPDEST PUSH0 DUP3 SSTORE DUP1 PUSH1 0x1F LT PUSH2 0xDAB JUMPI POP PUSH2 0xDC8 JUMP JUMPDEST PUSH1 0x1F ADD PUSH1 0x20 SWAP1 DIV SWAP1 PUSH0 MSTORE PUSH1 0x20 PUSH0 KECCAK256 SWAP1 DUP2 ADD SWAP1 PUSH2 0xDC7 SWAP2 SWAP1 PUSH2 0xDCB JUMP JUMPDEST JUMPDEST POP JUMP JUMPDEST JUMPDEST DUP1 DUP3 GT ISZERO PUSH2 0xDE2 JUMPI PUSH0 DUP2 PUSH0 SWAP1 SSTORE POP PUSH1 0x1 ADD PUSH2 0xDCC JUMP JUMPDEST POP SWAP1 JUMP JUMPDEST PUSH0 PUSH1 0x40 MLOAD SWAP1 POP SWAP1 JUMP JUMPDEST PUSH0 DUP1 REVERT JUMPDEST PUSH0 DUP1 REVERT JUMPDEST PUSH0 DUP2 SWAP1 POP SWAP2 SWAP1 POP JUMP JUMPDEST PUSH2 0xE09 DUP2 PUSH2 0xDF7 JUMP JUMPDEST DUP2 EQ PUSH2 0xE13 JUMPI PUSH0 DUP1 REVERT JUMPDEST POP JUMP JUMPDEST PUSH0 DUP2 CALLDATALOAD SWAP1 POP PUSH2 0xE24 DUP2 PUSH2 0xE00 JUMP JUMPDEST SWAP3 SWAP2 POP POP JUMP JUMPDEST PUSH0 DUP1 REVERT JUMPDEST PUSH0 PUSH1 0x1F NOT PUSH1 0x1F DUP4 ADD AND SWAP1 POP SWAP2 SWAP1 POP JUMP JUMPDEST PUSH32 0x4E487B7100000000000000000000000000000000000000000000000000000000 PUSH0 MSTORE PUSH1 0x41 PUSH1 0x4 MSTORE PUSH1 0x24 PUSH0 REVERT JUMPDEST PUSH2 0xE74 DUP3 PUSH2 0xE2E JUMP JUMPDEST DUP2 ADD DUP2 DUP2 LT PUSH8 0xFFFFFFFFFFFFFFFF DUP3 GT OR ISZERO PUSH2 0xE93 JUMPI PUSH2 0xE92 PUSH2 0xE3E JUMP JUMPDEST JUMPDEST DUP1 PUSH1 0x40 MSTORE POP POP POP JUMP JUMPDEST PUSH0 PUSH2 0xEA5 PUSH2 0xDE6 JUMP JUMPDEST SWAP1 POP PUSH2 0xEB1 DUP3 DUP3 PUSH2 0xE6B JUMP JUMPDEST SWAP2 SWAP1 POP JUMP JUMPDEST PUSH0 PUSH8 0xFFFFFFFFFFFFFFFF DUP3 GT ISZERO PUSH2 0xED0 JUMPI PUSH2 0xECF PUSH2 0xE3E JUMP JUMPDEST JUMPDEST PUSH1 0x20 DUP3 MUL SWAP1 POP PUSH1 0x20 DUP2 ADD SWAP1 POP SWAP2 SWAP1 POP JUMP JUMPDEST PUSH0 DUP1 REVERT JUMPDEST PUSH0 PUSH2 0xEF7 PUSH2 0xEF2 DUP5 PUSH2 0xEB6 JUMP JUMPDEST PUSH2 0xE9C JUMP JUMPDEST SWAP1 POP DUP1 DUP4 DUP3 MSTORE PUSH1 0x20 DUP3 ADD SWAP1 POP PUSH1 0x20 DUP5 MUL DUP4 ADD DUP6 DUP2 GT ISZERO PUSH2 0xF1A JUMPI PUSH2 0xF19 PUSH2 0xEE1 JUMP JUMPDEST JUMPDEST DUP4 JUMPDEST DUP2 DUP2 LT ISZERO PUSH2 0xF43 JUMPI DUP1 PUSH2 0xF2F DUP9 DUP3 PUSH2 0xE16 JUMP JUMPDEST DUP5 MSTORE PUSH1 0x20 DUP5 ADD SWAP4 POP POP PUSH1 0x20 DUP2 ADD SWAP1 POP PUSH2 0xF1C JUMP JUMPDEST POP POP POP SWAP4 SWAP3 POP POP POP JUMP JUMPDEST PUSH0 DUP3 PUSH1 0x1F DUP4 ADD SLT PUSH2 0xF61 JUMPI PUSH2 0xF60 PUSH2 0xE2A JUMP JUMPDEST JUMPDEST DUP2 CALLDATALOAD PUSH2 0xF71 DUP5 DUP3 PUSH1 0x20 DUP7 ADD PUSH2 0xEE5 JUMP JUMPDEST SWAP2 POP POP SWAP3 SWAP2 POP POP JUMP JUMPDEST PUSH0 DUP1 PUSH1 0x40 DUP4 DUP6 SUB SLT ISZERO PUSH2 0xF90 JUMPI PUSH2 0xF8F PUSH2 0xDEF JUMP JUMPDEST JUMPDEST PUSH0 PUSH2 0xF9D DUP6 DUP3 DUP7 ADD PUSH2 0xE16 JUMP JUMPDEST SWAP3 POP POP PUSH1 0x20 DUP4 ADD CALLDATALOAD PUSH8 0xFFFFFFFFFFFFFFFF DUP2 GT ISZERO PUSH2 0xFBE JUMPI PUSH2 0xFBD PUSH2 0xDF3 JUMP JUMPDEST JUMPDEST PUSH2 0xFCA DUP6 DUP3 DUP7 ADD PUSH2 0xF4D JUMP JUMPDEST SWAP2 POP POP SWAP3 POP SWAP3 SWAP1 POP JUMP JUMPDEST PUSH0 PUSH1 0x20 DUP3 DUP5 SUB SLT ISZERO PUSH2 0xFE9 JUMPI PUSH2 0xFE8 PUSH2 0xDEF JUMP JUMPDEST JUMPDEST PUSH0 PUSH2 0xFF6 DUP5 DUP3 DUP6 ADD PUSH2 0xE16 JUMP JUMPDEST SWAP2 POP POP SWAP3 SWAP2 POP POP JUMP JUMPDEST PUSH0 DUP2 MLOAD SWAP1 POP SWAP2 SWAP1 POP JUMP JUMPDEST PUSH0 DUP3 DUP3 MSTORE PUSH1 0x20 DUP3 ADD SWAP1 POP SWAP3 SWAP2 POP POP JUMP JUMPDEST PUSH0 DUP2 SWAP1 POP PUSH1 0x20 DUP3 ADD SWAP1 POP SWAP2 SWAP1 POP JUMP JUMPDEST PUSH2 0x1031 DUP2 PUSH2 0xDF7 JUMP JUMPDEST DUP3 MSTORE POP POP JUMP JUMPDEST PUSH0 PUSH2 0x1042 DUP4 DUP4 PUSH2 0x1028 JUMP JUMPDEST PUSH1 0x20 DUP4 ADD SWAP1 POP SWAP3 SWAP2 POP POP JUMP JUMPDEST PUSH0 PUSH1 0x20 DUP3 ADD SWAP1 POP SWAP2 SWAP1 POP JUMP JUMPDEST PUSH0 PUSH2 0x1064 DUP3 PUSH2 0xFFF JUMP JUMPDEST PUSH2 0x106E DUP2 DUP6 PUSH2 0x1009 JUMP JUMPDEST SWAP4 POP PUSH2 0x1079 DUP4 PUSH2 0x1019 JUMP JUMPDEST DUP1 PUSH0 JUMPDEST DUP4 DUP2 LT ISZERO PUSH2 0x10A9 JUMPI DUP2 MLOAD PUSH2 0x1090 DUP9 DUP3 PUSH2 0x1037 JUMP JUMPDEST SWAP8 POP PUSH2 0x109B DUP4 PUSH2 0x104E JUMP JUMPDEST SWAP3 POP POP PUSH1 0x1 DUP2 ADD SWAP1 POP PUSH2 0x107C JUMP JUMPDEST POP DUP6 SWAP4 POP POP POP POP SWAP3 SWAP2 POP POP JUMP JUMPDEST PUSH0 PUSH1 0x20 DUP3 ADD SWAP1 POP DUP2 DUP2 SUB PUSH0 DUP4 ADD MSTORE PUSH2 0x10CE DUP2 DUP5 PUSH2 0x105A JUMP JUMPDEST SWAP1 POP SWAP3 SWAP2 POP POP JUMP JUMPDEST PUSH2 0x10DF DUP2 PUSH2 0xDF7 JUMP JUMPDEST DUP3 MSTORE POP POP JUMP JUMPDEST PUSH0 PUSH1 0x20 DUP3 ADD SWAP1 POP PUSH2 0x10F8 PUSH0 DUP4 ADD DUP5 PUSH2 0x10D6 JUMP JUMPDEST SWAP3 SWAP2 POP POP JUMP JUMPDEST PUSH0 DUP2 MLOAD SWAP1 POP SWAP2 SWAP1 POP JUMP JUMPDEST PUSH0 DUP3 DUP3 MSTORE PUSH1 0x20 DUP3 ADD SWAP1 POP SWAP3 SWAP2 POP POP JUMP JUMPDEST PUSH0 DUP2 SWAP1 POP PUSH1 0x20 DUP3 ADD SWAP1 POP SWAP2 SWAP1 POP JUMP JUMPDEST PUSH0 DUP2 MLOAD SWAP1 POP SWAP2 SWAP1 POP JUMP JUMPDEST PUSH0 DUP3 DUP3 MSTORE PUSH1 0x20 DUP3 ADD SWAP1 POP SWAP3 SWAP2 POP POP JUMP JUMPDEST PUSH0 JUMPDEST DUP4 DUP2 LT ISZERO PUSH2 0x115E JUMPI DUP1 DUP3 ADD MLOAD DUP2 DUP5 ADD MSTORE PUSH1 0x20 DUP2 ADD SWAP1 POP PUSH2 0x1143 JUMP JUMPDEST PUSH0 DUP5 DUP5 ADD MSTORE POP POP POP POP JUMP JUMPDEST PUSH0 PUSH2 0x1173 DUP3 PUSH2 0x1127 JUMP JUMPDEST PUSH2 0x117D DUP2 DUP6 PUSH2 0x1131 JUMP JUMPDEST SWAP4 POP PUSH2 0x118D DUP2 DUP6 PUSH1 0x20 DUP7 ADD PUSH2 0x1141 JUMP JUMPDEST PUSH2 0x1196 DUP2 PUSH2 0xE2E JUMP JUMPDEST DUP5 ADD SWAP2 POP POP SWAP3 SWAP2 POP POP JUMP JUMPDEST PUSH0 PUSH2 0x11AC DUP4 DUP4 PUSH2 0x1169 JUMP JUMPDEST SWAP1 POP SWAP3 SWAP2 POP POP JUMP JUMPDEST PUSH0 PUSH1 0x20 DUP3 ADD SWAP1 POP SWAP2 SWAP1 POP JUMP JUMPDEST PUSH0 PUSH2 0x11CA DUP3 PUSH2 0x10FE JUMP JUMPDEST PUSH2 0x11D4 DUP2 DUP6 PUSH2 0x1108 JUMP JUMPDEST SWAP4 POP DUP4 PUSH1 0x20 DUP3 MUL DUP6 ADD PUSH2 0x11E6 DUP6 PUSH2 0x1118 JUMP JUMPDEST DUP1 PUSH0 JUMPDEST DUP6 DUP2 LT ISZERO PUSH2 0x1221 JUMPI DUP5 DUP5 SUB DUP10 MSTORE DUP2 MLOAD PUSH2 0x1202 DUP6 DUP3 PUSH2 0x11A1 JUMP JUMPDEST SWAP5 POP PUSH2 0x120D DUP4 PUSH2 0x11B4 JUMP JUMPDEST SWAP3 POP PUSH1 0x20 DUP11 ADD SWAP10 POP POP PUSH1 0x1 DUP2 ADD SWAP1 POP PUSH2 0x11E9 JUMP JUMPDEST POP DUP3 SWAP8 POP DUP8 SWAP6 POP POP POP POP POP POP SWAP3 SWAP2 POP POP JUMP JUMPDEST PUSH0 PUSH1 0x60 DUP4 ADD PUSH0 DUP4 ADD MLOAD PUSH2 0x1248 PUSH0 DUP7 ADD DUP3 PUSH2 0x1028 JUMP JUMPDEST POP PUSH1 0x20 DUP4 ADD MLOAD PUSH2 0x125B PUSH1 0x20 DUP7 ADD DUP3 PUSH2 0x1028 JUMP JUMPDEST POP PUSH1 0x40 DUP4 ADD MLOAD DUP5 DUP3 SUB PUSH1 0x40 DUP7 ADD MSTORE PUSH2 0x1273 DUP3 DUP3 PUSH2 0x11C0 JUMP JUMPDEST SWAP2 POP POP DUP1 SWAP2 POP POP SWAP3 SWAP2 POP POP JUMP JUMPDEST PUSH0 PUSH1 0x20 DUP3 ADD SWAP1 POP DUP2 DUP2 SUB PUSH0 DUP4 ADD MSTORE PUSH2 0x1298 DUP2 DUP5 PUSH2 0x1233 JUMP JUMPDEST SWAP1 POP SWAP3 SWAP2 POP POP JUMP JUMPDEST PUSH0 PUSH1 0x60 DUP3 ADD SWAP1 POP PUSH2 0x12B3 PUSH0 DUP4 ADD DUP7 PUSH2 0x10D6 JUMP JUMPDEST PUSH2 0x12C0 PUSH1 0x20 DUP4 ADD DUP6 PUSH2 0x10D6 JUMP JUMPDEST PUSH2 0x12CD PUSH1 0x40 DUP4 ADD DUP5 PUSH2 0x10D6 JUMP JUMPDEST SWAP5 SWAP4 POP POP POP POP JUMP JUMPDEST PUSH0 DUP1 PUSH1 0x40 DUP4 DUP6 SUB SLT ISZERO PUSH2 0x12EB JUMPI PUSH2 0x12EA PUSH2 0xDEF JUMP JUMPDEST JUMPDEST PUSH0 PUSH2 0x12F8 DUP6 DUP3 DUP7 ADD PUSH2 0xE16 JUMP JUMPDEST SWAP3 POP POP PUSH1 0x20 PUSH2 0x1309 DUP6 DUP3 DUP7 ADD PUSH2 0xE16 JUMP JUMPDEST SWAP2 POP POP SWAP3 POP SWAP3 SWAP1 POP JUMP JUMPDEST PUSH0 PUSH20 0xFFFFFFFFFFFFFFFFFFFFFFFFFFFFFFFFFFFFFFFF DUP3 AND SWAP1 POP SWAP2 SWAP1 POP JUMP JUMPDEST PUSH0 PUSH2 0x133C DUP3 PUSH2 0x1313 JUMP JUMPDEST SWAP1 POP SWAP2 SWAP1 POP JUMP JUMPDEST PUSH2 0x134C DUP2 PUSH2 0x1332 JUMP JUMPDEST DUP2 EQ PUSH2 0x1356 JUMPI PUSH0 DUP1 REVERT JUMPDEST POP JUMP JUMPDEST PUSH0 DUP2 CALLDATALOAD SWAP1 POP PUSH2 0x1367 DUP2 PUSH2 0x1343 JUMP JUMPDEST SWAP3 SWAP2 POP POP JUMP JUMPDEST PUSH0 PUSH1 0x20 DUP3 DUP5 SUB SLT ISZERO PUSH2 0x1382 JUMPI PUSH2 0x1381 PUSH2 0xDEF JUMP JUMPDEST JUMPDEST PUSH0 PUSH2 0x138F DUP5 DUP3 DUP6 ADD PUSH2 0x1359 JUMP JUMPDEST SWAP2 POP POP SWAP3 SWAP2 POP POP JUMP JUMPDEST PUSH0 DUP1 PUSH1 0x40 DUP4 DUP6 SUB SLT ISZERO PUSH2 0x13AE JUMPI PUSH2 0x13AD PUSH2 0xDEF JUMP JUMPDEST JUMPDEST PUSH0 PUSH2 0x13BB DUP6 DUP3 DUP7 ADD PUSH2 0x1359 JUMP JUMPDEST SWAP3 POP POP PUSH1 0x20 PUSH2 0x13CC DUP6 DUP3 DUP7 ADD PUSH2 0xE16 JUMP JUMPDEST SWAP2 POP POP SWAP3 POP SWAP3 SWAP1 POP JUMP JUMPDEST PUSH1 0x60 DUP3 ADD PUSH0 DUP3 ADD MLOAD PUSH2 0x13EA PUSH0 DUP6 ADD DUP3 PUSH2 0x1028 JUMP JUMPDEST POP PUSH1 0x20 DUP3 ADD MLOAD PUSH2 0x13FD PUSH1 0x20 DUP6 ADD DUP3 PUSH2 0x1028 JUMP JUMPDEST POP PUSH1 0x40 DUP3 ADD MLOAD PUSH2 0x1410 PUSH1 0x40 DUP6 ADD DUP3 PUSH2 0x1028 JUMP JUMPDEST POP POP POP POP JUMP JUMPDEST PUSH0 PUSH1 0x60 DUP3 ADD SWAP1 POP PUSH2 0x1429 PUSH0 DUP4 ADD DUP5 PUSH2 0x13D6 JUMP JUMPDEST SWAP3 SWAP2 POP POP JUMP JUMPDEST PUSH0 PUSH1 0x40 DUP3 ADD SWAP1 POP PUSH2 0x1442 PUSH0 DUP4 ADD DUP6 PUSH2 0x10D6 JUMP JUMPDEST PUSH2 0x144F PUSH1 0x20 DUP4 ADD DUP5 PUSH2 0x10D6 JUMP JUMPDEST SWAP4 SWAP3 POP POP POP JUMP JUMPDEST PUSH0 DUP1 REVERT JUMPDEST PUSH0 DUP1 DUP4 PUSH1 0x1F DUP5 ADD SLT PUSH2 0x146F JUMPI PUSH2 0x146E PUSH2 0xE2A JUMP JUMPDEST JUMPDEST DUP3 CALLDATALOAD SWAP1 POP PUSH8 0xFFFFFFFFFFFFFFFF DUP2 GT ISZERO PUSH2 0x148C JUMPI PUSH2 0x148B PUSH2 0x1456 JUMP JUMPDEST JUMPDEST PUSH1 0x20 DUP4 ADD SWAP2 POP DUP4 PUSH1 0x20 DUP3 MUL DUP4 ADD GT ISZERO PUSH2 0x14A8 JUMPI PUSH2 0x14A7 PUSH2 0xEE1 JUMP JUMPDEST JUMPDEST SWAP3 POP SWAP3 SWAP1 POP JUMP JUMPDEST PUSH0 DUP1 PUSH1 0x20 DUP4 DUP6 SUB SLT ISZERO PUSH2 0x14C5 JUMPI PUSH2 0x14C4 PUSH2 0xDEF JUMP JUMPDEST JUMPDEST PUSH0 DUP4 ADD CALLDATALOAD PUSH8 0xFFFFFFFFFFFFFFFF DUP2 GT ISZERO PUSH2 0x14E2 JUMPI PUSH2 0x14E1 PUSH2 0xDF3 JUMP JUMPDEST JUMPDEST PUSH2 0x14EE DUP6 DUP3 DUP7 ADD PUSH2 0x145A JUMP JUMPDEST SWAP3 POP SWAP3 POP POP SWAP3 POP SWAP3 SWAP1 POP JUMP JUMPDEST PUSH2 0x1503 DUP2 PUSH2 0x1332 JUMP JUMPDEST DUP3 MSTORE POP POP JUMP JUMPDEST PUSH0 PUSH1 0x40 DUP3 ADD SWAP1 POP PUSH2 0x151C PUSH0 DUP4 ADD DUP6 PUSH2 0x14FA JUMP JUMPDEST PUSH2 0x1529 PUSH1 0x20 DUP4 ADD DUP5 PUSH2 0x14FA JUMP JUMPDEST SWAP4 SWAP3 POP POP POP JUMP JUMPDEST PUSH32 0x4E487B7100000000000000000000000000000000000000000000000000000000 PUSH0 MSTORE PUSH1 0x22 PUSH1 0x4 MSTORE PUSH1 0x24 PUSH0 REVERT JUMPDEST PUSH0 PUSH1 0x2 DUP3 DIV SWAP1 POP PUSH1 0x1 DUP3 AND DUP1 PUSH2 0x1574 JUMPI PUSH1 0x7F DUP3 AND SWAP2 POP JUMPDEST PUSH1 0x20 DUP3 LT DUP2 SUB PUSH2 0x1587 JUMPI PUSH2 0x1586 PUSH2 0x1530 JUMP JUMPDEST JUMPDEST POP SWAP2 SWAP1 POP JUMP JUMPDEST PUSH0 DUP2 SWAP1 POP SWAP2 SWAP1 POP JUMP JUMPDEST PUSH2 0x159F DUP2 PUSH2 0x158D JUMP JUMPDEST DUP3 MSTORE POP POP JUMP JUMPDEST PUSH0 PUSH8 0xFFFFFFFFFFFFFFFF DUP3 AND SWAP1 POP SWAP2 SWAP1 POP JUMP JUMPDEST PUSH2 0x15C1 DUP2 PUSH2 0x15A5 JUMP JUMPDEST DUP3 MSTORE POP POP JUMP JUMPDEST PUSH0 PUSH2 0xFFFF DUP3 AND SWAP1 POP SWAP2 SWAP1 POP JUMP JUMPDEST PUSH2 0x15DD DUP2 PUSH2 0x15C7 JUMP JUMPDEST DUP3 MSTORE POP POP JUMP JUMPDEST PUSH0 PUSH4 0xFFFFFFFF DUP3 AND SWAP1 POP SWAP2 SWAP1 POP JUMP JUMPDEST PUSH2 0x15FB DUP2 PUSH2 0x15E3 JUMP JUMPDEST DUP3 MSTORE POP POP JUMP JUMPDEST PUSH0 PUSH1 0xA0 DUP3 ADD SWAP1 POP PUSH2 0x1614 PUSH0 DUP4 ADD DUP9 PUSH2 0x1596 JUMP JUMPDEST PUSH2 0x1621 PUSH1 0x20 DUP4 ADD DUP8 PUSH2 0x15B8 JUMP JUMPDEST PUSH2 0x162E PUSH1 0x40 DUP4 ADD DUP7 PUSH2 0x15D4 JUMP JUMPDEST PUSH2 0x163B PUSH1 0x60 DUP4 ADD DUP6 PUSH2 0x15F2 JUMP JUMPDEST PUSH2 0x1648 PUSH1 0x80 DUP4 ADD DUP5 PUSH2 0x15F2 JUMP JUMPDEST SWAP7 SWAP6 POP POP POP POP POP POP JUMP JUMPDEST PUSH0 DUP2 MLOAD SWAP1 POP PUSH2 0x1660 DUP2 PUSH2 0xE00 JUMP JUMPDEST SWAP3 SWAP2 POP POP JUMP JUMPDEST PUSH0 PUSH1 0x20 DUP3 DUP5 SUB SLT ISZERO PUSH2 0x167B JUMPI PUSH2 0x167A PUSH2 0xDEF JUMP JUMPDEST JUMPDEST PUSH0 PUSH2 0x1688 DUP5 DUP3 DUP6 ADD PUSH2 0x1652 JUMP JUMPDEST SWAP2 POP POP SWAP3 SWAP2 POP POP JUMP JUMPDEST PUSH32 0x4E487B7100000000000000000000000000000000000000000000000000000000 PUSH0 MSTORE PUSH1 0x11 PUSH1 0x4 MSTORE PUSH1 0x24 PUSH0 REVERT JUMPDEST PUSH0 PUSH2 0x16C8 DUP3 PUSH2 0xDF7 JUMP JUMPDEST SWAP2 POP PUSH32 0xFFFFFFFFFFFFFFFFFFFFFFFFFFFFFFFFFFFFFFFFFFFFFFFFFFFFFFFFFFFFFFFF DUP3 SUB PUSH2 0x16FA JUMPI PUSH2 0x16F9 PUSH2 0x1691 JUMP JUMPDEST JUMPDEST PUSH1 0x1 DUP3 ADD SWAP1 POP SWAP2 SWAP1 POP JUMP JUMPDEST PUSH0 PUSH8 0xFFFFFFFFFFFFFFFF DUP3 GT ISZERO PUSH2 0x171F JUMPI PUSH2 0x171E PUSH2 0xE3E JUMP JUMPDEST JUMPDEST PUSH1 0x20 DUP3 MUL SWAP1 POP PUSH1 0x20 DUP2 ADD SWAP1 POP SWAP2 SWAP1 POP JUMP JUMPDEST PUSH0 DUP1 REVERT JUMPDEST PUSH0 PUSH8 0xFFFFFFFFFFFFFFFF DUP3 GT ISZERO PUSH2 0x174E JUMPI PUSH2 0x174D PUSH2 0xE3E JUMP JUMPDEST JUMPDEST PUSH2 0x1757 DUP3 PUSH2 0xE2E JUMP JUMPDEST SWAP1 POP PUSH1 0x20 DUP2 ADD SWAP1 POP SWAP2 SWAP1 POP JUMP JUMPDEST DUP3 DUP2 DUP4 CALLDATACOPY PUSH0 DUP4 DUP4 ADD MSTORE POP POP POP JUMP JUMPDEST PUSH0 PUSH2 0x1784 PUSH2 0x177F DUP5 PUSH2 0x1734 JUMP JUMPDEST PUSH2 0xE9C JUMP JUMPDEST SWAP1 POP DUP3 DUP2 MSTORE PUSH1 0x20 DUP2 ADD DUP5 DUP5 DUP5 ADD GT ISZERO PUSH2 0x17A0 JUMPI PUSH2 0x179F PUSH2 0x1730 JUMP JUMPDEST JUMPDEST PUSH2 0x17AB DUP5 DUP3 DUP6 PUSH2 0x1764 JUMP JUMPDEST POP SWAP4 SWAP3 POP POP POP JUMP JUMPDEST PUSH0 DUP3 PUSH1 0x1F DUP4 ADD SLT PUSH2 0x17C7 JUMPI PUSH2 0x17C6 PUSH2 0xE2A JUMP JUMPDEST JUMPDEST DUP2 CALLDATALOAD PUSH2 0x17D7 DUP5 DUP3 PUSH1 0x20 DUP7 ADD PUSH2 0x1772 JUMP JUMPDEST SWAP2 POP POP SWAP3 SWAP2 POP POP JUMP JUMPDEST PUSH0 PUSH2 0x17F2 PUSH2 0x17ED DUP5 PUSH2 0x1705 JUMP JUMPDEST PUSH2 0xE9C JUMP JUMPDEST SWAP1 POP DUP1 DUP4 DUP3 MSTORE PUSH1 0x20 DUP3 ADD SWAP1 POP PUSH1 0x20 DUP5 MUL DUP4 ADD DUP6 DUP2 GT ISZERO PUSH2 0x1815 JUMPI PUSH2 0x1814 PUSH2 0xEE1 JUMP JUMPDEST JUMPDEST DUP4 JUMPDEST DUP2 DUP2 LT ISZERO PUSH2 0x185C JUMPI DUP1 CALLDATALOAD PUSH8 0xFFFFFFFFFFFFFFFF DUP2 GT ISZERO PUSH2 0x183A JUMPI PUSH2 0x1839 PUSH2 0xE2A JUMP JUMPDEST JUMPDEST DUP1 DUP7 ADD PUSH2 0x1847 DUP10 DUP3 PUSH2 0x17B3 JUMP JUMPDEST DUP6 MSTORE PUSH1 0x20 DUP6 ADD SWAP5 POP POP POP PUSH1 0x20 DUP2 ADD SWAP1 POP PUSH2 0x1817 JUMP JUMPDEST POP POP POP SWAP4 SWAP3 POP POP POP JUMP JUMPDEST PUSH0 PUSH2 0x1872 CALLDATASIZE DUP5 DUP5 PUSH2 0x17E0 JUMP JUMPDEST SWAP1 POP SWAP3 SWAP2 POP POP JUMP JUMPDEST PUSH32 0x4E487B7100000000000000000000000000000000000000000000000000000000 PUSH0 MSTORE PUSH1 0x32 PUSH1 0x4 MSTORE PUSH1 0x24 PUSH0 REVERT JUMPDEST PUSH32 0x4E487B7100000000000000000000000000000000000000000000000000000000 PUSH0 MSTORE PUSH1 0x12 PUSH1 0x4 MSTORE PUSH1 0x24 PUSH0 REVERT JUMPDEST PUSH0 PUSH2 0x18DE DUP3 PUSH2 0xDF7 JUMP JUMPDEST SWAP2 POP PUSH2 0x18E9 DUP4 PUSH2 0xDF7 JUMP JUMPDEST SWAP3 POP DUP3 PUSH2 0x18F9 JUMPI PUSH2 0x18F8 PUSH2 0x18A7 JUMP JUMPDEST JUMPDEST DUP3 DUP3 MOD SWAP1 POP SWAP3 SWAP2 POP POP JUMP JUMPDEST PUSH0 PUSH2 0x190E DUP3 PUSH2 0xDF7 JUMP JUMPDEST SWAP2 POP PUSH2 0x1919 DUP4 PUSH2 0xDF7 JUMP JUMPDEST SWAP3 POP DUP3 DUP3 ADD SWAP1 POP DUP1 DUP3 GT ISZERO PUSH2 0x1931 JUMPI PUSH2 0x1930 PUSH2 0x1691 JUMP JUMPDEST JUMPDEST SWAP3 SWAP2 POP POP JUMP JUMPDEST PUSH0 DUP2 SWAP1 POP DUP2 PUSH0 MSTORE PUSH1 0x20 PUSH0 KECCAK256 SWAP1 POP SWAP2 SWAP1 POP JUMP JUMPDEST PUSH0 PUSH1 0x20 PUSH1 0x1F DUP4 ADD DIV SWAP1 POP SWAP2 SWAP1 POP JUMP JUMPDEST PUSH0 DUP3 DUP3 SHL SWAP1 POP SWAP3 SWAP2 POP POP JUMP JUMPDEST PUSH0 PUSH1 0x8 DUP4 MUL PUSH2 0x1993 PUSH32 0xFFFFFFFFFFFFFFFFFFFFFFFFFFFFFFFFFFFFFFFFFFFFFFFFFFFFFFFFFFFFFFFF DUP3 PUSH2 0x1958 JUMP JUMPDEST PUSH2 0x199D DUP7 DUP4 PUSH2 0x1958 JUMP JUMPDEST SWAP6 POP DUP1 NOT DUP5 AND SWAP4 POP DUP1 DUP7 AND DUP5 OR SWAP3 POP POP POP SWAP4 SWAP3 POP POP POP JUMP JUMPDEST PUSH0 DUP2 SWAP1 POP SWAP2 SWAP1 POP JUMP JUMPDEST PUSH0 PUSH2 0x19D8 PUSH2 0x19D3 PUSH2 0x19CE DUP5 PUSH2 0xDF7 JUMP JUMPDEST PUSH2 0x19B5 JUMP JUMPDEST PUSH2 0xDF7 JUMP JUMPDEST SWAP1 POP SWAP2 SWAP1 POP JUMP JUMPDEST PUSH0 DUP2 SWAP1 POP SWAP2 SWAP1 POP JUMP JUMPDEST PUSH2 0x19F1 DUP4 PUSH2 0x19BE JUMP JUMPDEST PUSH2 0x1A05 PUSH2 0x19FD DUP3 PUSH2 0x19DF JUMP JUMPDEST DUP5 DUP5 SLOAD PUSH2 0x1964 JUMP JUMPDEST DUP3 SSTORE POP POP POP POP JUMP JUMPDEST PUSH0 SWAP1 JUMP JUMPDEST PUSH2 0x1A19 PUSH2 0x1A0D JUMP JUMPDEST PUSH2 0x1A24 DUP2 DUP5 DUP5 PUSH2 0x19E8 JUMP JUMPDEST POP POP POP JUMP JUMPDEST JUMPDEST DUP2 DUP2 LT ISZERO PUSH2 0x1A47 JUMPI PUSH2 0x1A3C PUSH0 DUP3 PUSH2 0x1A11 JUMP JUMPDEST PUSH1 0x1 DUP2 ADD SWAP1 POP PUSH2 0x1A2A JUMP JUMPDEST POP POP JUMP JUMPDEST PUSH1 0x1F DUP3 GT ISZERO PUSH2 0x1A8C JUMPI PUSH2 0x1A5D DUP2 PUSH2 0x1937 JUMP JUMPDEST PUSH2 0x1A66 DUP5 PUSH2 0x1949 JUMP JUMPDEST DUP2 ADD PUSH1 0x20 DUP6 LT ISZERO PUSH2 0x1A75 JUMPI DUP2 SWAP1 POP JUMPDEST PUSH2 0x1A89 PUSH2 0x1A81 DUP6 PUSH2 0x1949 JUMP JUMPDEST DUP4 ADD DUP3 PUSH2 0x1A29 JUMP JUMPDEST POP POP JUMPDEST POP POP POP JUMP JUMPDEST PUSH0 DUP3 DUP3 SHR SWAP1 POP SWAP3 SWAP2 POP POP JUMP JUMPDEST PUSH0 PUSH2 0x1AAC PUSH0 NOT DUP5 PUSH1 0x8 MUL PUSH2 0x1A91 JUMP JUMPDEST NOT DUP1 DUP4 AND SWAP2 POP POP SWAP3 SWAP2 POP POP JUMP JUMPDEST PUSH0 PUSH2 0x1AC4 DUP4 DUP4 PUSH2 0x1A9D JUMP JUMPDEST SWAP2 POP DUP3 PUSH1 0x2 MUL DUP3 OR SWAP1 POP SWAP3 SWAP2 POP POP JUMP JUMPDEST PUSH2 0x1ADD DUP3 PUSH2 0x1127 JUMP JUMPDEST PUSH8 0xFFFFFFFFFFFFFFFF DUP2 GT ISZERO PUSH2 0x1AF6 JUMPI PUSH2 0x1AF5 PUSH2 0xE3E JUMP JUMPDEST JUMPDEST PUSH2 0x1B00 DUP3 SLOAD PUSH2 0x155D JUMP JUMPDEST PUSH2 0x1B0B DUP3 DUP3 DUP6 PUSH2 0x1A4B JUMP JUMPDEST PUSH0 PUSH1 0x20 SWAP1 POP PUSH1 0x1F DUP4 GT PUSH1 0x1 DUP2 EQ PUSH2 0x1B3C JUMPI PUSH0 DUP5 ISZERO PUSH2 0x1B2A JUMPI DUP3 DUP8 ADD MLOAD SWAP1 POP JUMPDEST PUSH2 0x1B34 DUP6 DUP3 PUSH2 0x1AB9 JUMP JUMPDEST DUP7 SSTORE POP PUSH2 0x1B9B JUMP JUMPDEST PUSH1 0x1F NOT DUP5 AND PUSH2 0x1B4A DUP7 PUSH2 0x1937 JUMP JUMPDEST PUSH0 JUMPDEST DUP3 DUP2 LT ISZERO PUSH2 0x1B71 JUMPI DUP5 DUP10 ADD MLOAD DUP3 SSTORE PUSH1 0x1 DUP3 ADD SWAP2 POP PUSH1 0x20 DUP6 ADD SWAP5 POP PUSH1 0x20 DUP2 ADD SWAP1 POP PUSH2 0x1B4C JUMP JUMPDEST DUP7 DUP4 LT ISZERO PUSH2 0x1B8E JUMPI DUP5 DUP10 ADD MLOAD PUSH2 0x1B8A PUSH1 0x1F DUP10 AND DUP3 PUSH2 0x1A9D JUMP JUMPDEST DUP4 SSTORE POP JUMPDEST PUSH1 0x1 PUSH1 0x2 DUP9 MUL ADD DUP9 SSTORE POP POP POP JUMPDEST POP POP POP POP POP POP JUMP INVALID LOG2 PUSH5 0x6970667358 0x22 SLT KECCAK256 0xC0 DUP10 BYTE 0x4C PC SWAP13 DUP11 PUSH28 0x95F63A34A73B2C1FA450E86EA1CDCF99A0D5D26894596E6364736F6C PUSH4 0x43000816 STOP CALLER "
				},
				"gasEstimates": {
					"creation": {
						"codeDepositCost": "1425800",
						"executionCost": "infinite",
						"totalCost": "infinite"
					},
					"external": {
						"MAX_NUM_OF_OPTIONS()": "414",
						"createWheel(string[])": "infinite",
						"creatorToWheelIds(address,uint256)": "infinite",
						"numOfWheels()": "2470",
						"rawFulfillRandomWords(uint256,uint256[])": "infinite",
						"requestIdToSpin(uint256)": "infinite",
						"spinById(uint256)": "infinite",
						"spinWheel(uint256)": "infinite",
						"spinsByWheelId(uint256)": "infinite",
						"wheelById(uint256)": "infinite",
						"wheelIdToSpinIds(uint256,uint256)": "infinite",
						"wheelIdToWheel(uint256)": "infinite",
						"wheelsCreatedBy(address)": "infinite"
					},
					"internal": {
						"fulfillRandomWords(uint256,uint256[] memory)": "infinite"
					}
				},
				"methodIdentifiers": {
					"MAX_NUM_OF_OPTIONS()": "531de888",
					"createWheel(string[])": "f442582e",
					"creatorToWheelIds(address,uint256)": "b53c1585",
					"numOfWheels()": "36b3f478",
					"rawFulfillRandomWords(uint256,uint256[])": "1fe543e3",
					"requestIdToSpin(uint256)": "55f3c984",
					"spinById(uint256)": "d7349e20",
					"spinWheel(uint256)": "a2d7c106",
					"spinsByWheelId(uint256)": "31e26c37",
					"wheelById(uint256)": "43b96f16",
					"wheelIdToSpinIds(uint256,uint256)": "742bc8cf",
					"wheelIdToWheel(uint256)": "eebc118c",
					"wheelsCreatedBy(address)": "86f3518e"
				}
			},
			"storageLayout": {
				"storage": [
					{
						"astId": 166,
						"contract": "docs.chain.link/samples/VRF/VRFD20.sol:VRFD20",
						"label": "COORDINATOR",
						"offset": 0,
						"slot": "0",
						"type": "t_contract(VRFCoordinatorV2Interface)95"
					},
					{
						"astId": 168,
						"contract": "docs.chain.link/samples/VRF/VRFD20.sol:VRFD20",
						"label": "s_subscriptionId",
						"offset": 20,
						"slot": "0",
						"type": "t_uint64"
					},
					{
						"astId": 171,
						"contract": "docs.chain.link/samples/VRF/VRFD20.sol:VRFD20",
						"label": "vrfCoordinator",
						"offset": 0,
						"slot": "1",
						"type": "t_address"
					},
					{
						"astId": 174,
						"contract": "docs.chain.link/samples/VRF/VRFD20.sol:VRFD20",
						"label": "s_keyHash",
						"offset": 0,
						"slot": "2",
						"type": "t_bytes32"
					},
					{
						"astId": 177,
						"contract": "docs.chain.link/samples/VRF/VRFD20.sol:VRFD20",
						"label": "callbackGasLimit",
						"offset": 0,
						"slot": "3",
						"type": "t_uint32"
					},
					{
						"astId": 180,
						"contract": "docs.chain.link/samples/VRF/VRFD20.sol:VRFD20",
						"label": "requestConfirmations",
						"offset": 4,
						"slot": "3",
						"type": "t_uint16"
					},
					{
						"astId": 183,
						"contract": "docs.chain.link/samples/VRF/VRFD20.sol:VRFD20",
						"label": "numWords",
						"offset": 6,
						"slot": "3",
						"type": "t_uint32"
					},
					{
						"astId": 189,
						"contract": "docs.chain.link/samples/VRF/VRFD20.sol:VRFD20",
						"label": "numOfWheels",
						"offset": 0,
						"slot": "4",
						"type": "t_uint256"
					},
					{
						"astId": 209,
						"contract": "docs.chain.link/samples/VRF/VRFD20.sol:VRFD20",
						"label": "creatorToWheelIds",
						"offset": 0,
						"slot": "5",
						"type": "t_mapping(t_address,t_array(t_uint256)dyn_storage)"
					},
					{
						"astId": 214,
						"contract": "docs.chain.link/samples/VRF/VRFD20.sol:VRFD20",
						"label": "wheelIdToWheel",
						"offset": 0,
						"slot": "6",
						"type": "t_mapping(t_uint256,t_struct(Wheel)197_storage)"
					},
					{
						"astId": 219,
						"contract": "docs.chain.link/samples/VRF/VRFD20.sol:VRFD20",
						"label": "wheelIdToSpinIds",
						"offset": 0,
						"slot": "7",
						"type": "t_mapping(t_uint256,t_array(t_uint256)dyn_storage)"
					},
					{
						"astId": 224,
						"contract": "docs.chain.link/samples/VRF/VRFD20.sol:VRFD20",
						"label": "requestIdToSpin",
						"offset": 0,
						"slot": "8",
						"type": "t_mapping(t_uint256,t_struct(Spin)204_storage)"
					}
				],
				"types": {
					"t_address": {
						"encoding": "inplace",
						"label": "address",
						"numberOfBytes": "20"
					},
					"t_array(t_string_storage)dyn_storage": {
						"base": "t_string_storage",
						"encoding": "dynamic_array",
						"label": "string[]",
						"numberOfBytes": "32"
					},
					"t_array(t_uint256)dyn_storage": {
						"base": "t_uint256",
						"encoding": "dynamic_array",
						"label": "uint256[]",
						"numberOfBytes": "32"
					},
					"t_bytes32": {
						"encoding": "inplace",
						"label": "bytes32",
						"numberOfBytes": "32"
					},
					"t_contract(VRFCoordinatorV2Interface)95": {
						"encoding": "inplace",
						"label": "contract VRFCoordinatorV2Interface",
						"numberOfBytes": "20"
					},
					"t_mapping(t_address,t_array(t_uint256)dyn_storage)": {
						"encoding": "mapping",
						"key": "t_address",
						"label": "mapping(address => uint256[])",
						"numberOfBytes": "32",
						"value": "t_array(t_uint256)dyn_storage"
					},
					"t_mapping(t_uint256,t_array(t_uint256)dyn_storage)": {
						"encoding": "mapping",
						"key": "t_uint256",
						"label": "mapping(uint256 => uint256[])",
						"numberOfBytes": "32",
						"value": "t_array(t_uint256)dyn_storage"
					},
					"t_mapping(t_uint256,t_struct(Spin)204_storage)": {
						"encoding": "mapping",
						"key": "t_uint256",
						"label": "mapping(uint256 => struct VRFD20.Spin)",
						"numberOfBytes": "32",
						"value": "t_struct(Spin)204_storage"
					},
					"t_mapping(t_uint256,t_struct(Wheel)197_storage)": {
						"encoding": "mapping",
						"key": "t_uint256",
						"label": "mapping(uint256 => struct VRFD20.Wheel)",
						"numberOfBytes": "32",
						"value": "t_struct(Wheel)197_storage"
					},
					"t_string_storage": {
						"encoding": "bytes",
						"label": "string",
						"numberOfBytes": "32"
					},
					"t_struct(Spin)204_storage": {
						"encoding": "inplace",
						"label": "struct VRFD20.Spin",
						"members": [
							{
								"astId": 199,
								"contract": "docs.chain.link/samples/VRF/VRFD20.sol:VRFD20",
								"label": "requestId",
								"offset": 0,
								"slot": "0",
								"type": "t_uint256"
							},
							{
								"astId": 201,
								"contract": "docs.chain.link/samples/VRF/VRFD20.sol:VRFD20",
								"label": "wheelId",
								"offset": 0,
								"slot": "1",
								"type": "t_uint256"
							},
							{
								"astId": 203,
								"contract": "docs.chain.link/samples/VRF/VRFD20.sol:VRFD20",
								"label": "result",
								"offset": 0,
								"slot": "2",
								"type": "t_uint256"
							}
						],
						"numberOfBytes": "96"
					},
					"t_struct(Wheel)197_storage": {
						"encoding": "inplace",
						"label": "struct VRFD20.Wheel",
						"members": [
							{
								"astId": 191,
								"contract": "docs.chain.link/samples/VRF/VRFD20.sol:VRFD20",
								"label": "id",
								"offset": 0,
								"slot": "0",
								"type": "t_uint256"
							},
							{
								"astId": 193,
								"contract": "docs.chain.link/samples/VRF/VRFD20.sol:VRFD20",
								"label": "numOfOptions",
								"offset": 0,
								"slot": "1",
								"type": "t_uint256"
							},
							{
								"astId": 196,
								"contract": "docs.chain.link/samples/VRF/VRFD20.sol:VRFD20",
								"label": "options",
								"offset": 0,
								"slot": "2",
								"type": "t_array(t_string_storage)dyn_storage"
							}
						],
						"numberOfBytes": "96"
					},
					"t_uint16": {
						"encoding": "inplace",
						"label": "uint16",
						"numberOfBytes": "2"
					},
					"t_uint256": {
						"encoding": "inplace",
						"label": "uint256",
						"numberOfBytes": "32"
					},
					"t_uint32": {
						"encoding": "inplace",
						"label": "uint32",
						"numberOfBytes": "4"
					},
					"t_uint64": {
						"encoding": "inplace",
						"label": "uint64",
						"numberOfBytes": "8"
					}
				}
			},
			"userdoc": {
				"kind": "user",
				"methods": {
					"constructor": {
						"notice": "Constructor inherits VRFConsumerBaseV2"
					},
					"createWheel(string[])": {
						"notice": "Create wheel"
					},
					"spinById(uint256)": {
						"notice": "Get the spin by id (spin id is the vrf request id)"
					},
					"spinWheel(uint256)": {
						"notice": "Requests randomness"
					},
					"spinsByWheelId(uint256)": {
						"notice": "Get the spins by wheel id"
					},
					"wheelById(uint256)": {
						"notice": "Get the wheel by id"
					},
					"wheelsCreatedBy(address)": {
						"notice": "Get the wheel ids created by the user"
					}
				},
				"notice": "THIS IS AN EXAMPLE CONTRACT THAT USES HARDCODED VALUES FOR CLARITY. THIS IS AN EXAMPLE CONTRACT THAT USES UN-AUDITED CODE. DO NOT USE THIS CODE IN PRODUCTION.",
				"version": 1
			}
		}
	}
}